:100000000262EF8F828E83E493FF22021F7A7B01CC
:100010007A107970901072E0FEA3E0FFF5828E8373
:10002000020D85027135901140EEF0A3EFF01269D8
:100030006B75C503901140126F7675C65A75C6A5CB
:100040000273290259239008BD7404F0A37450F080
:10005000A374A0F0A3EEF0A3EFF09008C37410F027
:10006000E49008D0F07B019008CA04F0A3740AF071
:10007000A3743DF09008C8E4F0A37480F0E4900805
:0E008000CDF0A3F07A0879BD024E250268A6E5
:10009300026401020420E86480F8E933E833601164
:1000A3000460F0ED33EC337009E8FCE9FDEAFEEBA4
:1000B300FF220460DED3EB9FEA9EE99DE8C2E78C52
:1000C300F0C2F795F0400CE8CCF8E9CDF9EACEFAA6
:1000D300EBCFFB1203EB85D0F05804700320D5B3AC
:1000E300E80470075002B2D502042A92D5EC0460EA
:1000F300F7E4CCC0E0C398F8603B94186008400D67
:10010300D0E0FB020402E4FBFAC9FC8028E830E4F7
:1001130006E4C9FBE4CAFCE830E305E4C9CACBFC46
:10012300E854076010F8C3E913F9EA13FAEB13FB79
:10013300EC13FCD8F130F52FC3E49CFCEF9BFFEEEE
:100143009AFEED99FDD0E0FBEF4E4D4C701222DB91
:1001530003020427EC2CFCEF33FFEE33FEED33FDFB
:10016300ED30E7EB020402EF2BFFEE3AFEED39FD33
:10017300D0E0FB50130BBB000302042AED13FDEE8A
:1001830013FEEF13FFEC13FC020402EC4D6011E8C5
:10019300497017ED33EC3304600DE4FCFFFEFD22E0
:1001A300E933E8330470F80204201203EB580460C7
:1001B30009E4CC2481500628500902042A2840036C
:1001C300020427C0E0EB4A7044B98006D0E0FB028A
:1001D3000416EF4E701CBD8008EBFFEAFEE9FD80BC
:1001E300EBE98DF0A4FEE5F0020277E9CDF9EAFE32
:1001F300EBFFEF89F0A4FCE5F0CE89F0A42EFFE439
:1002030035F0CD89F0A42DFEE435F08067EF4E7014
:1002130005BD80D780C3EF8BF0A4ACF0EE8BF0A4C8
:100223002CFCE435F0F8EF8AF0A42CE5F038FCE47C
:1002330033CB8DF0A42CFCE5F03BF8EE8AF0A42C34
:10024300FCE5F038F8E433CF89F0A42CFCE5F03872
:10025300CF3400CE89F0A42FFFE5F03EFEE433C98E
:100263008DF0A42EFEE5F039CD8AF0A42FFFE5F042
:100273003EFEE43DFD33D0E0FB50070BBB000F0215
:10028300042AEC2CFCEF33FFEE33FEED33FD0204C6
:100293000202042AEC5D046005E8590470030204B9
:1002A300201203EB580460F6EC4860F2EC7004FD96
:1002B300FEFF22C860DB2481C85009C39860025046
:1002C300060204279850CAF582E9294B4A7005AB08
:1002D3008202041675F0007C1A7880C3EF9BEE9AB5
:1002E300ED99400DC3EF9BFFEE9AFEED99FDE842B9
:1002F300F0DC23ACF0D0E0FFD0E0FED0E0FDAB8239
:1003030020E7101BEB60BAEC2CFCEF33FFEE33FE5F
:10031300ED33FD020402E803F830E705C0F075F0A1
:1003230000EF2FFFEE33FEED33FD40B830E7C28020
:10033300AA74F8CC6480CCC86480C8F58204604F8A
:10034300C3EB9FF5F0EA9E42F0E99D42F0E89C453D
:10035300F0603C501DE5825FFFE582D313CB5BCB9E
:10036300F42B5582FB50280ABA002409B90020084F
:10037300801DE5825BFBE582D313CF5FCFF4C3130C
:100383002F5582FF50090EBE00050DBD00010CC3A1
:10039300EB9FF5F0EA9E42F0E99D42F0E89C45F0C0
:1003A3006007CC4820E701B3EC2275F020800E757E
:1003B300F010800575F0087D007E007F003392D534
:1003C30030D503120AB7EC334010EF33FFEE33FEA0
:1003D300ED33FDEC33FCD5F0ED22E5F0247EA2D520
:1003E30013CC92E7CDCEFF22E9D2E7C933E833F845
:1003F30092D5EDD2E7CD33EC33FC5002B2D522ECEB
:1004030030E7100FBF000C0EBE00080DBD00040B3B
:10041300EB6014A2D5EB13FCED92E7FD2274FFFC15
:10042300FDFEFF22E480F8A2D574FF13FC7D80E477
:1004330080EFC0E0EFFBEEFAEDF9ECF812018ED09D
:10044300E0F5F0EFFBEEFAEDF9ECF8120B8AA3A35B
:10045300A3A3E8C0E0E9C0E0EAC0E0EBC0E0C0F07D
:1004630012018E120BA6A3A3A3A312009DD0F0D05A
:10047300E0FBD0E0FAD0E0F9D0E0F8D5F0D422F9EF
:1004830020E73624F950037907E4F42402FBE582DC
:10049300158270021583DBF6E024FB501BE9601420
:1004A300E4F0E582158270021583E004F0B40A08D3
:1004B300E4F0D9EE7401F00A22C2D522ED33EC3315
:1004C30092D5FA602AB4FF33EDC2E77BFF60067A68
:1004D3000479E4E4227A0479ED20D5047A0479E8F6
:1004E300224E614E002B494E46002D494E4600E4F4
:1004F3007A08F0A3DAFC7B00740722C083C082EC85
:10050300C0E0EDC0E0EEC0E0EFC0E0EA75F010A49B
:10051300CAABF075F04DA42BFBE435F0FCEA2410D4
:10052300FAEB34C5FBEC34D9FCEDC2E7FF75F056AA
:10053300A4F42411C5F0F434C58FF0A42AE5F03BEC
:10054300E43CF020E7141205F4D0E0FFD0E0FED045
:10055300E0FDD0E0FC1202978014F4041205F4D0FD
:10056300E0FFD0E0FED0E0FDD0E0FC12018ED082AF
:10057300D083E0FAEDD2E7CD33EC332482FBE4C33E
:10058300CF33CFCE33CECD33CD33DBF37B0775F013
:100593000A846004F0A31B0AE5F0F0A38FF0740A49
:1005A300A4FFACF08EF0740AA42CFEACF050010C46
:1005B3008DF0740AA42CFDE435F0F0A3DBDE7407A0
:1005C300223F8000004120000042C80000447A001E
:1005D30000461C400047C35000497424004B189642
:1005E300804CBEBC205A0E1BCA6753C21C749DC5E7
:1005F300AEFB60065407601C2323120622EB54381B
:10060300600912060E12061D12018EECF8EDF9EECA
:10061300FAEFCB22EB12061D80F1543803241C9011
:1006230005C4FE93FC0EEE93FD0EEE930ECE93FFE8
:1006330022E709F608DFFA8046E709F208DFFA80C5
:100643003E88828C83E709F0A3DFFA8032E309F660
:1006530008DFFA8078E309F208DFFA807088828C79
:1006630083E309F0A3DFFA806489828A83E0A3F637
:1006730008DFFA805889828A83E0A3F208DFFA80D0
:100683004C80D280FA80C680D4806980F280338027
:100693001080A680EA809A80A880DA80E280CA80EF
:1006A3003389828A83ECFAE493A3C8C582C8CCC594
:1006B30083CCF0A3C8C582C8CCC583CCDFE9DEE711
:1006C300800D89828A83E493A3F608DFF9ECFAA903
:1006D300F0EDFB2289828A83ECFAE0A3C8C582C8C5
:1006E300CCC583CCF0A3C8C582C8CCC583CCDFEA14
:1006F300DEE880DB89828A83E493A3F208DFF98052
:10070300CC88F0EF60010E4E60C388F0ED2402B494
:10071300040050B9F582EB2402B4040050AF232344
:1007230045822390068473BB010689828A83E02273
:100733005002E722BBFE02E32289828A83E49322EA
:10074300BB010CE58229F582E5833AF583E022506B
:1007530006E92582F8E622BBFE06E92582F8E222B5
:10076300E58229F582E5833AF583E49322BB0111FF
:10077300F8E58229F582E5833AF583E0C828F0E8B5
:10078300225009C58229F8C58226C622BBFE0DC5A3
:100793008229F8E2C5822582F2E58222EA2583F5E1
:1007A30083E99322BB010FF8E58229F582E5833AB9
:1007B300F583E028F0225009C58229F8E58226F660
:1007C30022BBFE09C58229F8E22582F222F8EA2536
:1007D30083F583E9932822BB010689828A83F02269
:1007E3005002F722BBFE01F322F8BB010DE582297B
:1007F300F582E5833AF583E8F0225006E92582C8BD
:10080300F622BBFE05E92582C8F222EF8DF0A4A8EB
:10081300F0CF8CF0A428CE8DF0A42EFE22BC000BCA
:10082300BE0029EF8DF084FFADF022E4CCF875F023
:1008330008EF2FFFEE33FEEC33FCEE9DEC98400502
:10084300FCEE9DFE0FD5F0E9E4CEFD22EDF8F5F0C8
:10085300EE8420D21CFEADF075F008EF2FFFED33D0
:10086300FD4007985006D5F0F222C398FD0FD5F04E
:10087300EA22C5F0F8A3E028F0C5F0F8E582158276
:1008830070021583E038F022A3F8E0C5F025F0F0FC
:10089300E582158270021583E0C838F0E822BB01B7
:1008A3000A89828A83E0F5F0A3E022500687F009E3
:1008B300E71922BBFE07E3F5F009E3192289828ACF
:1008C30083E493F5F074019322BB0110E58229F5CB
:1008D30082E5833AF583E0F5F0A3E0225009E925A8
:1008E30082F886F008E622BBFE0AE92582F8E2F5E3
:1008F300F008E222E5832AF583E993F5F0A3E9936F
:1009030022BB010FF8E58229F582E5833AF583E8F6
:1009130002088B5011C58229F808C5F026C6F5F0E8
:1009230018C58236C622BBFE15C58229F808E2C562
:10093300F025F0F218E2C5823582F2E58222E583E2
:100943002AF583E993F5F0A3E993C5F022BB010DE2
:10095300C58229C582C5833AC5830208755011C56E
:100963008229F808E5F026F618F5F0E58236F62236
:10097300BBFE11C58229F808E225F0F5F0F218E272
:100983003582F222F8E58229F582E5832AF583741C
:10099300019325F0F5F0E4933822BB010A89828A9A
:1009A30083F0E5F0A3F0225006F709A7F01922BB64
:1009B300FE06F3E5F009F31922F8BB0111E58229DC
:1009C300F582E5833AF583E8F0E5F0A3F0225009D8
:1009D300E92582C8F608A6F022BBFE09E92582C8EC
:1009E300F2E5F008F22275F008758200EF2FFFEEB2
:1009F30033FECD33CDCC33CCC58233C5829BED9A48
:100A0300EC99E58298400CF582EE9BFEED9AFDECA5
:100A130099FC0FD5F0D6E4CEFBE4CDFAE4CCF9A8EB
:100A23008222B800C1B90059BA002DEC8BF084CFF3
:100A3300CECDFCE5F0CBF97818EF2FFFEE33FEEDCA
:100A430033FDEC33FCEB33FB10D703994004EB99F4
:100A5300FB0FD8E5E4F9FA227818EF2FFFEE33FE07
:100A6300ED33FDEC33FCC933C910D7059BE99A403C
:100A730007EC9BFCE99AF90FD8E0E4C9FAE4CCFB54
:100A83002275F010EF2FFFEE33FEED33FDCC33CCA8
:100A9300C833C810D7079BEC9AE899400AED9BFD31
:100AA300EC9AFCE899F80FD5F0DAE4CDFBE4CCFA44
:100AB300E4C8F922C3E49FFFE49EFEE49DFDE49CA9
:100AC300FC22EB9FF5F0EA9E42F0E99D42F0E89CA0
:100AD30045F022E8600FECC313FCED13FDEE13FEAB
:100AE300EF13FFD8F122E8600FEFC333FFEE33FEBD
:100AF300ED33FDEC33FCD8F122BB010789828A83F5
:100B0300020F8E5005E9F8020F82BBFE05E9F802D9
:100B13000F9A89828A83020B8ABB010DE58229F52C
:100B230082E5833AF583020F8E5007E92582F802A6
:100B33000F82BBFE07E92582F8020F9AE58229F5A9
:100B430082E5833AF583020B8ABB010789828A8394
:100B5300020C065005E9F8020FC0BBFE05E9F802D6
:100B63000FCC22BB010DE58229F582E5833AF5839B
:100B7300020C065007E92582F8020FC0BBFE07E905
:100B83002582F8020FCC22E493FC740193FD7402D6
:100B930093FE740393FF22E0F8A3E0F9A3E0FAA322
:100BA300E0FB22E493F8740193F9740293FA74035B
:100BB30093FB22BB010789828A83020B9A5005E9C2
:100BC300F8020FA6BBFE05E9F8020FB389828A83F8
:100BD300020BA6BB010DE58229F582E5833AF58375
:100BE300020B9A5007E92582F8020FA6BBFE07E91C
:100BF3002582F8020FB3E58229F582E5833AF5836E
:100C0300020BA6ECF0A3EDF0A3EEF0A3EFF022A805
:100C1300828583F0D083D082120C29120C29120C06
:100C230029120C29E473E493A3C583C5F0C583C8D3
:100C3300C582C8F0A3C583C5F0C583C8C582C822D1
:100C4300F8E0FBA3A3E0F925F0F0E582158270023A
:100C53001583E0FA38F022EBF0A3EAF0A3E9F022DF
:100C6300BB010789828A83020FEA5005E9F8020F64
:100C7300D8BBFE05E9F8020FF389828A83021005C7
:100C8300BB011A89828A83D0F0D0E0F8D0E0F9D092
:100C9300E0FAD0E0FBE8C0E0C0F0020C5A5016E9DD
:100CA300F8D083D082D0E0F9D0E0FAD0E0FBC08264
:100CB300C083020FE1BBFE16E9F8D083D082D0E0F7
:100CC300F9D0E0FAD0E0FBC082C083020FFC22BB64
:100CD300010DE58229F582E5833AF583020FEA5097
:100CE30007E92582F8020FD8BBFE07E92582F8023F
:100CF3000FF3E58229F582E5833AF583021005BBFC
:100D03000120E58229F582E5833AF583D0F0D0E02E
:100D1300F8D0E0F9D0E0FAD0E0FBE8C0E0C0F002A0
:100D23000C5A5018E92582F8D083D082D0E0F9D04C
:100D3300E0FAD0E0FBC082C083020FE1BBFE18E9FA
:100D43002582F8D083D082D0E0F9D0E0FAD0E0FB5E
:100D5300C082C083020FFC22D083D082F8E4937058
:100D630012740193700DA3A393F8740193F5828811
:100D730083E4737402936860EFA3A3A380DF8A8381
:100D83008982E473EC8EF0A4CCC5F0CCCDF8EFA44B
:100D9300CEC5F02DFDE43CFCE8A42EC8C5F03DFD16
:100DA300E43CFCEFA4FFE5F028FEE43DFDE43CFC5D
:100DB30022EF4E6012EF60010EEDBB010B89828AB8
:100DC30083F0A3DFFCDEFA2289F05007F709DFFC8A
:100DD300A9F022BBFEFCF309DFFCA9F022E709F628
:100DE30008DFFA807BE9D39850F3E92FF9E82FF86D
:100DF30019E718F6DFFA8068E709F208DFFA80607E
:100E030080E388828C83E709F0A3DFFA8052E30949
:100E1300F608DFFA804AE9D398500EE92FF9E82F54
:100E2300F819E318F2DFFA8037E309F208DFFA80F2
:100E33002F88828C83E309F0A3DFFA802389828AD7
:100E430083E0A3F608DFFA801789828A83E493A3F9
:100E5300F208DFF9800A89828A83E0A3F208DFFAC5
:100E6300020EF280B180F980A580C680DC80F1801B
:100E7300738010808380E98087808780D980E180B8
:100E8300BC8073D3E998EA9C5039E92FF582EA3B99
:100E9300F583E82FF8EC3BFC0582D5820215831518
:100EA30082E493C8C582C8CCC583CC0582D58202AF
:100EB30015831582F0C8C582C8CCC583CCDFD9DEC3
:100EC300D7802E89828A83ECFAE493A3C8C582C8AB
:100ED300CCC583CCF0A3C8C582C8CCC583CCDFE91D
:100EE300DEE7800D89828A83E493A3F608DFF9ECB9
:100EF300FAA9F0EDFB22D3E998EA9C5038E92FF5E3
:100F030082EA3BF583E82FF8EC3BFC0582D58202AD
:100F130015831582E0C8C582C8CCC583CC0582D5AC
:100F2300820215831582F0C8C582C8CCC583CCDF85
:100F3300DADED880BC89828A83ECFAE0A3C8C58252
:100F4300C8CCC583CCF0A3C8C582C8CCC583CCDFCD
:100F5300EADEE8809C809888F08E83EF60010E4E75
:100F6300608DED2402B404005085F582EB2402B4B5
:100F7300040050E123234582AB8323900E6673E67E
:100F8300FC08E6FD08E6FE08E6FF22E0FCA3E0FD20
:100F9300A3E0FEA3E0FF22E2FC08E2FD08E2FE0874
:100FA300E2FF22E6FB08E6F908E6FA08E6CBF822B8
:100FB300E2FB08E2F908E2FA08E2CBF822ECF608D1
:100FC300EDF608EEF608EFF622ECF208EDF208EE85
:100FD300F208EFF222E6FB08E6FA08E6F922EBF65E
:100FE30008EAF608E9F622E0FBA3E0FAA3E0F92217
:100FF300E2FB08E2FA08E2F922EBF208EAF208E976
:10100300F222E493FB740193FA740293F922E5222A
:101013002498F582E43412F583E005222290129598
:10102300300703901298E475F001120C4302072A6B
:101033002000E97F2ED2008018EF540F2490D4347F
:1010430040D4FF30040BEF24BFB41A0050032461D3
:10105300FFE523600215230526E5267002052530EA
:10106300070E901295E475F001120C43EF0207DAB4
:101073000271857403D2078003E4C207F52290123C
:1010830095120C5AE4F523F525F526E52360077F31
:101093002012105480F57524FFC201C200C202C29F
:1010A30003C205C206C208121020FF700D300705E7
:1010B3007F00121065AF26AE2522B4255FC2D5C2CC
:1010C30004121020FF24D0B40A00501A75F00A78D5
:1010D3002330D50508B6FF0106C6A426F620D5049D
:1010E3007002D20380D924CFB41A00EF5004C2E5B2
:1010F300D204021357D20180C6D20080C0D202802C
:10110300BCD2D580BAD20580B47F201210542002FD
:10111300077401B5230040F1121011FF121054029D
:10112300108ED208D2068095121011FB121011FAFC
:10113300121011F94A4B700679557A147BFF20027D
:101143002EE523602A7E008E82758300120743609A
:10115300060EEE652470F0C2D5EBC0E0EAC0E0E90C
:10116300C0E0EE1213B8D0E0F9D0E0FAD0E0FB1201
:10117300072AFF60AAEBC0E0EAC0E0E9C0E0121072
:1011830054D0E02401F9D0E03400FAD0E0FBE524A8
:101193000460DCD524D98087D20280A212139A601E
:1011A300F7E524700104120482A924600DE524608C
:1011B3000914F524121442EF60F3EA30E702F40451
:1011C300C3995079EAF425240430E701E404F524B3
:1011D300800D12139A60C1EA05242524120482EAC1
:1011E3009012C4F030E701E4252404D5240420053B
:1011F30001141213B8E4C0E01214429012C4E06068
:101203001320E70714F012103C802204F0D0E014FE
:10121300C0E07F0012103CE5246007121033152450
:10122300800B300503121033D0E002108ED0E0049F
:1012330080C412139A609EE524041204829012C49F
:10124300EAF0E52420050260010424041213B874B3
:10125300FF04C0E012144212103CE5242005026092
:1012630003121033D0E0B524E87F451210469012E4
:10127300C4E07F2B30E7047F2DF404C0E012105448
:10128300D0E075F00A84C0F012103DD0E012103D9A
:1012930002108E791080027908C206C2088008D233
:1012A300D5790A8004790AC2D5E524047002F524AD
:1012B300E4FAFDFEFF121011FC7B0820011312104B
:1012C30011FD7B1030000A121011FE121011FF7B6A
:1012D30020EC3382D592D55013C3E43000069FFF30
:1012E300E49EFEE42001039DFDE49CFCE4CBF8C2F4
:1012F30001EC700CCFCECDCCE824F8F870F3801756
:10130300C3EF33FFEE33FEED33FDEC33FCEB33FB86
:10131300994002FB0FD8E9EB300105F8D0E0C4484F
:10132300B201C0E00AEC4D4E4F78207B0070C2EA58
:10133300B5240040BCC0E01213BAD0F0D0E02001C5
:1013430004C4C0E0C4B201C0F012103DD0F0D5F027
:10135300EB02108E120D5B112B5312965810FC4C9E
:1013630010F842129A4F12A24412A24911114312C9
:10137300A85511D546123545119F471475501100D4
:101383002D11042E11272B110823112520145E2A59
:1013930010C0480000111FE524B4FF037524061292
:1013A3001011FC121011FD121011FE121011FF90FA
:1013B30012BD0204BF790AA2D5200314300509B96E
:1013C30010020404B9080104A2D520060250010446
:1013D3002002689202B523005034C0E07F2030031E
:1013E300197F30A20272067205500F121411C20245
:1013F300C206C205C2087F30800F300503E9C0E092
:10140300121054300503D0E0F9D0E0B523CC3005F9
:10141300177F30B9100C1210547F583004077F78AF
:101423008003B908031210543002057F2D021054B3
:101433007F202008F87F2B2006F322920280CF7FA3
:1014430000B40700500B24BDF582E43412F583E0A9
:10145300FF22286E756C6C2900D201121011300125
:10146300F8C201782330D50108F60210C02D50438D
:1014730049581210112403B405004001E49014707C
:1014830093121045743A121045D2037523040212C5
:1014930096901122EBF0A3EAF0A3E9F09011221247
:1014A30053C5EA494B70030217BBA31253C5EA495C
:1014B3004B70030217BB901125A3A3E012543D9078
:1014C3000119125412783D12018EC004C005C006E2
:1014D300C0079011251253C512543D9001181254A0
:1014E30012784112018ED003D002D001D0001254E1
:1014F3008A1253C59000041254911253C512543DDD
:1015030090011B12545679207841120297C004C0EF
:1015130005C006C0079011251253C512543D900112
:101523001A125412784112018ED003D002D001D086
:101533000012548A1253C5900018125498EC4D4E61
:101543004F602A9011221253C5900004120BD6C08B
:1015530000C001C002C0039011221253C51254628D
:10156300D003D002D001D0001202978005E4FFFE21
:10157300FDFC9011221253C590000812549112538E
:10158300C512543D90011D12074354F0FFC4540F7C
:10159300125459F9784012018EC004C005C006C028
:1015A300079011251253C512543D90011C12545635
:1015B300F9784212018ED003D002D001D00012007C
:1015C3009DC004C005C006C0079011251253C51263
:1015D300543D90011D120743540F125415783D12C8
:1015E300018ED003D002D001D00012548A1253C509
:1015F300120B4C9011221253C5125462EC4D4E4FF4
:101603006031901122A3A3E0120AFC7466FBFAF97D
:10161300783F12018EC004C005C006C00790112296
:101623001253C5125462D003D002D001D00012026B
:10163300978005E4FFFEFDFC9011221253C5900034
:1016430014120B66125470EC4D4E4F603190112200
:101653001253C5125470C004C005C006C0079011D0
:10166300221253C5125462D003D002D001D000120B
:101673000297E4FBFA79C8784212018E8005E4FFF1
:10168300FEFDFC9011221253C590001C12549112BE
:1016930053C51253FCD39440EE9401901125E0FB03
:1016A30040251253C71253FCFFAC06E41203B212D7
:1016B3004F977B7B7A14790C78C212018E7B857AE3
:1016C3006B7976784380201253C71253FCFFAC0624
:1016D300E41203B27BC87A9879BB78BD12018E7B82
:1016E300127A837991784212009D9011221253C588
:1016F30090000C125498E4FBFA79487843120334AF
:10170300602240201253CEAEF044081253F5EF543A
:10171300FB1253E190112212542824221253DA545B
:10172300FE0217B89011221253C512546279701237
:10173300548250251253CEAEF054F71253F5EF44B2
:10174300041253E1EF44101253F59011221254285E
:1017530024221253DA4401805C901122125428246B
:10176300221253DA54FE1254681253CEAEF04402DE
:101773001253F5EF54F71253F5EF54FB1253F59050
:1017830011221253C59000201208CC30E408E9124C
:1017930053D8442080051253CE54DF12546890115D
:1017A300221253C5120AFC7920125482600A40089F
:1017B3001253CE54EF125468227B017A0879819038
:1017C300152EEBF0A3EAF0A3E9F090152EE0FBA3AE
:1017D300E0FAA3E0F9EA494B7003021A5C7B017A51
:1017E3000879D1C003C002C00190152EE0FBA3E02D
:1017F300FAA3E0F9C3D082D083D0E0E99582EA95D9
:10180300834003021A5C90152EE0FBA3E0FAA3E0E9
:10181300F912072AFF7E00EF64044E706790152EBD
:10182300E0FBA3E0FAA3E0F975820B7583001208CD
:10183300CCFFAEF0EF24FFFFEE34FFFE90137FE00A
:10184300FBA3E0FAA3E0F9758203758300EE8FF042
:101853001209BC90152EE0FBA3E0FAA3E0F9758210
:101863000D758300120CD2C003C002C00190137F18
:10187300E0FBA3E0FAA3E0F9120C837B017A13796E
:1018830078125FAC90152EE0FBA3E0FAA3E0F91207
:10189300072AFF7E00EF64024E707390152EE0FB63
:1018A300A3E0FAA3E0F975820D758300120CD2C090
:1018B30003C002C00190108BE0FBA3E0FAA3E0F9A0
:1018C300120C8390152EE0FBA3E0FAA3E0F97582D6
:1018D3000B7583001208CCFFAEF0EF24FFFFEE344C
:1018E300FFFE90108BE0FBA3E0FAA3E0F9758203FF
:1018F300758300EE8FF01209BC7B017A107970902A
:101903001072E0FEA3E0FF8F828E83120D85901587
:101913002EE0FBA3E0FAA3E0F975821375830012AE
:101923000743FFEF20E103021A4F90152EE0FBA3BC
:10193300E0FAA3E0F9E92413F9EA3400FA12072ADA
:10194300FFEF54FDFFEF1207DA90152EE0FBA3E043
:10195300FAA3E0F912072AFFEF120D5B196C0119C4
:10196300730219D60300001A07C2ACD2AC021A07DD
:10197300901071E0FFEF6003021A5C53AFFE901505
:101983002EE0FBA3E0FAA3E0F975820D7583001244
:101993000CD2901087EBF0A3EAF0A3E9F090152E98
:1019A300E0FBA3E0FAA3E0F9758210758300120847
:1019B300CCFFAEF090108AEFF07B017A1079709033
:1019C3001072E0FEA3E0FF8F828E83120D8543AF7A
:1019D30001803153AFF77B017A147919C003C00238
:1019E300C00190152EE0FBA3E0FAA3E0F9901125C6
:1019F300EBF0A3EAF0A3E9F0D001D002D003121474
:101A03009443AF0890152EE0FBA3E0FAA3E0F97529
:101A130082107583001208CCFFAEF07D0090152E66
:101A2300E0FBA3E0FAA3E0F975820D758300120CC5
:101A3300D2120DB490152EE0FBA3E0FAA3E0F975E2
:101A43008210758300E475F0001209BC90152FE431
:101A530075F0141208750217CD229011361235391C
:101A63001235C090113C12351C1235ED30E00302E3
:101A73001B1F9014E9E07003021B1F123671400311
:101A8300021B1F7F0B1267601235241235C0C0037F
:101A9300C002C001123524123530123689D001D06C
:101AA30002D0031264851235241235D4640145F043
:101AB300705E12352412357F12072AFF64416004D9
:101AC300EFB461037F032212072AFF64016005EF6D
:101AD3006402703C9011361235481236019011366B
:101AE3001235C612363F12352412357F12072A6487
:101AF30001901136700C12352790002EE475F08595
:101B0300800B12352790002E740475F0051209BC62
:101B1300123668F074641235221235B0123524126D
:101B230035EDFDACF020E00F123585BE0206BF583F
:101B3300037F08227F0122ED30E103021BDD9014B5
:101B4300E9E07003021BDD1236714003021BDD1254
:101B530035241235C0C003C002C00112352412352A
:101B63007FC003C002C00112352490003B123588A8
:101B7300D001D002D00329F9EA3EFAE924019011F9
:101B83004712351812360E24FFFDE5F034FFCDC39E
:101B93009FFFED9E90114AF0A3EFF0D001D002D049
:101BA3000312648512352412362612360E24FFFFE3
:101BB300E5F034FFFE1235DDB50712EEB5F00E90F9
:101BC30011361235481208A144021236061236683D
:101BD300F0A374641235231235B01235241235ED97
:101BE30020E10F123585BE0206BF58037F08227F0E
:101BF300012212357FC003C002C0011235249000B8
:101C03003B123588E4FCFDD001D002D003124A3DDB
:101C130012352412357F1236A17009900002120783
:101C230043F460037F0A22123690C003C002C0014E
:101C330012352412360E24FBFDE5F034FFFCD001EF
:101C4300D002D003126C0090113AEEF0A3EF1235DC
:101C53002312357FC003C002C00112352412360E91
:101C6300FD24FE12367FD001D002D0031207437F3A
:101C730000FE12352412357F74FF2D1236811207B0
:101C830043FDEDFF90113AE06E7003A3E06F600334
:101C93007F072212352412357FE924039011421263
:101CA300351812360E24FBFEE5F034FF901145F093
:101CB300A3CEF0125E2C901139EF12352390002839
:101CC3001236171235E360037F0A2290003712366B
:101CD3001774011207DA12352490000174031207F6
:101CE300EC7F0C1267607F0B126760901139E0FF85
:101CF30022901125EDF0901122EB12240A1224DA1E
:101D0300901126EBF0A3EAF0E91223F412242F1228
:101D130024AC500B1223F612242F12244280721289
:101D230023F612242F122483C333CE33CED8F912D1
:101D33002475C004C005C006C0071223F612242F61
:101D430012248EC333CE33CED8F9122475D003D0E8
:101D530002D001D000122435C004C005C006C0075C
:101D63001223F612242F122456D003D002D001D00E
:101D730000EB122437C004C005C006C0071223F6C7
:101D830012242F1224D2D003D002D001D000122467
:101D9300C0901129EEF0EF1223F412247D90112547
:101DA3001225F3120B1C90112BEEF0A3EFF0E4A31A
:101DB300F0A3F09011261223F990000D1208CCFF26
:101DC30090112FE5F0F0A3EFF090000F1208CCFF75
:101DD300901131E5F0F0A3EF1223F512247D901159
:101DE3002512241BFFC390112AE09F901129E0952F
:101DF300F05003021F791224F0901129E0FCA3E0B4
:101E0300FDD39FEC95F04003021F79A3E0FEA3E00E
:101E1300FFBE100DBF200A901376ECF0A3EDF08007
:101E23000EBE100BBF2108901374ECF0A3EDF0EF7E
:101E330064227003EE64106003021F0BED64F14C27
:101E43006003021F0B1225157003A3E06F70641269
:101E5300256F7003A3E06F705A9012EEF0A3F09019
:101E630011261223F990000C12074354027E0060DE
:101E7300047F0680027F0790112DEEF0FCA3EFF0A4
:101E8300FD1223F6126D05901126E0F9A3E0FAA3E3
:101E9300E090113CC912240AA3E4F0A3740C1223AA
:101EA300F57D127C1012625D1224B87475F0A37470
:101EB3009F804F1225157003A3E06F601C12256FDE
:101EC3007003A3E06F60129012EEE4F07403122427
:101ED300B67475F0A374C380291225157003A3E0AB
:101EE3006F9012EE600FE4F0A3041224B77475F040
:101EF300A374EA800DE4F074021224B67476F0A39E
:101F030074041224A412667A90112BE064107004F6
:101F1300A3E064237042901129E07004A3E064F00D
:101F230070369012EEF0A3F0901133120C120000F1
:101F330000001225337411F07433122584740412D3
:101F430023F57D207C1012625D1224B87476F0A311
:101F530074221224A412667A90113C7401F0A374C3
:101F630012F0A374EEF0A3E4F0A374021223F57D40
:101F7300247C1012625D22C0E0C0F0C083C082C026
:101F8300D075D000C000C001C002C003C004C005AA
:101F9300C006C00775270075270090148DE0FFE584
:101FA30027C39F400302203BAF27EF75F009A4240A
:101FB30092F582E43414F583E0FF7E00EF64014E72
:101FC3007071AF27EF75F009A4248EF582E4341401
:101FD300F583E475F001120875AF27EF75F009A4D6
:101FE3002490F582E43414F583E0FEA3E0FFAD27EB
:101FF300ED75F009A4248EF582E43414F583E0FC36
:10200300A3E0FDEDB5072CECB50628AF27EF75F07F
:1020130009A42493F582E43414F5837401F0AF2703
:10202300EF75F009A4248EF582E43414F583E4F00B
:10203300A3E4F00527021F9D7B017A0879817828A4
:10204300A60308A60208A6017828860308E6FA086C
:10205300E6F9EA494B70030221147B017A0879D12E
:10206300C003C002C0017828860308E6FA08E6F92F
:10207300C3D082D083D0E0E99582EA9583400302FE
:1020830021147828860308E6FA08E6F975821375A1
:102093008300120743FFEF30E06A7828860308E6DF
:1020A300FA08E6F9758212758300120743FFEF60A1
:1020B300177828860308E6FA08E6F975821275830D
:1020C3000074FF1207A7803C7828860308E6FA0805
:1020D300E6F9E92413F9EA3400FA12072AFFEF5468
:1020E300FEFFEF1207DA7828860308E6FA08E6F916
:1020F300E92413F9EA3400FA12072AFFEF4402FF36
:10210300EF1207DA782A741426F618E436F602205A
:102113004B7B017A1479E9901537EBF0A3EAF0A32E
:10212300E9F07B017A1479EDC003C002C001901578
:1021330037E0FBA3E0FAA3E0F9C3D082D083D0E079
:10214300E99582EA95835052901537E0FBA3E0FAB4
:10215300A3E0F97582027583001208CCFFAEF0EF9D
:102163004E7012901537E0FBA3E0FAA3E0F9740177
:102173001207DA8019901537E0FBA3E0FAA3E0F920
:1021830075820275830074FF75F0FF120950901574
:1021930038E475F0041208758088D007D006D0059E
:1021A300D004D003D002D001D000D0D0D082D083CD
:1021B300D0F0D0E0327B017A1479B29014B6EBF010
:1021C300A3EAF0A3E9F07BFF7A7779D1C003C002D9
:1021D300C0017B017A1479B9A801AC02AD03D00127
:1021E300D002D0037E007F021207049014BBE4F0F8
:1021F300A3E4F07B017A14793D9014BDEBF0A3EADC
:10220300F0A3E9F07BFF7A7779D3C003C002C00162
:102213007B017A1479C0A801AC02AD03D001D002CE
:10222300D0037E007F131207041246431270077F08
:10223300CA7EFF126DA87FCA7EFF126E857F757EF0
:10224300FD126EC87FCA7EFF1200469014BDE0FBEC
:10225300A3E0FAA3E0F9901152E4F0A37413F07F22
:10226300007EFC126E409014BDE0FBA3E0FAA3E0F5
:10227300F990115174FFF0A374FFF07D117C0012EB
:1022830061169014BBEEF0A3EFF09014BDE0FBA336
:10229300E0FAA3E0F97582117583001208CCFFAE52
:1022A300F09014BBE0FCA3E0FDEF6D7002EE6C60F8
:1022B300737B017A1479C0C003C002C0019014BDBE
:1022C300E0FBA3E0FAA3E0F9A801AC02AD03D0015F
:1022D300D002D0037E007F131207047B017A1479A6
:1022E300C090115174FFF0A374FFF07D117C0012B4
:1022F30061169014BDE0FBA3E0FAA3E0F975821127
:10230300758300EE8FF01209BC9014BDE0FBA3E0CF
:10231300FAA3E0F990113EE4F0A37413F07F007E7A
:10232300FC126A2BD2AF1265099014B2120C067F0D
:102333000512725F9014B9EFF07F3512725F90143B
:10234300BAEFF07B017A087995C003C002C0017B24
:10235300FF7A777984901161EBF0A3EAF0A3E9F0B7
:102363007BFF7A7779CB901164EBF0A3EAF0A3E9D2
:10237300F09014B6E0FBA3E0FAA3E0F975820175CF
:102383008300120743FF901167EFF09014B6E0FB50
:10239300A3E0FAA3E0F9758202758300120743FFF5
:1023A300901168EFF09014B6E0FBA3E0FAA3E0F914
:1023B300758203758300120743FF901169EFF09054
:1023C30014BAE0FF90116AEFF09014B9E0FF901196
:1023D3006BEFF0D001D002D00312667AC2A97B0161
:1023E3007A14798E125D62D2A9A2CDB392CD80EC1C
:1023F30022A3F0901122E0FBA3E0FAA3E0F922F973
:10240300E43AFAEB90113CF0A3EAF0A3E9F022904E
:102413000010120CD2901125E075F00BA429F9EAF3
:1024230035F0FA9000060208CCA3A3E090000A025C
:102433000CD2EB4FFFEA4EFEE94DFDE84CFC229037
:102443000001120743FE900002120743FDEDFFE473
:10245300FCFD22900003120743FE3395E0FDFC22AE
:10246300E075F00BA4F58285F083120B1CAD07AC6D
:102473000622FFEE3395E0FDFC22900010020CD201
:102483009000011207437E00781822900002120781
:10249300437E00781022E0FFA3E0901164CFF0EFB9
:1024A300A3F07B017A0879812212072AC39402E4FC
:1024B300940022A3F090116174FFF0A322EB4FFF6D
:1024C300EAFEE9FDE8FC22E0FBA3E0FAA3E02290A8
:1024D3000004120743FF2290000D020CD2A3E4F084
:1024E300A37402F0229000131208CCFF2290000480
:1024F3001208CCFF22900002120CD2A801AC02AD4C
:10250300037B0122900007120CD29011477401F053
:10251300A32290112FE0FEA3E0FF901376E06E223A
:10252300E0C39FE495F0227D017BFF7E0002070458
:10253300E4901374F0A3F0A3F0A3F090113C04F023
:10254300A32234FFFC74FF901151F0A3F0229000FA
:1025530002020CD2240CF9E43AFA02072A12070405
:1025630090113FE0FEA3E0FF90113722901131E07C
:10257300FEA3E0FF901374E06E22A3ECF0A3EDF052
:1025830022A3F0A3E4F0A322E0FEA3E0FFE4FCFD1A
:10259300C3020AC590112AE09F901129E095F02209
:1025A30090112AE09F901129E095F02290112AE0E2
:1025B3009F901129E095F02290112AE09F90112914
:1025C300E095F02290112AE09F901129E095F022E6
:1025D300900005E475F001020904FDECF0A3EDF0B1
:1025E300900005E4227E007F0A120704901137222F
:1025F300E075F00BA4F58285F08322F9EA3EFA90A8
:102603000008020CD29000050208CC85F082F58305
:10261300EF0207EC900007020CD24213760000424F
:10262300137400004212EE0000608412F0000010E8
:102633001200200001FF4B8C000010130258007899
:10264300FF3F7800001014025800DCFF40D4000064
:102653001015025800DCFF42300000101600230062
:1026630001FF4CD90000101703B6000FFF438C0085
:1026730000101800010000FF508C00001020270FED
:102683000000FF1CF400001021270F0000FF1CF4C2
:1026930000001022FFFF0000FF1CF400001023FFC6
:1026A300FF0000FF1CF400001030FFFF0000FF518B
:1026B300B049139000000000000000000058137898
:1026C300FC00011399000001139000000001143D68
:1026D3000112F0000C0108BD6024148E0000006498
:1026E3000100FF17BC000005DC0100FF2E440000C1
:1026F30003E80100FF5845000003E80100FF5BB356
:1027030041148D0444148500000000441489000022
:1027130000004414E900000000605008810000003C
:1027230000000000000000000000000000000000A6
:102733000000000000000000000000000000000096
:102743000000000000000000000000000000000086
:102753000000000000000000000000000000000076
:102763000000000000000000000000000041000025
:102773000060371419000000000000000000000092
:102783000000000000000000000000000000000046
:102793000000000000000000000000000000000036
:1027A3000000000000000000000000004910990034
:1027B30000000000000000006029107002003B3D93
:1027C3005C8B57642836479D3CB054AB36B101103F
:1027D300A280000000000001109901143D01010FC7
:1027E300080001089560450EC300000000000000CA
:1027F30000000000000000000000000000000000D6
:1028030000000000000000000000000000000000C5
:1028130000000000000000000000000000000000B5
:102823000000000000000000000000000000410A5A
:10283300BD0000901122EB123E41901122123E2660
:10284300123E57900004120743123E75901125EF74
:10285300F054077F0060027F01901125E0FE1313FF
:1028630013541F2FA3F090116F7401F0A37411F090
:10287300A37427F0E4A3F0A3F0EEC3944874809408
:10288300804003022A47901125E0FF7E007D0090DF
:10289300116F123E26120DB4901122123E26123EE3
:1028A3005D120DB4901122123E26900016E4123EE2
:1028B30054C003C002C001901122123E26123E688A
:1028C300123F18D001D002D0037E007F021207040A
:1028D300901122123E26123EA3901126E0FF123ED3
:1028E30068C003C002C001901122123E2690001658
:1028F3007401120770D001D002D003123F1F901150
:1029030022123E26123E57123EC564017F0170011A
:10291300FF901122123E26123EFFC003C002C001E7
:10292300901122123E26123E57123E8A12074390FE
:10293300116F123E2F901125E090117DF0D001D040
:1029430002D0031244E8901126E0FF901172E0C315
:102953009F4003022A39E4A3F0901173E0FD7C0049
:10296300C39408EC94004003022A27901172E07587
:10297300F008A42DFFEC35F0FE901125E0FDC3EF28
:102983009DEE9C4003022A2790116F123E26901160
:1029930073E0FF901172E075F008A42FF582E4351F
:1029A300F0F5831207435401901174F060349011D1
:1029B30022123E26123E68C003C002C001901122BB
:1029C300123E26123E9DD001D002D00329123EBEF4
:1029D300FE901174E0FDA807088002C333D8FC4EB3
:1029E3008036901122123E26123E68C003C002C0F8
:1029F30001901122123E26123E9DD001D002D00337
:102A030029123EBEFF901173E0FEA3E0FDA8060865
:102A13008002C333D8FCF45F1207DA901173E00429
:102A2300F002295C901122123E26123F2890117267
:102A3300E004F0022949901122123E26123EEDE4F1
:102A4300FD120D8522901122EBF0A3EAF0A3E9F029
:102A53001253C2EA494B7003022C4EA31253C5EA28
:102A6300494B7003022C4E1253C29000241254435C
:102A73009400EE94004003D38001C3500EC3EF943F
:102A830021EE940050028001C3400A900024E475B3
:102A9300F0011209BC900024125421900026125315
:102AA300BD12547C5401901125600B1253C574025E
:102AB3001254A1E480091253C5E41254A174011203
:102AC30007EC1253C212547C5402901125600A126F
:102AD30053C590001F740180071253C590001FE473
:102AE3001207EC1253C290002C1254439400EE943C
:102AF300004003D38001C3500EC3EF9424EE94002F
:102B030050028001C3400A90002CE475F0011209C1
:102B1300BC90002C1254219000211253BD12547CFE
:102B2300FF54026014EF5404600FE92430F9E43ACF
:102B3300FA12072A54FB1207DA1253C212547C54B6
:102B430004901125600A1253C59000227401800776
:102B53001253C5900022E41207EC1253C290002EC8
:102B6300125443940EEE94004003D38001C3500EDD
:102B7300C3EF94B7EE940350028001C3400A900060
:102B83002EE475F00F1209BC90002E125433125329
:102B9300C59000241253BE90002E12544E1253C5FA
:102BA3009000251253BE90002812544394DBEE94F8
:102BB300004003D38001C3500EC3EF9459EE940237
:102BC30050028001C3400A900028E475F0DC12092A
:102BD300BC1254301253C59000201253BE1254300D
:102BE3001253C59000231253BE12544B1253C59077
:102BF30000281253BE12544B1253C590002912538E
:102C0300BE90002A12544394DBEE94004003D38019
:102C130001C3500EC3EF9459EE940250028001C3D6
:102C2300400A90002AE475F0DC1209BC90002A12D5
:102C330054331253C59000271253BE90002A1254E6
:102C43004E1253C590002AEF1207EC22901128EB85
:102C530012240AE490112EF0A3F09011281224CA32
:102C63004A4B6020901128A3A3E0F9122617E94AE2
:102C73004B60119011281223F9122617120C63E9E5
:102C83004A4B70037F072290112B1224CA4A4B70C0
:102C9300037F07229011281223F91226171270E2DC
:102CA300EF4E70037F07229011281223F912250794
:102CB3007412F0A374CEF01224E0126485901130E4
:102CC300EFF0E06402700E9012CEE0645A7006A337
:102CD300E064A5606C1224B87475F0741F1224A309
:102CE30012667A1224B87475F0A37445F0A37420A5
:102CF3001224A412667AE4901130F0901130E0FFB0
:102D0300C394207480948050261224B87475F0A361
:102D13007457F074CE2FF582E43412F583E09011EA
:102D2300641224A412667A901130E004F080CC126D
:102D330024B87475F0A3745C1224A412667A7F001D
:102D4300229011281223F91225077411F0743012FE
:102D5300258404122E3CE0FE70037F052290112887
:102D63001223F91225077412F0A374CEF0EEFFA319
:102D7300E4F0A3EF122E3CEFF0E070037F05229006
:102D830012CEE0648270037F07229012CFE0FEA38D
:102D9300E0FDEDFF90112B1223F9EE8FF012099D48
:102DA3007B017A1279D1C003C002C00190112812AD
:102DB30023F990000A120D027B017A1279CE901149
:102DC30030E024FEFDE412254512611690112EEE2B
:102DD300F0A3EFF090112EE0FCA3E0FAECFFEAFE83
:102DE30090112EEEF0A3EFF0A3E0FD24CCF582E4E6
:102DF3003412F583E0FE74CD2DF582E43412F583AD
:102E0300E0FDEDFBAA06E4F9F890112E12258B6084
:102E1300251224B87475F0A374611224A412667A7F
:102E23001224B87475F0A37480F090112E122499B3
:102E330012667A7F01227F0822F012648590113096
:102E4300227B017A14791990150BEBF0A3EAF0A316
:102E5300E9F07B017A10797090150EEBF0A3EAF09C
:102E6300A3E9F0901511E4F090150EE0FBA3E0FA4E
:102E7300A3E0F975822175830074021207EC9015A3
:102E83000EE0FBA3E0FAA3E0F975822575830074D5
:102E9300011207EC90150EE0FBA3E0FAA3E0F9C0E2
:102EA30003C002C00190150BE0FBA3E0FAA3E0F915
:102EB30090117AEBF0A3EAF0A3E9F090117D74246A
:102EC300F0D001D002D0037D007C001244E8EF7003
:102ED3000302301090150EE0FBA3E0FAA3E0F975AE
:102EE300822175830074031207EC90150EE0FBA397
:102EF300E0FAA3E0F975822575830074011207ECEB
:102F030090150EE0FBA3E0FAA3E0F9C003C002C0F2
:102F13000190150BE0FBA3E0FAA3E0F9E92424F9FF
:102F2300EA3400FA90117AEBF0A3EAF0A3E9F09007
:102F3300117D7413F0D001D002D0037D007C001208
:102F430044E8EF700302301090150EE0FBA3E0FAA3
:102F5300A3E0F9758221758300E41207EC90150E46
:102F6300E0FBA3E0FAA3E0F9758225758300740101
:102F73001207EC90150BE0FBA3E0FAA3E0F97582CE
:102F830030758300120743FFEF5404FF7E00EF4EBA
:102F930060047FFF80027F00901511EFF090150E03
:102FA300E0FBA3E0FAA3E0F9C003C002C0017B0188
:102FB3007A15791190117AEBF0A3EAF0A3E9F09076
:102FC300117D7401F0D001D002D0037D007C00128A
:102FD30044E8EF60387B017A137978C003C002C0FC
:102FE3000190150BE0FBA3E0FAA3E0F990113CEB91
:102FF300F0A3EAF0A3E9F090113FE4F0A37424F006
:10300300D001D002D0037D007C1012625D229011AA
:103013003C12353912360E2404FEE435F09011408B
:10302300F0A3CEF01235ED30E1030230CC90113C29
:103033001235271235F340030230CC90113C123580
:10304300BDC003C002C00190113C12352712357F69
:10305300E92401F9E43AFAC003C002C00190113C2B
:1030630012352790003B123588D001D002D00329B6
:10307300F9EA3EFA123536C3901141E09FFF9011F1
:1030830040E09E90114AF0A3EFF0D001D002D003AC
:1030930012648590113C1235271236261235DDFF56
:1030A300901140E0B5F019A3E0B5071490113C125C
:1030B30035481208A154FE12362FEF44021236315E
:1030C30090113C1235271235B090113C123527125E
:1030D30035ED20E10F123585BE0406BFB0037F082E
:1030E300227F012290113C12352712357F90000276
:1030F300120743FF1236A12FFFE433FEEFF44E60B5
:1031030002807890113C12352712357F123690C019
:1031130003C002C00190113C12352712360EFDACDC
:10312300F0D001D002D003126C00901142EEF0A354
:10313300EFF090113C12352712357FC003C002C057
:103143000190113C1235271235DDFD24FF12367F25
:10315300D001D002D0031207437F00FE90113C122E
:10316300352712357F8D828C83120743FDEDFF9047
:103173001142E06E7003A3E06F600890113F740783
:10318300F0805090113C12352712357F1236909003
:10319300114712353990113C12352712360EFF9024
:1031A300114AE5F0F0A3EFF012707B90113FEFF0BE
:1031B3001235E4701EFE7F08FD90113C1235481253
:1031C3000DB47F0C12676090113C123527900028D4
:1031D3001235B390113FE0FF2290112F1235399031
:1031E30011337401F0A3740EF0A374C3F07B017A5E
:1031F3000A79BEC003C002C0019011331235279073
:10320300003F120D0290112F123527C003C002C0D8
:1032130001901133123527900042120D02901133A1
:1032230012352712357FE94A4B600E901133123560
:10323300271235C0E94A4B70037FF62290113312EF
:10324300352712072A14603814600F1460171460AE
:103253001F24047042125AD9801F9011331235274C
:10326300121A5D80149011331235271248ED80092C
:103273009011331235271239C2901132EFF08020AA
:103283009011331235271236A11207DA9011331237
:1032930035C612363F800990113312352712361482
:1032A300901132E014606E1460281460301460389A
:1032B30024FE603F240670461235777474F0A374BD
:1032C3000412356F12667A90113312352712660590
:1032D30080431235777474F0A3742D8032123577DE
:1032E3007474F0A3743E80271235777474F0A3745A
:1032F30050801C1235777474F0A3746E80111235EC
:10330300777474F0A37487F0901132E09011641213
:10331300356F12667A901132E0FF1235E4603F9008
:10332300112F1235279000071208CCFF900005E5F6
:10333300F08FF01209BC901133123542120DB49084
:103343001133123527E41207DA901133123527129D
:1033530036381236A7EF4E60057F0E1267601236BD
:10336300A7C364809480400CEF9402EE6480948041
:1033730050028007901132E0F404FF22EFD394054A
:103383007480948040037F012212072AFED39403A2
:103393007480948040037F0222EF7038EE7008122D
:1033A3007366F45293529412072A640170081273DD
:1033B300664293F4529412072AFE64027007127352
:1033C3006642934294EE6403700A127366FEF452EB
:1033D30093EE4294EF6401703A12072AFE700812CA
:1033E3007366F452915292EE64017008127366424E
:1033F30091F4529212072A64027007127366429183
:10340300429212072A6403700A127366FEF4529101
:10341300EE4292EF6402703A12072AFE70081273AA
:1034230066F452955296EE640170081273664295E3
:10343300F4529612072A6402700712736642954289
:103443009612072A6403700A127366FEF45295EE0D
:103453004296EF6403703A12072AFE7008127366ED
:10346300F452B152B2EE6401700812736642B1F4C1
:1034730052B212072A6402700712736642B142B253
:1034830012072A6403700A127366FEF452B1EE4205
:10349300B2EF6404703A12072AFE7008127366F4DE
:1034A30052B352B4EE6401700812736642B3F4521D
:1034B300B412072A6402700712736642B342B4124D
:1034C300072A6403700A127366FEF452B3EE42B421
:1034D300EF6405703D12072AFF7E007008127366C1
:1034E300F452C952CAEF64014E700812736642C99E
:1034F300F452CA12072A6402700712736642C94261
:10350300CA12072A6403700A127366FFF452C9EFE2
:1035130042CA7F0022F9E43AFAEBF0A3EAF0E9A306
:10352300F0901136E0FBA3E0FAA3E0F92290003F0C
:10353300120CD2901147EBF0A3EAF0A3E9F0227E3C
:10354300007F087D00E0FBA3E0FAA3E02437F9E461
:103553003AFA229012927401F0A37411F0A3744406
:10356300F0A37401F0A37413F07488A3F07B017AC1
:103573000879952290116174FFF0A32290003F0215
:103583000CD29000391208CCFFAEF022901147E024
:103593002FFF901146E03EFEE4FCFD901142E0F85F
:1035A300A3E0F9A3E0FAA3E0FBD3020AC590003934
:1035B300E475F001020950901136A3A3E090004294
:1035C300020CD27E007F067D00E0FBA3E0FAA3E0BD
:1035D3002290003BEE8FF01209BC90003B0208CC16
:1035E300EF3395E0FEEF64014E229000370208CCE2
:1035F3009000391208CCC394B0E5F0940422120869
:10360300A14401FFE5F08FF002099D90002E02080E
:10361300CC900039E4F5F00209BC901148E0FEA318
:10362300E0FF2290003BEE8FF0020950AEF0FFEE78
:103633008FF002099DE49000010207EC2439F9E4BC
:103643003AFA020DB4E0FCA3E0FDA3E0FEA3E0FF21
:10365300EC4D4E4F22901147E02FFF901146E03E74
:10366300FE90113F22E49014E9F09014EB229000B5
:10367300391208CCC39458E5F0940222ACF0F582D9
:1036830074FF3CF58322A3E4F0A304F022E92403AE
:10369300F9E43AFA227D017F007E007C002290004B
:1036A30001020743901132E0FF3395E0FE229011AF
:1036B30022EB123E41901122123E26123F729011CC
:1036C30025EB123E41A37401F0A37413F0A37478A5
:1036D300F0E4A3123EE5901132F0901122123E263F
:1036E300123E57123E8A123E7890112BEEF0A3EF52
:1036F300F0123E6E90112DEEF0A3EFF09011251213
:103703003E26EA494B700302384090112FEB123EDC
:1037130041901122123E26123E57123EC524FA60F2
:103723004104600302382390112BE07002A3E06090
:103733000302382390112DE07002A3E0901125605D
:103743000F123E82123EBC44041207DA54FD800D70
:10375300123E82123EBC44021207DA54FB1207DA0D
:103763008070901128123E26900010120CD29011F6
:103773002BE0FEA3E0FF7C007D0B12080E123EDC63
:103783009000061208CCC3123F30404E9000041242
:1037930008CCD3123F305042901128123E2690009D
:1037A300131208CCFF90112BE0FCA3E0FDC39FECA8
:1037B30095F05026A3E0FEA3E0FF8FF0C006ED25B1
:1037C300E0FFEC33FEA3123E268F828E83D0E012FD
:1037D30009BC9011327401F08046901122123E26EA
:1037E30090002174031207EC7401123F07C003C059
:1037F30002C00190112BE0FCA3E0FD25E0FFEC33B8
:10380300FE90112F123E822FF9EA3EFAEB123E3E52
:10381300A37402F0D001D002D0031244E8EF601D7C
:10382300901132E06017901125123E82123EBC4483
:10383300081207DA901128123E26126B48221260F2
:10384300B59011561260681260EFA31260BBE4FDDD
:10385300FC780F120AD690115B1260BBEE547FFE08
:10386300EF24FFFFEE340F780C1260F590115C1219
:1038730060BBEE540FFEEF24FFFFE43E78081260B6
:10388300F590115DEFF0E4FFFE7D80FC9011521284
:10389300607CD3120AC54003023998901156126016
:1038A30068FF901152E0F8A3A3A3E02FFFEA3EFEC6
:1038B300E93DFDE83CFCE4FBFA7980F8C3120AC554
:1038C300500302399890116174FFF0A37478F0A348
:1038D300741FF090115AE0901164F090115BE09026
:1038E3001165F090115CE0901166F090115DE0902D
:1038F3001167F00B7A08798112667A90115AE0FF0A
:1039030014F0EF601E126065FF90116274D8F0121C
:103913006C5A1260652400FFE43EFEED3401126030
:10392300B180D812399990115BE0FF14F0EF601B5E
:10393300126065FF9011627452F0126C5A12606546
:103943002400FFEE34801260AE80DB1239999011AF
:103953005CE0FF14F0EF6015126065FF126CB212A9
:1039630060652400FFEE34101260AE80E1901161B7
:1039730074FFF0A37478F0A37445F0901152A3A3DD
:10398300E0FFA3E0901164CFF0A3EFF07B017A088E
:10399300798112667A2290116174FFF0A37478F032
:1039A300A37445F0901152A3A3E0FFA3E090116428
:1039B300CFF0A3EFF07B017A08798112667A229027
:1039C30011361235399011361235271235ED20E0B4
:1039D300541235F3504F1235BAC003C002C00190E0
:1039E3001136123527123530123689D001D002D064
:1039F300031264859011361235271235D4640145BC
:103A0300F0701990113612352712357F12072A6488
:103A1300047009901136123548123601901136128E
:103A230035271235B09011361235271235EDFDAC1E
:103A3300F020E00F123585BE0406BFB0037F0822D5
:103A43007F0122ED20E1277F0C1267607F0B126755
:103A5300609011361235481208A144021236067ED0
:103A6300007F067D009011361235CC12363F90113F
:103A7300361235271235ED20E2771235F3507212E4
:103A830035BAC003C002C001901136123527123572
:103A93007FC003C002C00190113612352790003B4E
:103AA300123588D001D002D00329F9EA3EFA123543
:103AB30036C374859F90114BF0E49E90114AF0D069
:103AC30001D002D0031264859011361235271236C5
:103AD300261235DD648545F0700E90113612354897
:103AE3001208A144041236069011361235271235F6
:103AF300B09011361235271235ED20E20F123585BD
:103B0300BE0406BFB0037F08227F01227F0C126729
:103B130060901136123542120DB4901136123527CA
:103B2300123638E41207DA901136123527126F0B6A
:103B33001235E37F0060027F0A22901122EB123ECE
:103B430041E4A3F0A3F0A3120C1200000000123E04
:103B53007F4A4B7003023CAF901122A3A3E0F912FA
:103B63003E57E94A4B7003023CAF123E23123EC557
:103B73007012126FC95013123E2390000174011288
:103B830007EC8006123E23026F8A123E23123EF98F
:103B9300FF7003023CAF7E00D39402EE9400401EFC
:103BA300123E57EF24FEFDEE34FFFC74FF901151DB
:103BB300F0A3F0126116901125EEF0A3EFF090112F
:103BC30025E0FCA3E0901125123F0D123E23123E87
:103BD3005712072AFF123E2312072A6F6003023C83
:103BE30094123EF9FD7C0024FEFFEC34FFFE123EEE
:103BF300578F828E83120743FE74FF2DF582EC34B8
:103C0300FFF583120743FDEDFBAA06E4F9F89011D3
:103C130025E0FEA3E0FFE4FDC3120AC57073123E64
:103C230023123E57123EC5120D5B3C4C013C4C0225
:103C33003C62033C62043C54053C6A063C540F3C22
:103C43006A103C7E1100003C94123E2390000880D1
:103C530022123E7F90000A123E149000108014122C
:103C63003E2390000C800C123E7F90000E123E14F7
:103C7300900010123EB0120D858016123E23123FA3
:103C830072EA494B600B123E23123F727401120712
:103C9300DA123E23123EF9FF7E007D00123E5712D8
:103CA3000DB4123E2390001AE41207EC2290112265
:103CB300EB123E41901122123E26123E57123E6EE7
:103CC3007C007D02120D87901125EFF07B017A11A4
:103CD300792690116EEB123E414A4B7F0070027FB2
:103CE30001C3EF9448748094804003023E13901103
:103CF30025E0FF7E007D0090116E123E26120DB46A
:103D0300901122123E26123E5D120DB49011221222
:103D13003E26900016E4123E54C003C002C0019038
:103D23001122123E26123E68123F18D001D002D053
:103D3300037E007F02120704901122123E26123ED8
:103D4300A3901125E0FF123E68C003C002C001909A
:103D53001122123E26123E9DD001D002D003123F03
:103D63001F901122123E26123F28123E57123EC5C3
:103D730064037F0270027F03901122123E26123EDB
:103D8300FFC003C002C001901122123E26123E570B
:103D9300123E8A123E78AD07AC0690116E123E3683
:103DA300901125E090117DF0D001D002D003124490
:103DB300E8901125E0FF7E00901122123E26123E6C
:103DC30068C003C002C001901122123E26123E9D1C
:103DD3007C00D001D002D003123F4A90116E123EF4
:103DE30026120704901125E0FF901122123E26901F
:103DF3000016EF1207A7C003C002C00190112212E0
:103E03003E26123EEDD001D002D003E4FD120D8513
:103E130022F91208CCFFAEF0F58285F083120D85EE
:103E2300901122E0FBA3E0FAA3E0F922FDEDFFAD40
:103E330007AC06E0F9A3E0FAA3E0C990117AF0A376
:103E4300EAF0A3E9F0229000211207EC9000257418
:103E5300011207EC900017020CD2900015120743D1
:103E6300FF7E007D00900012020CD2900004120726
:103E730043FE900005120743FDEDFF22901122E05F
:103E8300FBA3E0FAA3E022900002120743FE900096
:103E93000322900022120CD2E9229000160207435B
:103EA30074029000160207A7E0FD9000041208CCEC
:103EB300FFAEF0F58285F08322240CF9E43AFA028E
:103EC300072A900001020743900021020743F9E407
:103ED3003AFAED25E0FFEC33FEE92FF9EA3EFA2248
:103EE300A3E4F0A3F0A3F0A3F0229000041208CC03
:103EF300F58285F0832290001A020743900021EF98
:103F03001207ECE49000250207ECFAECFFEAFEEE60
:103F1300F0A3EFF022A801AC02AD0322F582758372
:103F230000EF0207EC74019000160207A7FF90113F
:103F33002EE09F90112DE095F0222424F9E43AFA23
:103F4300E92DF9EA3CFA2229F9EC3AA801FCAD0380
:103F53002274069000160207EC90117AE0F9A3E0B0
:103F6300FAA3E0227E007F07120704901122229019
:103F7300001E020CD2901125EDF0901122EB1224B9
:103F83000A1224DA901126EB12240A4A4B70030218
:103F930040D39011221223F9EA494B70030240D314
:103FA300E4901129F0A3F090112212242C1224ACD6
:103FB300500E9011221223F912242F122442807ED4
:103FC3009011221223F912242F122483C333CE33E8
:103FD300CED8F9122475C004C005C006C0079011DD
:103FE300221223F912242F12248EC333CE33CED8B8
:103FF300F9122475D003D002D001D000122435C0A9
:1040030004C005C006C0079011221223F912242F01
:10401300122456D003D002D001D000EB122437C0B3
:1040230004C005C006C0079011221223F912242FE1
:104033001224D2D003D002D001D0001224C0901198
:1040430029EEF0A3EFF09011221223F912247D90B0
:10405300112512241BFFC31225A3402E1224F0D3D3
:104063001225A350259011221223F91224E890114E
:10407300251225235034901129E0FEA3E0FF90116F
:10408300261223F9900002EE801B9011221223F9CD
:1040930012247D90112512241BFF9011261223F95F
:1040A300900002E5F08FF01209BC9011221223F95F
:1040B30012247D9011251224639011261224CA2400
:1040C300021224021224E09011221223F912625DDB
:1040D30022901125EDF0901122EB12240A1224DA1A
:1040E300901126EB12240A4A4B700302422F9011BF
:1040F300221223F9EA494B700302422FE49011295B
:10410300F0A3F090112212242C1224AC500E901123
:10411300221223F912242F122442807E901122129C
:1041230023F912242F122483C333CE33CED8F912AA
:104133002475C004C005C006C0079011221223F9DC
:1041430012242F12248EC333CE33CED8F912247502
:10415300D003D002D001D000122435C004C005C062
:1041630006C0079011221223F912242F122456D0CD
:1041730003D002D001D000EB122437C004C005C025
:1041830006C0079011221223F912242F1224D2D031
:1041930003D002D001D0001224C0901129EEF0A365
:1041A300EFF09011221223F912247D90112512248D
:1041B3001BFFC31225AF402E1224F0D31225AF509C
:1041C300259011221223F91224E890112512252398
:1041D3005034901129E0FEA3E0FF9011261223F939
:1041E300900004EE801B9011221223F912247D907B
:1041F300112512241BFF9011261223F9900004E5C8
:10420300F08FF01209BC9011221223F912247D9031
:1042130011251224639011261224CA2404122402A5
:104223001224E09011221223F912625D22901125CB
:10423300EDF0901122EB12240A1224DA901126EBEE
:1042430012240A4A4B700302438B9011221223F962
:10425300EA494B700302438BE4901129F0A3F090D9
:10426300112212242C1224AC500E9011221223F985
:1042730012242F122442807E9011221223F9122439
:104283002F122483C333CE33CED8F9122475C0043E
:10429300C005C006C0079011221223F912242F1261
:1042A300248EC333CE33CED8F9122475D003D00273
:1042B300D001D000122435C004C005C006C0079049
:1042C30011221223F912242F122456D003D002D024
:1042D30001D000EB122437C004C005C006C007900C
:1042E30011221223F912242F1224D2D003D002D088
:1042F30001D0001224C0901129EEF0A3EFF0901129
:10430300221223F912247D90112512241BFFC312BC
:1043130025BB402E1224F0D31225BB502590112229
:104323001223F91224E890112512252350349011F9
:1043330029E0FEA3E0FF9011261223F9900006EE78
:10434300801B9011221223F912247D90112512242F
:104353001BFF9011261223F9900006E5F08FF0124F
:1043630009BC9011221223F912247D9011251224E5
:10437300639011261224CA24061224021224E09008
:1043830011221223F912625D22901125EDF0901192
:1043930022EB12240A1224DA901126EB12240A4A81
:1043A3004B70030244E79011221223F9EA494B7040
:1043B300030244E7E4901129F0A3F09011221224A0
:1043C3002C1224AC500E9011221223F912242F1216
:1043D3002442807E9011221223F912242F12248367
:1043E300C333CE33CED8F9122475C004C005C0063A
:1043F300C0079011221223F912242F12248EC333E3
:10440300CE33CED8F9122475D003D002D001D00018
:10441300122435C004C005C006C007901122122320
:10442300F912242F122456D003D002D001D000EB6E
:10443300122437C004C005C006C0079011221223FE
:10444300F912242F1224D2D003D002D001D00012AB
:1044530024C0901129EEF0A3EFF09011221223F95A
:1044630012247D90112512241BFFC31225C7402E51
:104473001224F0D31225C750259011221223F912CA
:1044830024E89011251225235034901129E0FEA32E
:10449300E0FF9011261223F990000AEE801B901181
:1044A300221223F912247D90112512241BFF90114F
:1044B300261223F990000AE5F08FF01209BC90113F
:1044C300221223F912247D901125122463901126C0
:1044D3001224CA240A1224021224E0901122122365
:1044E300F912625D22901175EB123E41123ECBC36D
:1044F3009402748094807F4850027F2490117EEF51
:10450300F0E4901185F0901175123E824A4B600FD2
:1045130090117A123E824A4B6005A3E0FE700302BB
:10452300463D90117EE0FFFBC3ED9BEC94004003FE
:1045330002463DEEC39F400302463D901175123E75
:1045430026900025120743705C123F5C90117FC9CF
:10455300123E41901175123E28123ECB700A123E54
:10456300952DF9EA3CFA8037901175123E26123EDA
:10457300CB64017008123E95123F3D802290117565
:10458300123E26123ECB64027007123E95244880E9
:104593000B901175123E26123E9524D8123ED190EF
:1045A3001182EB805A901175123E26123ECB700A8F
:1045B300123E952DF9EA3CFA8037901175123E268A
:1045C300123ECB64017008123E95123F3D8022904B
:1045D3001175123E26123ECB64027007123E9524DB
:1045E30048800B901175123E26123E9524D8123E38
:1045F300D190117FEB123E41123F5C901182C912A0
:104603003E4190117F123E26EA494B602DA3123E94
:1046130026EA494B602490117DE0FF7E0090117FD4
:10462300123E82F8AC02AD03A3123E82120F5AEA85
:10463300494B60069011857401F0901185E0FF22CB
:104643007BFF7A787918C003C002C0017B017A1519
:104653007912A801AC02AD03D001D002D0037E00D1
:104663007F0212070475BA8090FE0374C0F090FEB7
:1046730003E0FFEF30E0F790FE017401F090FE00DD
:104683007401F075BA009015127403F09015137449
:1046930090F07B017A1579127F0312337F90151204
:1046A3007401F09015137460F07B017A1579127F11
:1046B3000312337F7BFF7A78791AC003C002C001EB
:1046C3007B017A157914A801AC02AD03D001D002A5
:1046D300D0037E007F051207049015127403F09037
:1046E3001513742CF07B017A1579127F0212337F34
:1046F3009015127401F09015137410F07B017A1564
:1047030079127F0212337F7F0112731B7B017A15AB
:1047130079141267D09015127403F0901513744036
:10472300F07B017A1579127F0012337F9015137491
:1047330008F07B017A1579127F0112337F901512ED
:104743007403F09015137480F07B017A1579127F4E
:104753000012337F9015127401F09015137404F056
:104763007B017A1579127F0112337F90151274033E
:10477300F09015137420F07B017A1579127F0512DE
:10478300337F9015127403F09015137480F07B013E
:104793007A1579127F0012337F22901122EB123E99
:1047A30041123EE3A3F0901122123E26E4123E4949
:1047B300123EC564057045123E6EE4FCFDFB7AFFB4
:1047C300F9F8C3120AC5C37001D37F0050027F01F9
:1047D30090112BEFF09011287401F0901125F0A3A4
:1047E3007411F0A3742BF0901122123E26123EF99D
:1047F300123F5690112A7401F0024883901122123D
:104803003E26123E57123E6E901128EFF090112271
:10481300123E26123E68901125EB123E419011285C
:10482300E0FFA3E0FEC39F5049901122123E2612DF
:104833003E57EEFD7C007E007803CEC313CE13D823
:10484300F92407F582E43EF583120743FFED54078D
:10485300FEF8EF088002C313D8FC5401FF90112522
:10486300123E26901129E0123F1F901129E004F017
:1048730080AB901122123E26123F54E490112AF08D
:10488300901125123E26EA494B6026901122123ED2
:1048930026123E57123E8A120743901125123E2FCD
:1048A300901128E090117DF0901122123E261244BF
:1048B300E8901122123E26123E9DFF7E00123E57C3
:1048C300C003C002C001901122123E26123E68129C
:1048D3003F18D001D002D003120704901122123ED8
:1048E3002690112A123EAB020D85901136123539EE
:1048F3001235C090113912353990113612352712FD
:1049030035ED30E003024A0F1235F34003024A0F3C
:104913009011361235BDC003C002C001901136128A
:104923003527123530123689D001D002D0031264F4
:10493300859011361235271235D4640145F0600392
:10494300024A0690113612352712357F12072A24A0
:10495300FE601724FE60382403705590113612351B
:104963002790002EE475F080800E901136123527C3
:1049730090002E740475F0001209BCE912354F1231
:1049830008A1440112362FEF54FD12363180659091
:10499300113612352774011207DA901136123527B2
:1049A30090000174041207EC7F0D1267607F0122EF
:1049B3007E007F087D00901136123548120DB490A9
:1049C3001139123527900005123588900007120817
:1049D300CCFDACF0C39FFFEC9E4F6009900005EC4B
:1049E3008DF01209BC7F0D1267601235E37F016001
:1049F300487F072290113612352712361490003B58
:104A03001236179011361235271235B0901136121F
:104A130035271235ED20E00F123585BE0406BFB0F1
:104A2300037F08227F0122123011EFFD3395E0FC52
:104A3300ED64014C60030249B32290113F123539F2
:104A4300A3120C0690113F1235CC4A4B7003024B54
:104A530074A31236487003024B74E4A3F0A3F090DE
:104A63001146E0FEA3E0FF12359B5003024B59129F
:104A730035777474F0A3749EF0901146E0FFA3E0C1
:104A8300901164CFF0EF124B75E4901148F0A3F04E
:104A930012361DC39410EE9400504312358F9011BB
:104AA3006174FF401EF0A37474F0A374A9F012366E
:104AB3001D1236581235278F828E831207439011A9
:104AC300648008F0A37474F0A374B0124B81901146
:104AD30049E004F07006901148E004F080B212350A
:104AE300777474F074B4124B75E4901148F0A3F02A
:104AF30012361D12358F404D12361D9410EE940060
:104B030050431235777474F0A374B7F01236581209
:104B130035278F828E83120743FF24E0FDE434FFA1
:104B2300FCC3ED945FEC9400500280027F2E901141
:104B330064EF124B81901149E004F0700690114824
:104B4300E004F080AB901147E02410F0901146E0B0
:104B53003400F0024A629011421236486013123553
:104B6300777474F0A374BAF07B017A0879811266C2
:104B73007A22A3F07B017A08798112667A22F07B8C
:104B8300017A08798112667A22901125EDF090114D
:104B930022EB12240A1224DA901126EB12240A4A79
:104BA3004B7003024CD89011221223F9EA494B703F
:104BB30003024CD8E4901129F0A3F090112212249F
:104BC3002C1224AC500E9011221223F912242F120E
:104BD3002442807E9011221223F912242F1224835F
:104BE300C333CE33CED8F9122475C004C005C00632
:104BF300C0079011221223F912242F12248EC333DB
:104C0300CE33CED8F9122475D003D002D001D00010
:104C1300122435C004C005C006C007901122122318
:104C2300F912242F122456D003D002D001D000EB66
:104C3300122437C004C005C006C0079011221223F6
:104C4300F912242F1224D2D003D002D001D00012A3
:104C530024C0901129EEF0A3EFF09011221223F952
:104C6300122412FFC3122597402B1224F0D31225CE
:104C73009750229011221223F91224E89011251241
:104C830025235028901129E0F9A3E0FF9011261263
:104C930024CAC980129011221223F9122412FF9000
:104CA30011261223F9E5F08FF012099D90112212BB
:104CB30023F912247D901125122463901126E0F923
:104CC300A3E0FAA3E0C91224071224E090112212F0
:104CD30023F912625D22901125EDF0901122EB125F
:104CE300240A1224DA901126EB12240A4A4B700389
:104CF300024E249011221223F9EA494B7003024E0B
:104D030024E4901129F090112212242C1224AC5087
:104D13000E9011221223F912242F122442807E9026
:104D230011221223F912242F122483C333CE33CE3C
:104D3300D8F9122475C004C005C006C0079011221B
:104D43001223F912242F12248EC333CE33CED8F973
:104D5300122475D003D002D001D000122435C00430
:104D6300C005C006C0079011221223F912242F1286
:104D73002456D003D002D001D000EB122437C00454
:104D8300C005C006C0079011221223F912242F1266
:104D930024D2D003D002D001D0001224C090112914
:104DA300EFF09011221223F912247D901125122481
:104DB3001BFF901129E0C39F40221224F090112978
:104DC300E0D39F50179011221223F91224E8901177
:104DD300251225235025901129E0800F90112212CE
:104DE30023F912247D90112512241BFF9011261202
:104DF30023F9900008E48FF01209BC9011221223CA
:104E0300F912247D9011251224639011261224CACD
:104E130024081224021224E09011221223F91262B0
:104E23005D229011221255C378257C117D017BFFF1
:104E33007A7679567E007F0212070412559512077F
:104E43002A24FE605C147003024EE0147003024FC8
:104E53000E24036003024F411255F9F59812567759
:104E630042891255D3AEF0F58BEEF58D9000051205
:104E7300074313928E900007120743428E90000956
:104E830012074352B890000A12074352B712564B07
:104E930024FF92AC1256297F03124F427F03024F25
:104EA3003E1255951255F9F59A1255D3AEF0F5D732
:104EB300EEF5D6900007120743428E12564B54016B
:104EC300F5AF90000912074352B590000A12074349
:104ED30052B6125629FF124F427F01805E1255953A
:104EE3001255F9F5AC125677F5D11255D3AEF0F54C
:104EF300D5EEF5D412564B540842AF12562912552B
:104F0300F2124F59A3141255EF80301255951255D2
:104F1300F9F58412567742D11255D3AEF0F5D3EE9C
:104F2300F5D212564B541042AFE4901125F074049D
:104F33001255EE124F5974081255EE12337F227A2E
:104F430011792512337F9011257403F0A314F07B9C
:104F5300017A1179252212337F9011257403F022EF
:104F63003E9248DA3ECCCCCD3F2AAAAB40000000AB
:104F73003F8000003F9837F03FB504F33FD744FC30
:104F83003E3172173EB172173F0515913EDE5BD974
:104F9300D2008002C200EDD2E7F8CD33EC330470C7
:104FA3000BBD800592D502042A02042040FBD314D2
:104FB30060F2F5F07C3FEE7A00C39496C8948B4080
:104FC300230AC89469C8941A401A0AC89468C894F2
:104FD3001F40110AC8945AC89425400805F07A0066
:104FE300CDC2E7CDC0F0901128120C06EA2323C0EE
:104FF300E02473F582E4344FF583120BA612009D6F
:10500300ECC0E0EDC0E0EEC0E0EFC0E0120B8A9030
:105013001128120B9A120099D0E0FBD0E0FAD0E0ED
:10502300F9D0E0B2E7F8120297901128120C06901B
:105033004F637403120435901128120B9A12018ED8
:10504300D0E0600F247FF582E4344FF583120BA682
:1050530012009D901128120C06D0E0C3947FFDE44A
:105063009400FC1203B27B187A727931783F1201F3
:105073008E901128120B9A12009D30000B7BD97A67
:105083005B79DE783E12018E22901122EB12240A04
:105093001224DA901125EB12240A9011221223F91B
:1050A300EA494B70030251AFA31223F9EA494B704B
:1050B300030251AF9011221223F912242F1224ACB0
:1050C300501C9011221223F912242F900001120771
:1050D30043FE900002120743FDEDFF025161901160
:1050E300221223F912242F122483C333CE33CED8B2
:1050F300F9122475C004C005C006C007901122121E
:1051030023F912242F12248EC333CE33CED8F912AF
:105113002475D003D002D001D000122435C004C0BE
:1051230005C006C0079011221223F912242F12245E
:1051330056D003D002D001D000EB122437C004C0F4
:1051430005C006C0079011221223F912242F12243E
:10515300D2D003D002D001D000EB4FFFEAFE901172
:1051630028EFF0E4A3F0EF64F190112570181224F6
:10517300CA12255744021207DA54FB1207DA9011B8
:10518300297406F080161224CA1225574404120704
:10519300DA54FD1207DA9011297407F090112212E4
:1051A30023F9901129E0FD7C00126D052290112254
:1051B300EB12240A1224DA901125EB12240A90111F
:1051C300221223F9EA494B70030252CAA31223F9AC
:1051D300EA494B70030252CA9011221223F9122496
:1051E3002F1224AC500E9011221223F912242F12E5
:1051F3002442807E9011221223F912242F12248339
:10520300C333CE33CED8F9122475C004C005C0060B
:10521300C0079011221223F912242F12248EC333B4
:10522300CE33CED8F9122475D003D002D001D000EA
:10523300122435C004C005C006C0079011221223F2
:10524300F912242F122456D003D002D001D000EB40
:10525300122437C004C005C006C0079011221223D0
:10526300F912242F1224D2D003D002D001D000127D
:1052730024C0901128EFF064F1704C901125122492
:10528300CA12255744081207DA901129120C12008A
:105293000000001225337411F0A37429F0A3E4F085
:1052A300A37404F09011221223F97D207C10126262
:1052B3005D9011221223F9126B489011221223F9E7
:1052C3007D027C00126D0522901534EBF0A3EAF009
:1052D300A3E9F0901534E0FBA3E0FAA3E0F9120789
:1052E3002AFFEF120D5B52F000000053BC901534FF
:1052F300E0FBA3E0FAA3E0F97582017583001207CE
:1053030043FFEF528E901534E0FBA3E0FAA3E0F9DC
:10531300758202758300120743FFEF52899015349B
:10532300E0FBA3E0FAA3E0F975820375830012089A
:10533300CCFFAEF08F8A901534E0FBA3E0FAA3E034
:10534300F97582037583001208CCFFAEF0EEFF7E81
:10535300008F8C901534E0FBA3E0FAA3E0F975828B
:1053630006758300120743FFEF42B8901534E0FB44
:10537300A3E0FAA3E0F9758205758300120743FFE2
:10538300EF42B7901534E0FBA3E0FAA3E0F975828E
:1053930007758300120743FFEF24FF92A99015348A
:1053A300E0FBA3E0FAA3E0F9758208758300120716
:1053B30043FFEF24FF928CC28D22F9EF1207EC908A
:1053C3001122E0FBA3E0FAA3E0F922901122E0FB13
:1053D300A3E0FAA3E02420F9E43AFA0208A1FFEEDD
:1053E3008FF012099DEF54FDFFEE8FF012099DEF30
:1053F30054DFFFEE8FF002099D90000D120CD29046
:105403000124120743FE900125120743FDED2212EA
:105413000743FCE41203B77BCD7ACC79CC22120884
:10542300CCFF901125E0FBA3E0FAA3E02290002833
:105433001208CCE5F0FF9011252290000D020CD24A
:105443001208CCFFAEF0D3229000281208CCFF90B4
:10545300112522120743FCE41203B7E4FBFA22905E
:105463000018020B1CFFE5F08FF002099D90001459
:10547300120B1C120BB602018E900030020743E49C
:10548300FBFA784102033412009D90112222120B81
:105493006690112522120B66900004020B1C9000EB
:1054A300041207EC90000522901122EB123E4112E8
:1054B3003EE3901122123E267403123E49123EC56A
:1054C300640670319011287402F0901122123E2666
:1054D300123E57E92404F9E43AFA901125EB123EFF
:1054E30041901122123E26123EF9123F5690112985
:1054F3007401F0802F901122123E26123E57900025
:1055030006120743901128F0E92407F9E43AFA90C8
:105513001125EB123E41901122123E26123F54E414
:10552300901129F0901125123E26EA494B602A90EA
:105533001122123E26123E57123E8A123E78AD07C2
:10554300AC06901125123E36901128E090117DF0A3
:10555300901122123E261244E8901122123E261286
:105563003E9DFF7E00123E57C003C002C001901152
:1055730022123E26123E68123F18D001D002D003F9
:10558300120704901122123E26901129123EAB02FB
:105593000D85901122E0FBA3E0FAA3E0F92290002D
:1055A300031208CCFFAEF09000070208CC901292D1
:1055B300E0FBA3E475F00112088BA9F0FA02072AB5
:1055C300EBF0A3EAF0A3E9F022C39FFFE5F09EFE10
:1055D3009000030208CCA3F0E4A3F0A3EEF0A3EF42
:1055E300F0A3E04401F0A37401F022A3F07B017A5D
:1055F300117925E4FF22900001020743A3A3A3E44A
:1056030075F00112088B85F082F58322E0FBA3E09D
:10561300FAA3E04A4B22FDE5F05EFEED5FFF120CBC
:10562300638F828E8322E4901125F0A304F0FB2282
:10563300C39FFFE5F09E9000058FF00209BCECF0DC
:10564300EDA3F0A3740AF022900006020743E0F9E9
:10565300A3E0FAA3E022A3A3E0F9120C63E94A4B07
:1056630022900007E475F001020950FFE0FCA3E07B
:10567300FD020820900002020743901147EB122419
:105683000AE4A3F0A3F0EA494B70030257249011F4
:10569300471223F9900015120CD2EA494B7003020A
:1056A30057249011471223F9122551E92403F9E4F1
:1056B3003AFAC003C002C0019011471223F912261F
:1056C3000824FDFDE5F0122545D001D002D00312D8
:1056D300611690114AEEF0A3EFF09011471223F9EF
:1056E300122551C003C002C0019011471223F912C1
:1056F30025D3D001D002D00312260E90114AE0FF29
:105703009011471223F9122551C003C002C0019022
:1057130011471223F91225D3D001D002D003122648
:105723000E9011471223F9900015120CD2C003C03A
:1057330002C0019011471223F9122551901292EBE6
:1057430012240A9011471223F9122608901295F099
:10575300A37413F0A37488F0D001D002D0030268BD
:105763003D901122EB123E41A3ECF0A3EDF0782B18
:105773007C117D017BFF7A7879AA123F67123E265E
:1057830012072A90112BF0901125E0FCA3E0FDEC09
:1057930090112DF0A3EDF090112AE0FDFFE4C31367
:1057A300FAEF13FBEA90112FF0AF03A3EFF0A3ED91
:1057B300F0901122E0FBA3E0FA123E5D120DB490CB
:1057C3001122123E26E4123F56901122123E261257
:1057D3003E68123F187B017A11792B123F67123E04
:1057E300267407123EA590112AE0FF7E0090112235
:1057F300123E26123E68C003C002C001901122125D
:105803003E26123E9D7C00D001D002D003123F4AB7
:10581300901127123E2612070490112AE0FF9011DF
:1058230022123E26EF123F2AC003C002C00190118C
:1058330022123E26123EEDD001D002D003E4FD0237
:105843000D857B017A147919901450EBF0A3EAF0DB
:10585300A3E9F07BFF7A7779E6C003C002C0017B3E
:10586300017A147953A801AC02AD03D001D002D060
:10587300037E007F32120704901450E0FBA3E0FA8A
:10588300A3E0F9758230758300120743FFEF30E31D
:1058930027901450E0FBA3E0FAA3E0F9E92430F9E0
:1058A300EA3400FA12072AFFEF54F7FFEF1207DA80
:1058B3009014537415F080069014537416F09014DA
:1058C30050E0FBA3E0FAA3E0F9C003C002C0017BF0
:1058D300017A147953901125EBF0A3EAF0A3E9F0D0
:1058E300D001D002D003122A487B017A0879A9C0DB
:1058F30003C002C0017B017A147953901292EBF03A
:10590300A3EAF0A3E9F09012957432F09012967422
:1059130013F0A37488F0D001D002D00312683D22A3
:10592300C0E0C0F0C083C082C0D075D0087B017ACC
:105933001079709012C51255C390001B120CD290AF
:1059430012C81255C3E59A30E10A539AFD90089D97
:10595300E054FEF0E59A20E0030259F3539AFE90D7
:1059630012C51255981255F970389008A21255981D
:10597300EA494B607B9008A8E0FF54027072EF4441
:1059830001F09008A21255FFE59B1207EC9008A5C1
:10599300E0FEA3E09008A012566E9008A5125641AF
:1059A300804E9012C512560F6046A312560F6040E8
:1059B3009012C812565960389012C8125598125551
:1059C300A1125619E59B1207EC9012C81255989034
:1059D30000051255A41255CCFDD3EF9DEE95F04072
:1059E300061255A11256339012C8125598125664D6
:1059F300D0D0D082D083D0F0D0E03290114DEBF0F4
:105A0300A3EAF0A3E9F090114DE0FBA3E0FAA3E0D1
:105A1300F912072AFF1272D6500C90114EE475F05A
:105A23000112087580E0D20090114DE0FBA3E0FA6B
:105A3300A3E0F912072AFF642B6004EFB42D1D9035
:105A4300114DE0FBA3E475F00112088BA9F0FA12E3
:105A5300072A642D6003D38001C39200E4901150A0
:105A6300F0A3F090114DE0FBA3E0FAA3E0F91207D5
:105A73002AFF12730C504290114DE0FBA3E0FAA3EE
:105A8300E0F912072AFF3395E0FEEF24D0FBEE3452
:105A9300FFFA901150E0FEA3E0FF7C007D0A12089C
:105AA3000EEF2BFFEE3A901150F0A3EFF090114E52
:105AB300E475F00112087580AA30000A901150E0D5
:105AC300FEA3E0FF800F901150E0FEA3E0FFC3E4CC
:105AD3009FFFE49EFE229011361235399011361243
