:030000000247A014
:0C47A000787FE4F6D8FD75812A0247E717
:104F01005AA5008200005AA506820000005AA50990
:074F11008200845A01000038
:10227000420659000042065700004205C6000060B1
:102280008F05C80000101100200001FF35A90000D3
:10229000101202580078FF2E2C0000101302580074
:1022A000DCFF2F7000001014025800DCFF30B40077
:1022B00000101500230001FF34730000101603B650
:1022C000000FFF31F80000101700010000FF3B7DF8
:1022D0000000101800010000FF3B7D0000102027C7
:1022E0000F0000FF148D00001021270F0000FF14C5
:1022F0008D00001022FFFF0000FF148D000010234E
:10230000FFFF0000FF148D00001030FFFF0000FFF2
:102310003D9457065B0000010672000000000000BB
:0C232000000107860105C8000D01013C0A
:1018FF00900717E0FBA3E0FAA3E0F922F9E43AFA24
:10190F00EB90070CF0A3EAF0A3E9F02290000F127E
:10191F000C3D9006F5E075F00BA429F9EA35F0FAC5
:10192F009000060208CCA3A3E0900007020C3DEB49
:10193F004FFFEA4EFEE94DFDE84CFC2290000712E6
:10194F000743FE900008120743FDEDFFE4FCFD2264
:10195F00900006120743C39402E4940022900009FA
:10196F00120743FE3395E0FDFC22E075F00BA4F562
:10197F008285F083120AF6AD07AC0622FFEE33958F
:10198F00E0FDFC2290000F020C3D90000712074370
:10199F007E007818229000081207437E00781022EC
:1019AF00EB4FFFEAFEE9FDE8FC2290000A12074325
:1019BF00FF22E0FBA3E0FAA3E02290000C020C3D13
:1019CF00A3E4F0A37402F0229000121208CCFF22BD
:1019DF009000041208CCFF22900002120C3DA801C7
:1019EF00AC02AD037B01229006FFE0FEA3E0FF9067
:1019FF000659E06E22E0C39FE495F022FDE5F03436
:101A0F00FFFC74FF900721F0A3F0227D017BFF7E86
:101A1F0000020704E4900657F0A3F0A3F0A3F090A0
:101A2F00070C04F0A322900002020C3D240CF9E4F1
:101A3F003AFA02072A12070490070FE0FEA3E0FF0D
:101A4F0090070722900701E0FEA3E0FF900657E002
:101A5F006E22A3ECF0A3EDF022E0FEA3E0FFE4FC86
:101A6F00FDC3020AC59006FAE09F9006F9E095F0D3
:101A7F00229006FAE09F9006F9E095F0229006FA80
:101A8F00E09F9006F9E095F0229006FAE09F90060D
:101A9F00F9E095F0229006FAE09F9006F9E095F0B4
:101AAF0022900005E475F001020904FDECF0A3EDAE
:101ABF00F0900005E4227E007F0A120704900707CA
:101ACF0022EEF0A3EFF0E4A3F0A3F022E075F00B09
:101ADF00A4F58285F08322F9EA3EFA900008020C01
:101AEF003D9000050208CC85F082F583EF0207ECEC
:101AFF0090000A0208CCA3F0A3E4F0A37404F02230
:07459F00900717EB1219133E
:1045A600E4A3F0A3F0EA494B60781218FF900014D8
:1045B600120C3DEA494B606A1218FF121A35E924BB
:1045C60003F9E43AFAC003C002C0011218FF121A36
:1045D600F024FD121A0BD001D002D00312465F90D0
:1045E600071AEEF0A3EFF01218FF121A35C003C037
:1045F60002C0011218FF121AB0D001D002D0031265
:104606001AF690071AE0FF1218FF121A35C003C0F7
:1046160002C0011218FF121AB0D001D002D0031244
:104626001AF61218FF900014120C3DC003C002C007
:10463600011218FF121A3590071FEB1219131218E0
:10464600FF121AF0900722F0A37413F0A37488F0F7
:09465600D001D002D00302492B6F
:0A470E00900707EB121913121A614D
:1047180078117C077A4F79017F06121A1A900707D9
:10472800121902EA494B606F90070FA3E024059025
:104738000713F090070AE0FCA3E0900715121ABAD5
:1047480075F0061209BC9007071219021219E77AC8
:104758000779117E007F06121A44121902121A35BF
:10476800C003C002C001900707121902121AF0D044
:1047780001D002D00329F9EA35F0A801FCAD039075
:10478800070C121902121A44121902900005EE8F32
:07479800F012095012459FC9
:01479F0022F7
:0A4B270090080EEB121913121A6128
:104B310078147C087A4F79077F07121A1A90080EA9
:104B4100121902EA494B603DA3E0FCA3E0FDEC90A1
:104B51000818F0A3EDF0900813E090081AF0900007
:104B610005E475F0071209BC90080E12190212191A
:104B7100E77A0879147E007F0712070490080E1265
:054B8100190212459F1E
:014B8600220C
:0A4C4400900707EB121913121A6112
:104C4E00780C7C077D017BFF7A4F790E121AC51204
:104C5E001902EA494B6030A3E0FCA3E0900714125E
:104C6E001ABAF5F01209BC9007071219021219E7C9
:104C7E007A07790C121AC5121902900005E475F024
:074C8E000A12095012459FB4
:014C950022FC
:102739009006F2EB1219139006F2121902121938C7
:1027490012072A645A60030228999006F2121902A4
:1027590012193890000112074364A56003022899F1
:102769009006F2121902121938900004120743FE5A
:10277900900005120743FDEDFF9006F5121AD0A34C
:10278900F0E92403F9E43AFAC003C002C001900653
:10279900F2121902121AFF24FB121A0BD001D002ED
:1027A900D00312465F9006F7EEF0A3EFF09006F71C
:1027B900E0FCA3E0FAECFFEAFE9006F7EEF0A3EFE7
:1027C900F09006F2121902121938C003C002C001B2
:1027D9009006F2121902121AFFFDACF024FEF582DE
:1027E90074FF3CF583D001D002D0031207437F0068
:1027F900FE9006F212190212193874FF2DF582742F
:10280900FF3CF583120743FDEDFBAA06E4F9F890B6
:1028190006F7121A6870799006F21219021219D77E
:102829009006F9121A0450681219939006F9121AAF
:10283900DB120BB09006F5121A68704B9006F21273
:1028490019021219939006F9E075F00BA4FFAEF086
:1028590029121AE6EA494B60379006F2121902C0AA
:1028690003C002C0019006F9E0FD9006F2A3A3E0BF
:10287900121993E92F121AE689828A83D001D002AC
:10288900D003120C9780099006F9E004F002282081
:102899009006F2121902121AFFFFAEF07D0012190A
:1028A90038120CC69006F212190290000AE4F5F0EB
:0328B9000209BC55
:074BE700900703EB12191304
:104BEE001219C9900706EB12191390070312190236
:104BFE00EA494B6040A3121902EA494B6037121A78
:104C0E00117D117C0012465F90070612190290006A
:104C1E0011EE8FF01209BC9007031219021208A1AF
:104C2E00FFAEF090070612190290070EE4F0A3747F
:054C3E0013F0124AC64C
:014C4300224E
:073B7D009006F2EB12191390
:103B84001219C99006F5EB1219139006F2121902D4
:103B9400EA494B7003023C8EA3121902EA494B70A6
:043BA40003023C8E4E
:103BA8009006F212190212193812195F5013900078
:103BB80007120743FE900008120743FDEDFF023C81
:103BC80040121999C333CE33CED8F912198BC004D9
:103BD800C005C006C0079006F21219021219381261
:103BE80019A4C333CE33CED8F912198BD003D0021F
:103BF800D001D00012193EC004C005C006C007900D
:103C080006F212190212193812196CD003D002D018
:103C180001D000EB121940C004C005C006C00790CF
:103C280006F21219021219381219B9D003D002D0AB
:103C380001D000EB4FFFEAFE9006F8EFF0E4A3F0A6
:103C4800EF64F19006F570181219C1121A3B44027C
:103C58001207DA54FB1207DA9006F97406F0801698
:103C68001219C1121A3B44041207DA54FD1207DA7A
:103C78009006F97407F09006F21219029006F9E01E
:063C8800FD7C00124C441B
:013C8E002213
:0C35A9009006F5EDF09006F2EB121913FD
:1035B5001219C99006F6EB1219134A4B700302361D
:0F35C500DD9006F2121902EA494B70030236DD5F
:1035D4009006F212193512195F500612194B023671
:1035E4005A121999C333CE33CED8F912198BC004A9
:1035F400C005C006C0079006F2121902121938124B
:1036040019A4C333CE33CED8F912198BD003D00208
:10361400D001D00012193EC004C005C006C00790F6
:1036240006F212190212193812196CD003D002D002
:1036340001D000EB121940C004C005C006C00790B9
:1036440006F21219021219381219B9D003D002D095
:1036540001D0001219AF9006F9EEF0A3EFF0900636
:10366400F212190212191BFFC3121A74402B1219F9
:10367400DFD3121A7450229006F21219021219D7CB
:103684009006F5121A0450289006F9E0F9A3E0FF19
:103694009006F61219C1C980129006F2121902128C
:1036A400191BFF9006F6121902E5F08FF012099D1E
:1036B4009006F21219021219939006F512197990D4
:1036C40006F6E0F9A3E0FAA3E0C91219101219CF23
:0936D4009006F212190212470ED1
:0136DD0022CA
:0C2E2C009006F5EDF09006F2EB12191381
:102E38001219C99006F6EB1219134A4B7003022FA8
:0F2E48006F9006F2121902EA494B7003022F6FC6
:102E57009006F212193512195F500612194B022EFD
:102E6700DD121999C333CE33CED8F912198BC004AA
:102E7700C005C006C0079006F212190212193812CF
:102E870019A4C333CE33CED8F912198BD003D0028D
:102E9700D001D00012193EC004C005C006C007907B
:102EA70006F212190212193812196CD003D002D087
:102EB70001D000EB121940C004C005C006C007903E
:102EC70006F21219021219381219B9D003D002D01A
:102ED70001D0001219AF9006F9EEF0A3EFF09006BB
:102EE700F21219021219939006F5121924FFC31250
:102EF7001A80402E1219DFD3121A8050259006F23D
:102F07001219021219D79006F5121A0450349006B6
:102F1700F9E0FEA3E0FF9006F6121902900002EE18
:102F2700801B9006F21219021219939006F51219D6
:102F370024FF9006F6121902900002E5F08FF012B6
:102F470009BC9006F21219021219939006F512198C
:102F5700799006F61219C1240212190B1219CF9093
:082F670006F212190212470ED6
:012F6F00223F
:0C2F70009006F5EDF09006F2EB1219133C
:102F7C001219C99006F6EB1219134A4B7003023062
:0F2F8C00B39006F2121902EA494B70030230B3F8
:102F9B009006F212193512195F500612194B0230B6
:102FAB0021121999C333CE33CED8F912198BC00421
:102FBB00C005C006C0079006F2121902121938128A
:102FCB0019A4C333CE33CED8F912198BD003D00248
:102FDB00D001D00012193EC004C005C006C0079036
:102FEB0006F212190212193812196CD003D002D042
:102FFB0001D000EB121940C004C005C006C00790F9
:10300B0006F21219021219381219B9D003D002D0D4
:10301B0001D0001219AF9006F9EEF0A3EFF0900675
:10302B00F21219021219939006F5121924FFC3120A
:10303B001A8C402E1219DFD3121A8C50259006F2DF
:10304B001219021219D79006F5121A045034900671
:10305B00F9E0FEA3E0FF9006F6121902900004EED1
:10306B00801B9006F21219021219939006F5121991
:10307B0024FF9006F6121902900004E5F08FF0126F
:10308B0009BC9006F21219021219939006F5121947
:10309B00799006F61219C1240412190B1219CF904C
:0830AB0006F212190212470E91
:0130B30022FA
:0C30B4009006F5EDF09006F2EB121913F7
:1030C0001219C99006F6EB1219134A4B700302311C
:0F30D000F79006F2121902EA494B70030231F72A
:1030DF009006F212193512195F500612194B023170
:1030EF0065121999C333CE33CED8F912198BC00498
:1030FF00C005C006C0079006F21219021219381245
:10310F0019A4C333CE33CED8F912198BD003D00202
:10311F00D001D00012193EC004C005C006C00790F0
:10312F0006F212190212193812196CD003D002D0FC
:10313F0001D000EB121940C004C005C006C00790B3
:10314F0006F21219021219381219B9D003D002D08F
:10315F0001D0001219AF9006F9EEF0A3EFF0900630
:10316F00F21219021219939006F5121924FFC312C5
:10317F001A98402E1219DFD3121A9850259006F282
:10318F001219021219D79006F5121A04503490062C
:10319F00F9E0FEA3E0FF9006F6121902900006EE8A
:1031AF00801B9006F21219021219939006F512194C
:1031BF0024FF9006F6121902900006E5F08FF01228
:1031CF0009BC9006F21219021219939006F5121902
:1031DF00799006F61219C1240612190B1219CF9005
:0831EF0006F212190212470E4C
:0131F70022B5
:0C3473009006F5EDF09006F2EB12191334
:10347F001219C99006F6EB1219134A4B7003023555
:0F348F00A89006F2121902EA494B70030235A801
:10349E009006F212193512195F500612194B0235A9
:1034AE0024121999C333CE33CED8F912198BC00416
:1034BE00C005C006C0079006F21219021219381282
:1034CE0019A4C333CE33CED8F912198BD003D00240
:1034DE00D001D00012193EC004C005C006C007902E
:1034EE0006F212190212193812196CD003D002D03A
:1034FE0001D000EB121940C004C005C006C00790F1
:10350E0006F21219021219381219B9D003D002D0CC
:10351E0001D0001219AF9006F9EFF09006F21219D1
:10352E00021219939006F5121924FF9006F9E0C3C2
:10353E009F40221219DF9006F9E0D39F5017900694
:10354E00F21219021219D79006F5121A045025908C
:10355E0006F9E0800F9006F21219021219939006E6
:10356E00F5121924FF9006F6121902900008E48F46
:10357E00F01209BC9006F21219021219939006F578
:10358E001219799006F61219C1240812190B121984
:0A359E00CF9006F212190212470E38
:0135A8002200
:0C31F8009006F5EDF09006F2EB121913B2
:103204001219C99006F6EB1219134A4B70030233D4
:0F3214003B9006F2121902EA494B700302333B5A
:103223009006F212193512195F500612194B023229
:10323300A9121999C333CE33CED8F912198BC0040E
:10324300C005C006C0079006F212190212193812FF
:1032530019A4C333CE33CED8F912198BD003D002BD
:10326300D001D00012193EC004C005C006C00790AB
:1032730006F212190212193812196CD003D002D0B7
:1032830001D000EB121940C004C005C006C007906E
:1032930006F21219021219381219B9D003D002D04A
:1032A30001D0001219AF9006F9EEF0A3EFF09006EB
:1032B300F21219021219939006F5121924FFC31280
:1032C3001AA4402E1219DFD3121AA450259006F225
:1032D3001219021219D79006F5121A0450349006E7
:1032E300F9E0FEA3E0FF9006F612190290000AEE41
:1032F300801B9006F21219021219939006F5121907
:1033030024FF9006F612190290000AE5F08FF012DE
:1033130009BC9006F21219021219939006F51219BC
:10332300799006F61219C1240A12190B1219CF90BB
:0833330006F212190212470E06
:01333B00226F
:0C148D009006F5EDF09006F2EB1219133A
:101499001219C99006F6EB1219139006F2121902E5
:1014A90012193812195F500612194B02152C12190C
:1014B90099C333CE33CED8F912198BC004C005C0F5
:1014C90006C0079006F21219021219381219A4C39C
:1014D90033CE33CED8F912198BD003D002D001D034
:1014E9000012193EC004C005C006C0079006F212DA
:1014F900190212193812196CD003D002D001D00088
:10150900EB121940C004C005C006C0079006F212CC
:1015190019021219381219B9D003D002D001D0001A
:101529001219AF9006F9EEF0A3EFF09006F2121936
:10153900021219939006F5121ADB120AF69006FBAD
:10154900121AD09006F612190290000D1208CCFF5B
:101559009006FFE5F0F0A3EFF090000F1208CCFF22
:10156900900701E5F0F0A3EFF09006F212190212CC
:1015790019939006F5121924FFC39006FAE09F907B
:1015890006F9E095F050030216E41219DF9006F906
:10159900E0FCA3E0FDD39FEC95F040030216E4A321
:1015A900E0FEA3E0FFBE100DBF200A900659ECF043
:1015B900A3EDF0800EBE100BBF2108900657ECF08A
:1015C900A3EDF0EF64227003EE6410600302168449
:1015D900ED64F14C60030216841219F67003A3E05E
:1015E9006F7062121A537003A3E06F70589005C6AA
:1015F900F0A3F09006F612190290000C120743545A
:10160900027E0060047F0680027F079006FDEEF0EF
:10161900FCA3EFF0FD9006F2121902124C44900659
:10162900F6E0F9A3E0FAA3E090070CC9121913A395
:10163900E4F0A3740CF09006F21219027D117C10EB
:1016490012470E80361219F67003A3E06F60151267
:101659001A537003A3E06F600B9005C6E4F0A374FE
:1016690003F080171219F67003A3E06F9005C660A6
:1016790007E4F0A304F080031219D09006FBE0649C
:10168900107004A3E0642370349006F9E07004A399
:0B169900E064F070289005C6F0A3F09C
:1016A400900703120BEC00000000121A237407F0D9
:1016B4007403121B059006F21219027D207C10128D
:0216C400470ECF
:1016C60090070C7401F0A37405F0A374C6F0121908
:0E16D600CF9006F21219027D247C1012470EEE
:0116E40022E3
:073D94009006F2EB12191377
:103D9B001219C99006F5EB1219139006F2121902BB
:103DAB00EA494B7003023E97A3121902EA494B7082
:043DBB0003023E972A
:103DBF009006F212190212193812195F50061219D1
:103DCF004B023E48121999C333CE33CED8F912198C
:103DDF008BC004C005C006C0079006F2121902126C
:103DEF0019381219A4C333CE33CED8F912198BD088
:103DFF0003D002D001D00012193EC004C005C00686
:103E0F00C0079006F212190212193812196CD0035A
:103E1F00D002D001D000EB121940C004C005C0067B
:103E2F00C0079006F21219021219381219B9D003ED
:103E3F00D002D001D0001219AF9006F8EFF064F164
:103E4F0070469006F51219C1121A3B44081207DA90
:103E5F009006F9120BEC00000000121A237406F002
:103E6F0074F9121B059006F21219027D207C1012B4
:023E7F00470EEC
:103E81009006F2121902124BE79006F21219027D06
:063E9100027C00124C440B
:013E97002208
:0A465F0090071CEB121913121A61E8
:10466900E4900723F0A3F0900721E0FFA3E090076F
:1046790025CFF0A3EFF0E4900723F0A3F090071FF4
:10468900E0FEA3E0FFC3900724E09F900723E09E8C
:10469900506A90071CE0FBA3E475F00112088BA98E
:1046A900F0FA12072AFF900725E0F0A3E06FF0E483
:1046B900FCFD900725E0FEA3E0FF30E019EEC313EF
:1046C900FEEF13FFEE64A0FEEF6401FF900725EEF5
:1046D900F0A3EFF0800B900725E0C313F0A3E013DC
:1046E900F00DBD00010CED64084C70C6900724E084
:1046F90004F07089900723E004F08081900725E099
:04470900FEA3E0FF2C
:01470D002289
:06003D00900001020743E0
:10241B00EFD394057480948040037F012212072A26
:10242B00FED394037480948040037F0222EF7038B4
:10243B00EE700812003DF45293529412072A640175
:10244B00700812003D4293F4529412072AFE640264
:10245B00700712003D42934294EE6403700A12001F
:10246B003DFEF45293EE4294EF6401703A12072A48
:10247B00FE700812003DF452915292EE6401700806
:10248B0012003D4291F4529212072A640270071215
:10249B00003D4291429212072A6403700A12003DDA
:1024AB00FEF45291EE4292EF6402703A12072AFE4A
:1024BB00700812003DF452955296EE6401700812AA
:1024CB00003D4295F4529612072A640270071200DF
:1024DB003D4295429612072A6403700A12003DFE94
:1024EB00F45295EE4296EF6403703A12072AFE708F
:1024FB000812003DF452B152B2EE640170081200A2
:10250B003D42B1F452B212072A6402700712003D29
:10251B0042B142B212072A6403700A12003DFEF464
:10252B0052B1EE42B2EF6404703A12072AFE700801
:10253B0012003DF452B352B4EE6401700812003D28
:10254B0042B3F452B412072A6402700712003D42E0
:10255B00B342B412072A6403700A12003DFEF45210
:10256B00B3EE42B4EF6405703D12072AFF7E007094
:10257B000812003DF452C952CAEF64014E700812A2
:10258B00003D42C9F452CA12072A640270071200B6
:10259B003D42C942CA12072A6403700A12003DFF6A
:0925AB00F452C9EF42CA7F00227C
:104D31000001007800DC00DC0001000F0203E91A29
:104D41000AB59C1603010100010000000000170ACA
:104D51001A0F1E19222326342A462E5A327D34BEBA
:104D6100353C0000190100000F0100DCDCDCFFFF15
:074D7100FF160802FA000022
:10232C00602407D20000000A0100FF1D1600000304
:10233C00E80100FF1EF7000001F40100FF42570006
:10234C000003E80100FF3C8F4107D1044407C9009A
:0A235C000000004407CD000000005F
:102CE3009007F6E4F0A3E4F07B017A077986900776
:102CF300F8EBF0A3EAF0A3E9F07BFF7A4D7931C05A
:102D030003C002C0017B017A0779FBA801AC02ADC5
:102D130003D001D002D0037E007F131207041239BF
:102D230030124E387FCA7EFF124C967F757EFD129D
:102D33004DB97FCA7EFF124D789007F8E0FBA3E000
:102D4300FAA3E0F99006F7E4F0A37413F07F007E92
:102D530000124DF99007F8E0FBA3E0FAA3E0F99025
:102D6300072174FFF0A374FFF07D117C0012465F0E
:102D73009007F6EEF0A3EFF09007F8E0FBA3E0FA7C
:102D8300A3E0F97582117583001208CCFFAEF090B1
:102D930007F6E0FCA3E0FDEF6D7002EE6C60737B61
:102DA300017A0779FBC003C002C0019007F8E0FB7A
:102DB300A3E0FAA3E0F9A801AC02AD03D001D0026D
:102DC300D0037E007F131207047B017A0779FB90FF
:102DD300072174FFF0A374FFF07D117C0012465F9E
:102DE3009007F8E0FBA3E0FAA3E0F975821175837D
:102DF30000EE8FF01209BC9007F8E0FBA3E0FAA302
:102E0300E0F990070EE4F0A37413F07F007E001244
:102E13004AC6D2AFC2A97B017A0779D212440CD237
:082E2300A9A2CDB392CD80EC11
:012E2B002284
:0B440C0090082BEBF0A3EAF0A3E9F00E
:1044170090082BE0FBA3E0FAA3E0F990082EEBF05D
:10442700A3EAF0A3E9F090082BE0FBA3E0FAA3E0EE
:10443700F9EA494B70030244D59007D1E0FF7E09A2
:10444700EF8EF0A4FFAEF090082BE0FBA3E0FAA3F9
:10445700E0F9E92FF9EA3EFAC003C002C00190086B
:104467002EE0FBA3E0FAA3E0F9C3D082D083D0E02B
:10447700E99582EA9583505690082EE0FBA3E0FA6F
:10448700A3E0F9758205758300120743FF7E00EFED
:1044970064014E702C90082EE0FBA3E0FAA3E0F92C
:1044A700758206758300120C3D120C9390082EE05E
:1044B700FBA3E0FAA3E0F9758205758300E4120710
:0E44C700EC90082FE475F009120875024440CD
:0144D50022C4
:101D16007B017A017900900837EBF0A3EAF0A3E99A
:101D2600F0900837E0FBA3E0FAA3E0F9EA494B702C
:101D360003021EF67B017A017950C003C002C0017E
:101D4600900837E0FBA3E0FAA3E0F9C3D082D08382
:101D5600D0E0E99582EA95834003021EF6900837A3
:101D6600E0FBA3E0FAA3E0F975821375830012077E
:101D760043FFEF20E103021EE9900837E0FBA3E0F2
:101D8600FAA3E0F9E92413F9EA3400FA12072AFF64
:101D9600EF54FDFFEF1207DA900837E0FBA3E0FAF5
:101DA600A3E0F912072AFFEF120C6D1DC1011DC831
:101DB600021E21031E540400001EA1C2ACD2AC02B6
:101DC6001EA153AFFE900837E0FBA3E0FAA3E0F9AB
:101DD60075820D758300120C3D900406EBF0A3EAA4
:101DE600F0A3E9F0900837E0FBA3E0FAA3E0F97569
:101DF60082107583001208CCFFAEF0900409EFF054
:101E06007B017A0379F09003F1E0FEA3E0FF8F8275
:101E16008E83120C9743AF01021EA153AFF77B01CD
:101E26007A077966C003C002C001900837E0FBA3B9
:101E3600E0FAA3E0F99006F5EBF0A3EAF0A3E9F0E7
:101E4600D001D002D0031211F243AF08804D53AF38
:101E5600EF900837E0FBA3E0FAA3E0F975820D7571
:101E66008300120C3D900662EBF0A3EAF0A3E9F0C2
:101E7600900837E0FBA3E0FAA3E0F97582107583BA
:101E8600001208CCFFAEF0900665EEF0A3EFF07BF3
:101E9600017A06795B12273943AF10900837E0FBC9
:101EA600A3E0FAA3E0F97582107583001208CCFF4F
:101EB600AEF07D00900837E0FBA3E0FAA3E0F975E9
:101EC600820D758300120C3D120CC6900837E0FB9C
:101ED600A3E0FAA3E0F9758210758300E475F000BB
:101EE6001209BC900838E475F014120875021D2713
:011EF60022C9
:104257007B017A077966900731EBF0A3EAF0A3E9CF
:10426700F07BFF7A4D7944C003C002C0017B017A1D
:10427700077934A801AC02AD03D001D002D0037E88
:10428700007F32120704900731E0FBA3E0FAA3E0B6
:10429700F975822C758300120743FFEF30E32790EF
:1042A7000731E0FBA3E0FAA3E0F9E9242CF9EA34AB
:1042B70000FA12072AFFEF54F7FFEF1207DA900709
:1042C700347415F080069007347416F0900731E0C7
:1042D700FBA3E0FAA3E0F9C003C002C0017B017AA7
:1042E7000779349006F5EBF0A3EAF0A3E9F0D001E3
:1042F700D002D003121B0F7B017A017928C003C0BB
:1043070002C0017B017A07793490071FEBF0A3EA1B
:10431700F0A3E9F09007227432F09007237413F0AA
:0D432700A37488F0D001D002D00312492BFE
:014334002266
:103C8F007B017A07796690083AEBF0A3EAF0A3E993
:103C9F00F090083AE0FBA3E0FAA3E0F975821C75F7
:103CAF0083001208CCFFAEF0EF30E24F9007C9E06F
:103CBF00FCA3E0FDA3E0FEA3E0FFEF2401FFEE3441
:103CCF0000FEED3400FDEC3400FC9007C9120BE050
:103CDF009007CDE0FCA3E0FDA3E0FEA3E0FF90087A
:103CEF003AE0FBA3E0FAA3E0F975820875830012AE
:103CFF000BB012009D9007CD120BE090083AE0FB3D
:103D0F00A3E0FAA3E0F975821C7583001208CCFFBB
:103D1F00AEF0EF30E1149007C9120BEC0000000079
:103D2F009007CD120BEC000000007B3C7A0079006D
:103D3F0078009007C9E0FCA3E0FDA3E0FEA3E0FF3D
:103D4F00120A2590083AE0FBA3E0FAA3E0F9758286
:103D5F0010758300120B407B007A007961784590D3
:103D6F0007CDE0FCA3E0FDA3E0FEA3E0FF12029766
:103D7F0090083AE0FBA3E0FAA3E0F975821475838B
:043D8F0000120B40D3
:013D9300220D
:101EF7007B017A077966900824EBF0A3EAF0A3E95F
:101F0700F07B017A0379F0900827EBF0A3EAF0A3BE
:101F1700E9F090082AE4F0900827E0FBA3E0FAA391
:101F2700E0F975821D75830074021207EC9008278B
:101F3700E0FBA3E0FAA3E0F9758221758300740141
:101F47001207EC900827E0FBA3E0FAA3E0F9C0032F
:101F5700C002C001900824E0FBA3E0FAA3E0F990D7
:101F67000726EBF0A3EAF0A3E9F09007297420F025
:101F7700D001D002D0037D007C00123A5790082789
:101F8700E0FBA3E0FAA3E0F975821D7583007403F3
:101F97001207EC900827E0FBA3E0FAA3E0F97582AB
:101FA7002175830074011207EC900827E0FBA3E07A
:101FB700FAA3E0F9C003C002C001900824E0FBA324
:101FC700E0FAA3E0F9E92420F9EA3400FA900726B9
:101FD700EBF0A3EAF0A3E9F09007297413F0D0011E
:101FE700D002D0037D007C00123A57900827E0FB0F
:101FF700A3E0FAA3E0F975821D758300E41207ECEC
:10200700900827E0FBA3E0FAA3E0F9758221758326
:102017000074011207EC900824E0FBA3E0FAA3E0A8
:10202700F975822C758300120743FFEF5404FF7E76
:1020370000EF4E60047FFF80027F0090082AEFF0D8
:10204700900827E0FBA3E0FAA3E0F9C003C002C0B1
:10205700017B017A08792A900726EBF0A3EAF0A31F
:10206700E9F09007297401F0D001D002D0037D0078
:102077007C00123A577B017A06795BC003C002C025
:1020870001900824E0FBA3E0FAA3E0F990070CEB2A
:10209700F0A3EAF0A3E9F090070FE4F0A37420F0AF
:0D20A700D001D002D0037D007C1012470E46
:0120B4002209
:103930007BFF7A4D7976C003C002C0017B017A0813
:103940007940A801AC02AD03D001D002D0037E00C3
:103950007F0212070475BA8090FE0374C0F090FED7
:1039600003E0FFEF30E0F790FE017401F090FE00FD
:103970007401F075BA009008407403F09008417427
:1039800090F07B017A0879407F0312241B90084055
:103990007401F09008417460F07B017A0879407FEF
:1039A0000312241B9008407403F09008417424F023
:1039B0007B017A0879407F0212241B900840740131
:1039C000F09008417418F07B017A0879407F021268
:1039D000241B9008407403F09008417440F07B0170
:1039E0007A0879407F0012241B9008417408F07B0C
:1039F000017A0879407F0112241B9008407403F07B
:103A00009008417480F07B017A0879407F0012248D
:103A10001B9008407401F09008417404F07B017A17
:103A20000879407F0112241B9008407403F090082D
:103A3000417420F07B017A0879407F0512241B90A5
:103A400008407403F09008417480F07B017A087993
:063A5000407F0012241B60
:013A5600224D
:104E380090081BE4F090081C747FF090081D74F033
:104E4800F090081E74F7F0A374DDF0900821E4F0E8
:104E5800900820E4F09008227401F090082374016F
:0B4E6800F07B017A08791B123F9A22B0
:103F9A0090083DEBF0A3EAF0A3E9F090083DE0FBBE
:103FAA00A3E0FAA3E0F912072AFFEF120C6D3FBF54
:103FBA00000000408B90083DE0FBA3E0FAA3E0F983
:103FCA00758201758300120743FFEF528E90083DF8
:103FDA00E0FBA3E0FAA3E0F97582027583001207F9
:103FEA0043FFEF528990083DE0FBA3E0FAA3E0F912
:103FFA007582037583001208CCFFAEF08F8A900891
:10400A003DE0FBA3E0FAA3E0F97582037583001291
:10401A0008CCFFAEF0EEFF7E008F8C90083DE0FBEF
:10402A00A3E0FAA3E0F9758206758300120743FF3D
:10403A00EF42B890083DE0FBA3E0FAA3E0F97582ED
:10404A0005758300120743FFEF42B790083DE0FB76
:10405A00A3E0FAA3E0F9758207758300120743FF0C
:10406A00EF24FF92A990083DE0FBA3E0FAA3E0F950
:10407A00758208758300120743FFEF24FF928CC2F2
:02408A008D2285
:03000B000220B51B
:1020B500C0E0C0F0C083C082C0D075D000C000C0F1
:0D20C50001C002C003C004C005C006C00772
:1020D2007527007527009007D1E0FFE527C39F40D1
:1020E2000302217CAF2775F009EFA424D6F582E51F
:1020F200F03407F583E0FF7E00EF64014E7076AFA7
:102102002775F009EFA424D2F582E5F03407F583B0
:10211200E475F001120875AF2775F009EFA424D415
:10212200F582E5F03407F583E0FEA3E0FFAD277505
:10213200F009EDA424D2F582E5F03407F583E0FC42
:10214200A3E0FDEDB5072EECB5062AAF2775F00921
:10215200EFA424D7F582E5F03407F5837401F0AFDC
:102162002775F009EFA424D2F582E5F03407F58350
:0A217200E4F0A3E4F005270220D8F2
:10217C007B017A0179007828A60308A60208A6013B
:10218C007828860308E6FA08E6F9EA494B70030258
:10219C0022557B017A017950C003C002C001782816
:1021AC00860308E6FA08E6F9C3D082D083D0E0E9CA
:1021BC009582EA958340030222557828860308E627
:1021CC00FA08E6F9758213758300120743FFEF30A6
:1021DC00E06A7828860308E6FA08E6F97582127533
:1021EC008300120743FFEF60177828860308E6FA8E
:1021FC0008E6F975821275830074FF1207A7803CFC
:10220C007828860308E6FA08E6F9E92413F9EA3493
:10221C0000FA12072AFFEF54FEFFEF1207DA7828B4
:10222C00860308E6FA08E6F9E92413F9EA3400FA19
:10223C0012072AFFEF4402FFEF1207DA782A741410
:09224C0026F618E436F602218C96
:10225500D007D006D005D004D003D002D001D000DD
:0B226500D0D0D082D083D0F0D0E03287
:103E9800000000000000000000000000000000001A
:103EA800000000000000000000000000000000000A
:103EB80000000000000000000000000000000000FA
:103EC80000000000000000000000000000000000EA
:103ED80000000000000000000000000000000000DA
:103EE80000000000000000000000000000000000CA
:103EF80000000000000000000000000000000000BA
:103F080000000000000000000000000000000000A9
:103F18000000000000000000000000000000000099
:103F28000000000000000000000000000000000089
:103F38000000000000000000000000000000000079
:103F48000000000000000000000000000000000069
:103F58000000000000000000000000000000000059
:103F68000000000000000000000000000000000049
:103F78000000000000000000000000000000000039
:103F88000000000000000000000000000000000029
:023F9800000027
:1023660060500100000000000000000000000000B6
:102376000000000000000000000000000000000057
:102386000000000000000000000000000000000047
:102396000000000000000000000000000000000037
:1023A6000000000000000000000000000000000027
:0423B6000000000023
:10482C009006F2E0FBA3E0FAA3E0F92290071FE068
:10483C00FBA3E475F00112088BA9F0FA02072AA376
:10484C00A3A3E475F00112088B85F082F58322EBAB
:10485C00F0A3EAF0A3E9F022A3F07B017A0679F544
:10486C00E4FF22ECF0EDA3F0A3740AF02290000315
:10487C001208CCAEF022FFE0FCA3E0FD020820E41D
:10488C009006F5F0A304F0FB229000010207439080
:10489C000006020743F0A3EEF0A3EFF02290000213
:0348AC00020743BD
:104C96009001147402F0A37410F0E4A31248A1A3C7
:104CA600E04401F0A37401F0A37414F090011D74A4
:104CB60001F0A374FEF0E4900127F07B019001213E
:104CC60004F0A37400F0A37480F090011FE4F0A335
:104CD6007480F0E4900124F0A3F07A017914023391
:014CE6003C91
:030043000249FC73
:1049FC00C0E0C0F0C083C082C0D075D008E59A304A
:104A0C00E10A539AFD90011CE054FEF0E59A30E067
:104A1C0039539AFE90012112482FEA494B602B9092
:104A2C000127E0FF54027022EF4401F090012112A3
:104A3C00484BE59B1207EC900124E0FEA3E09001AB
:104A4C001F12488290012412486FD0D0D082D0839C
:054A5C00D0F0D0E032B3
:104DB9009001287403F074501248721248A29001AD
:104DC9002E7408F0E490013BF07B0190013504F06A
:104DD900A37401F0A37450F09001337401F0A3742B
:104DE9006CF0E4900138F0A3F07A01792802333CA1
:03008B00024A61C5
:104A6100C0E0C0F0C083C082C0D075D010E5AC30CA
:104A7100E10A53ACFD900130E054FEF0E5AC30E0CA
:104A81003953ACFE90013512482FEA494B602B9007
:104A9100013BE0FF54027022EF4401F09001351216
:104AA100484BE5AD1207EC900138E0FEA3E0900120
:104AB1003312488290013812486FD0D0D082D0830F
:054AC100D0F0D0E0324E
:104D780090013C7404F0A37450F0A374A01248A1ED
:104D88009001427410F0E490014FF07B01900149CA
:104D980004F0A37402F0A374BCF0900147E4F0A3FC
:104DA8007480F0E490014CF0A3F07A01793C02336E
:014DB8003CBE
:0300930002499689
:10499600C0E0C0F0C083C082C0D075D018E58430B6
:1049A600E10A5384FD900144E054FEF0E58430E0D2
:1049B6003A5384FE90014912482FEA494B602C90E5
:1049C600014FE0FF54027023EF4401F090014912B9
:1049D600484BE5851207EC90014CE0FEA3E0FF9002
:1049E600014712488390014C12486FD0D0D082D034
:0649F60083D0F0D0E03296
:06333C009006F212485B4E
:1033420078F57C067D017BFF7A3E79987E007F02CC
:1033520012070412482C12072A24FE605A14700322
:103362000233F41470030234202403600302345144
:10337200124895F5981248A94289124879F58BEEC0
:10338200F58D90000512074313928E9000071207E5
:1033920043428E90000912074352B890000A120766
:1033A2004352B712489B24FF92AC12488B7F031200
:1033B20034527F0302344E12482C124895F59A1269
:1033C2004879F5D7EEF5D6900007120743428E12E0
:1033D200489B5401F5AF90000912074352B5900083
:1033E2000A12074352B612488BFF1234527F01026F
:1033F200344E12482C124895F5AC1248A9F5D11258
:103402004879F5D5EEF5D412489B540842AF1248DC
:103412008B124868123469A314124865802E124830
:103422002C124895F5841248A942D1124879F5D355
:10343200EEF5D212489B541042AFE49006F5F074B8
:0F34420004124864123469740812486412241B7F
:10345100227A0679F512241B9006F57403F0A31461
:10346100F07B017A0679F52212241B9006F574038C
:02347100F02247
:104EC00090000812074330E00AED1DAE0470011C8B
:104ED0004E70EDE92408F9E43AFA12072A44010277
:024EE00007DAEF
:10492B0090071C12485B90071C12482FEA494B70EA
:10493B0009A312482FEA494B6050900722E0FF145D
:10494B00F0EF604690071C12482F900723E0FCA362
:10495B00E0FD124EC090071C12482F12072A24FEAE
:10496B00601114601514601A240370CE124838F5C8
:10497B009980C7124838F59B80C0124838F5AD02B4
:0B498B004945124838F58502494522D5
:0648AF0090049512485B25
:1048B500E4FFFE78C37C047D017BFF7A3E799A0E86
:1048C5001207049005C37401F0A37404F0A3749B4C
:1048D500F0900498E0F9A3E0FAA3E0900831C9123A
:1048E500485C9005C3E0F9A3E0FAA3E0900834C959
:1048F50012485C7B017A0479C3124CE79005C3E446
:10490500F0A3F0A3F090071F04F0A37404F0A374C0
:10491500C3F0A3EFF0A37413F0A37488F09004958B
:0649250012482F02492B8D
:10004600E4FEFDFC900713E0F8A3E0F9A3E0FAA3B1
:10005600E0FBC3020AC590070BE0FBA3E0FAA3E0AE
:10006600F922EEF0A3EFF0A3EBF0A3EAF0A3E9F098
:100076002275C65A75C6A52274FFF5F012088B457F
:02008600F02266
:104B8700900713120BEC000000197F1E120046401D
:104B97000475C780227F18120046400475C781221A
:104BA700E47F14120047400475C78222E47F0C1289
:104BB7000047400475C78322E47F0612004740047C
:104BC70075C78422E47F03120047400475C7852216
:0F4BD700E47F02120047400475C7862275C78726
:014BE60022AC
:0D4F2D00E4F5C7F5C5F5C675C380F5C422CF
:05000E00900710EFF067
:10001300E4FF124B8775C501900710E0F5C4E0FFBC
:100023007808A2E713D8FBF5C3120077AFC2E5C780
:0900330030E40653C7EF7FA5225B
:01003C0022A1
:104E9A00900710EEF0A3EFF0A3EDF0124B8775C563
:104EAA0002900710A3E0FFF5C475C300A3E0F5C2A2
:064EBA00120077024F2DEB
:104EE200900710EEF0A3EFF0124B8775C503900701
:0F4EF20010A3E0FFF5C475C300120077024F2D27
:104AC60090070912006812005CEA494B6052900791
:104AD60009E0FEA3E0FF124EE290070E12007E6090
:104AE6003F900709E0FEA3E0FFA312005F12072A2A
:104AF600FD124E9A900709A3E0FF12000E12005C09
:104B060012072AB5071A90070AE004F07006900704
:104B160009E004F090070CE475F00112087580B9FD
:014B2600226C
:104DF9009006F21200689006F412005FEA494B60CF
:104E09002D9006F712007E60259006F2E475F001F8
:104E190012088BAFF012000E9006F4E0FBA3E475C4
:0F4E2900F00112088BA9F0FAEF1207DA80D322FA
:1023BA006033076600000000000000000000000013
:1023CA000000000000000000000000000000000003
:1023DA0000000000000000000000000000000000F3
:0723EA0000000000000000EC
:1044D600F9EF1207EC9006F2E0FBA3E0FAA3E0F98D
:1044E600229006F2E0FBA3E0FAA3E0241CF9E43AEA
:1044F600FA0208A1FFEE8FF012099DEF54FDFFEEC0
:104506008FF012099DEF54DFFFEE8FF002099D1226
:104516000743FCE41203B77BCD7ACC79CC22120C8C
:104526003D900124120743FE900125120743FDED3D
:10453600221208CCFF9006F5E0FBA3E0FAA3E022E6
:104546009000241208CCE5F0FF9006F52290000DAD
:10455600020C3D1208CCFFAEF0D3229000241208C4
:10456600CCFF9006F522120743FCE41203B7E4FBE6
:10457600FA22FFE5F08FF002099D90002C02074316
:10458600E4FBFA784102033412009D9006F2229071
:0945960000041207EC900005225C
:1011F2009006F2EBF0A3EAF0A3E9F09006F21244B3
:10120200DEEA494B700302148CA31244DEEA494B16
:10121200700302148C7E007F207D009006F212443F
:10122200DE120CC69006F51244DE124553900119E7
:10123200124515783D12018EC004C005C006C007D4
:101242009006F51244DE12455390011812451578A6
:101252004112018ED003D002D001D00012458E126D
:1012620044DE900004120B409006F51244DE124553
:101272005390011B12456C79207841120297C004E9
:10128200C005C006C0079006F51244DE1245539011
:10129200011A124515784112018ED003D002D001F5
:1012A200D00012458E1244DE900018120B409006B8
:1012B200F51244DE12455390011D12074354F0FF0C
:1012C200C4540F12456FF9784012018EC004C00554
:1012D200C006C0079006F51244DE12455390011C69
:1012E20012456CF9784212018ED003D002D001D09F
:1012F2000012009DC004C005C006C0079006F5128A
:1013020044DE12455390011D120743540F12451833
:10131200783D12018ED003D002D001D00012458E4A
:101322001244DE120B269006F51244DE90000D12D6
:101332004524D39440EE94019006F51244DE9000C9
:101342000D4022124524FFAC06E41203B212383BD0
:101352007B7B7A14790C78C212018E7B857A6B7949
:10136200767843801D124524FFAC06E41203B27B5B
:10137200C87A9879BB78BD12018E7B127A837991F3
:10138200784212009D9006F21244DE90000C120B7D
:1013920040120AD6EC4D4E4F601E9006F21244DE09
:1013A200900018120AF6120B901202979006F2128F
:1013B20044DE900008120B409006F21244DE9000C8
:1013C20004120AF6E4FBFA794878431203346022E5
:1013D20040201244E7AEF0440812450EEF54FB12CF
:1013E20044FA9006F212453E241E1244F354FE02C1
:1013F20014899006F21244DE900018120AF67970EF
:1014020012458650261244E7AEF054F712450EEF0D
:1014120044041244FAEF441012450E9006F21245AB
:101422003E241E1244F344010214899006F212452E
:101432003E241E1244F354FE1245781244E7AEF0E5
:10144200440212450EEF54F712450EEF54FB1245BB
:101452000E9006F21244DE90001C1208CC30E40812
:10146200E91244F1442080051244E754DF12457822
:101472009006F21244DE120AD67920124586600ADC
:0B14820040081244E754EF12457822A6
:101B0F009006F2EBF0A3EAF0A3E9F01244DBEA4906
:101B1F004B7003021D15A31244DEEA494B700302FA
:101B2F001D151244DB9000201245599400EE9400CD
:101B3F004003D38001C3500EC3EF9421EE940050A5
:101B4F00028001C3400A900020E475F0011209BC25
:101B5F009000201245379000261244D6124580542B
:101B6F00019006F5600B1244DE7402124595E48075
:101B7F00091244DEE412459574011207EC1244DB9E
:101B8F0012458054029006F5600A1244DE90001F41
:101B9F00740180071244DE90001FE41207EC124418
:101BAF00DB9000281245599400EE94004003D38037
:101BBF0001C3500EC3EF9424EE940050028001C372
:101BCF00400A900028E475F0011209BC9000281219
:101BDF0045379000211244D6124580FF54026014FD
:101BEF00EF5404600FE9242CF9E43AFA12072A544F
:101BFF00FB1207DA1244DB12458054049006F5609D
:101C0F000A1244DE900022740180071244DE900015
:101C1F0022E41207EC1244DB90002A124559940E6D
:101C2F00EE94004003D38001C3500EC3EF94B7EE80
:101C3F00940350028001C3400A90002AE475F00F0C
:101C4F001209BC90002A1245491244DE900024125A
:101C5F0044D790002A1245641244DE9000251244A6
:101C6F00D790002412455994DBEE94004003D380A3
:101C7F0001C3500EC3EF9459EE940250028001C37A
:101C8F00400A900024E475F0DC1209BC124546129C
:101C9F0044DE9000201244D71245461244DE9000D5
:101CAF00231244D71245611244DE9000281244D704
:101CBF001245611244DE9000291244D7900026127B
:101CCF00455994DBEE94004003D38001C3500EC3FB
:101CDF00EF9459EE940250028001C3400A900026FF
:101CEF00E475F0DC1209BC9000261245491244DE5F
:101CFF009000271244D79000261245641244DE90BC
:071D0F00002AEF1207EC228D
:0700030000460000000000B0
:1023F100602503F00236DE4335417616E52B8F2A40
:1024010027408C25B401041580000000000001075D
:09241100860101033C00010114E5
:1028BC00F91208CCFFAEF0F58285F083120C9790DC
:1028CC0006F2E0FBA3E0FAA3E0F922FDEDFFAD0771
:1028DC00AC06E0F9A3E0FAA3E0C9900726F0A3EA5E
:1028EC00F0A3E9F02290001D1207EC900021740176
:1028FC001207EC900016020C3D900014120743FFD7
:10290C007E007D00900011020C3D900004120743E4
:10291C00FE900005120743FDEDFF22E0FBA3E0FA59
:10292C00A3E0240CF9E43AFA02072A9000021207F9
:10293C0043FE9000032290001E120C3DE9229000F1
:10294C001502074374029000150207A7E0FD9000E2
:10295C00031208CCFFAEF0F58285F0832290001DA7
:10296C00020743F9E43AFAED25E0FFEC33FEE92FD8
:10297C00F9EA3EFA22A3E4F0A3F0A3F0A3F022902C
:10298C0000031208CCF58285F08322900001020727
:10299C00439006F2E0FBA3E0FAA3E02290001DEFC7
:1029AC001207ECE49000210207EC90001902074397
:1029BC00FAECFFEAFEEEF0A3EFF022A801AC02ADB8
:1029CC000322F582758300EF0207EC740190001569
:1029DC000207A7FF9006FEE09F9006FDE095F0220F
:1029EC002412F9E43AFAE92DF9EA3CFA2229F9EC35
:1029FC003AA801FCAD032274069000150207EC9076
:102A0C000726E0F9A3E0FAA3E0227E007F07120775
:0B2A1C00049006F22290001A020C3D0C
:104F18007B017A0379F09003F1E0FEA3E0FFF582CC
:054F28008E83020C97CE
:0725B4009006F2EB1228E98A
:1025BB009006F21228CE122A219006F5EB1228E98A
:1025CB00A37401F0A37406F0A3745BF0E4A31229C7
:1025DB0083900702F09006F21228CE1228FF1229E0
:1025EB00371229209006FBEEF0A3EFF0122916907C
:1025FB0006FDEEF0A3EFF09006F51228CEEA494B5C
:10260B0070030227389006FFEB1228E99006F212AE
:10261B0028CE1228FF12299724FA603C046003028B
:10262B00271E9006FBE07002A3E0600302271E90BA
:10263B0006FDE07002A3E09006F5600C122927441A
:10264B00041207DA54FD800A12292744021207DA12
:10265B0054FB1207DA0226D39006F81228CE90000C
:10266B000F120C3D9006FBE0FEA3E0FF7C007D0B00
:10267B0012080E12297A9000061208CCC31229DF19
:10268B00404E9000041208CCD31229DF5042900622
:10269B00F81228CE9000121208CCFF9006FBE0FC3B
:1026AB00A3E0FDC39FEC95F05026A3E0FEA3E0FF53
:1026BB008FF0C006ED25E0FFEC33FEA31228CE8F82
:1026CB00828E83D0E01209BC9007027401F0804324
:1026DB009006F21228CE90001D74031207EC7401C1
:1026EB001229B0C003C002C0019006FBE0FCA3E0BE
:1026FB00FD25E0FFEC33FE9006FF1229A02FF9EA2F
:10270B003EFAEB1228E6A37402F0D001D002D003FC
:10271B00123A57900702E060149006F512292744ED
:0D272B00081207DA9006F81228CE124BE7CC
:01273800227E
:0736DE009006F2EB1228E94F
:1036E500E4A3F0A3F01228CB1229B6FF7E00D394F1
:1036F50002EE9400401E1228FFEF24FEFDEE34FF7B
:10370500FC74FF900721F0A3F012465F9006F5EEDA
:10371500F0A3EFF09006F5E0FCA3E09006F5122982
:10372500BC1228CB1228FF12072AFF1228CB12073A
:103735002A6F60030237EC1229B6FD7C0024FEFFD8
:10374500EC34FFFE1228FF8F828E83120743FE742E
:10375500FF2DF582EC34FFF583120743FDEDFBAA3F
:1037650006E4F9F89006F5E0FEA3E0FFE4FDC312D8
:103775000AC570731228CB1228FF122997120C6DF7
:1037850037A40137A40237BA0337BA0437AC053773
:10379500C20637AC0F37C21037D611000037EC120E
:1037A50028CB900007802212299D9000091228BC81
:1037B50090000F80141228CB90000B800C12299DCD
:1037C50090000D1228BC90000F12295D120C9780F5
:1037D500161228CB122A21EA494B600B1228CB126C
:1037E5002A2174011207DA1228CB1229B6FF7E00AE
:1037F5007D001228FF120CC61228CB900019E40296
:0238050007ECCE
:073A5700900721EB1228E9A2
:103A5E00122969C394027480948050047F128002EC
:103A6E007F24E4900730F0EFFBC3ED9BEC94004015
:103A7E0003023B77900729E0C39F4003023B7790F8
:103A8E0007211228CE900021120743705D122A0BD7
:103A9E0090072AC91228E99007211228D012296905
:103AAE00700A1229422DF9EA3CFA8037900721124A
:103ABE0028CE122969640170081229421229EC805D
:103ACE00229007211228CE1229696402700712294A
:103ADE00422424800B9007211228CE122942246CF6
:103AEE0012296F90072DEB023B529007211228CE20
:103AFE00122969700A1229422DF9EA3CFA80379090
:103B0E0007211228CE122969640170081229421267
:103B1E0029EC80229007211228CE122969640270A6
:103B2E00071229422424800B9007211228CE122935
:103B3E0042246C12296F90072AEB1228E9122A0BE5
:103B4E0090072DC91228E9900729E0FF7E00A312E5
:103B5E0029A0F8AC02AD03A31228CE120704EA493D
:0E3B6E004B60069007307401F0900730E0FFC6
:013B7C002226
:0D4176009006F2EB1228E9A3ECF0A3EDF0A7
:1041830078FB7C067D017BFF7A007903122A1612E5
:1041930028CE12072A9006FBF09006F5E0FCA3E078
:1041A300FDEC9006FDF0A3EDF09006FAE0FDFFE4D0
:1041B300C313FAEF13FBEA9006FFF0AF03A3EFF08C
:1041C300A3EDF09006F2E0FBA3E0FA122905120C2E
:1041D300C69006F21228CEE4122A059006F212289F
:1041E300CE1229101229C77B017A0679FB122A16EF
:1041F3001228CE74071229529006FAE0FF7E00902F
:1042030006F21228CE122910C003C002C001900684
:10421300F21228CE12294A7C00D001D002D0031218
:1042230029F99006F71228CE1207049006FAE0FF48
:104233009006F21228CEEF1229D9C003C002C001A2
:104243009006F21228CE12298BD001D002D003E4BB
:04425300FD020C97C5
:0716E5009006F2EB1228E968
:1016EC009006F21228CE1228FF9000041207431223
:1016FC00291D9006F5EFF07C007E007803CEC31315
:10170C00CE13D8F9FFED540760047E0180027E00F1
:10171C00EE2F9006F6F090071B7401F0A37406F000
:10172C00A374F7F0E4A3F0A3F09006F5E0FFC394E4
:10173C00247480948040030218FE7E007D00900784
:10174C001B1228CE120CC69006F21228CE122905B6
:10175C00120CC69006F21228CE900015E41228FC4A
:10176C00C003C002C0019006F21228CE122910123A
:10177C0029C7D001D002D0037E007F02120704904B
:10178C0006F21228CE1229509006F6E0FF1229100C
:10179C00C003C002C0019006F21228CE900015744E
:1017AC0001120770D001D002D0031229CE9006F29C
:1017BC001228CE1228FF12299764017003FF8002B1
:1017CC007F019006F21228CE1229A8C003C002C0D5
:1017DC00019006F21228CE1228FF12293712074365
:1017EC0090071B1228D79006F5E0900729F0D0013E
:1017FC00D002D003123A579006F6E0FF90071EE095
:10180C00C39F40030218F090071FE0FD7C00C394B7
:10181C0008EC940040030218DE90071EE075F008F7
:10182C00A42DFFEC35F0FE9006F5E0FDC3EF9DEE28
:06183C009C40030218DECF
:1018420090071B1228CE90071FE0FF90071EE0753D
:10185200F008A42FF582E435F0F583120743540112
:10186200900720F060349006F21228CE122910C0A0
:1018720003C002C0019006F21228CE12294AD001FA
:10188200D002D00329122930FE900720E0FDA807DC
:10189200088002C333D8FC4E80369006F21228CE5E
:1018A200122910C003C002C0019006F21228CE1203
:1018B200294AD001D002D00329122930FF90071FF4
:1018C200E0FEA3E0FDA806088002C333D8FCF45F63
:0318D2001207DA20
:1018D50090071FE004F00218139006F21228CE12AA
:1018E50029D790071EE004F00218039006F212288B
:0918F500CE12298BE4FD120C97C0
:0118FE0022C7
:072B8F009006F2EB1228E9A9
:102B9600122981A3F09006F21228CEE41228F1122F
:062BA60029976405704947
:102BAC00122916E4FCFDFB7AFFF9F8C3120AC57072
:102BBC0003D38001C350047F0180027F009006FB89
:102BCC00EFF09006F87401F09006F5F0A37406F09F
:102BDC00A374FBF09006F21228CE1229B6122A0525
:062BEC009006FA7401F0EE
:102BF200022C799006F21228CE1228FF1229169082
:102C020006F8EFF09006F21228CE1229109006F57F
:102C1200EB1228E99006F8E0FFA3E0FEC39F5049BB
:102C22009006F21228CE1228FFEEFD7C007E00787C
:102C320003CEC313CE13D8F92407F582E43EF583FD
:102C4200120743FFED5407FEF8EF088002C313D8C2
:102C5200FC5401FF9006F51228CE9006F9E01229E5
:102C6200CE9006F9E004F080AB9006F21228CE1264
:102C72002A03E49006FAF09006F51228CEEA494BB0
:102C820060269006F21228CE1228FF122937120768
:102C9200439006F51228D79006F8E0900729F090A5
:102CA20006F21228CE123A579006F21228CE1229B4
:102CB2004AFF7E001228FFC003C002C0019006F244
:102CC2001228CE1229101229C7D001D002D0031225
:102CD20007049006F21228CE9006FA122958020C26
:012CE200975A
:072A27009006F2EB1228E912
:102A2E009006F21228CE1228FF1229167C007D0283
:102A3E00120C999006F5EFF07B017A0679F6900765
:102A4E001AEB1228E94A4B70047F0180027F00C303
:102A5E00EF9424748094804003022B8E9006F5E050
:102A6E00FF7E007D0090071A1228CE120CC690062B
:102A7E00F21228CE122905120CC69006F21228CE9A
:102A8E00900015E41228FCC003C002C0019006F2AB
:102A9E001228CE1229101229C7D001D002D0037EDF
:102AAE00007F021207049006F21228CE12295090CF
:102ABE0006F5E0FF122910C003C002C0019006F215
:102ACE001228CE12294AD001D002D0031229CE905C
:102ADE0006F21228CE1229D71228FF122997640364
:102AEE0070047F0380027F029006F21228CE122914
:102AFE00A8C003C002C0019006F21228CE1228FF11
:102B0E00122937122920AD07AC0690071A1228DEBB
:102B1E009006F5E0900729F0D001D002D003123ACA
:102B2E00579006F5E0FF7E009006F21228CE12298D
:102B3E0010C003C002C0019006F21228CE12294A1C
:102B4E007C00D001D002D0031229F990071A122866
:102B5E00CE1207049006F5E0FF9006F21228CE90F2
:102B6E000015EF1207A7C003C002C0019006F212B3
:102B7E0028CE12298BD001D002D003E4FD120C977F
:012B8E002224
:07408C009006F2EB1228E997
:104093001229819006F21228CE74031228F11229F4
:1040A30097640670319006F87402F09006F21228B5
:1040B300CE1228FFE92404F9E43AFA9006F5EB124C
:1040C30028E99006F21228CE1229B6122A05900684
:1040D300F97401F0802F9006F21228CE1228FF9077
:1040E30000061207439006F8F0E92407F9E43AFAC8
:1040F3009006F5EB1228E99006F21228CE122A0355
:10410300E49006F9F09006F51228CEEA494B602AAE
:104113009006F21228CE1228FF122937122920AD59
:1041230007AC069006F51228DE9006F8E090072902
:10413300F09006F21228CE123A579006F21228CEC9
:1041430012294AFF7E001228FFC003C002C001905B
:1041530006F21228CE1229101229C7D001D002D09C
:10416300031207049006F21228CE9006F91229587A
:03417300020C97A4
:0A4335009006F2EB1228E9ED707B10
:10433F009006F21228CE122910C003C002C00190BD
:10434F0006F21228CE12294AFD7C0074FF90072135
:10435F00F0A3F0D001D002D00312465F9006F5EE25
:10436F00F0A3EFF09006F5E0FCA3E09006F512291C
:10437F00BC9006F21228CE122910C003C002C00151
:10438F009006F21228CE12294A7E00D001D002D018
:10439F000329F9EE1229FC7B017A0679F57F0212C7
:0B43AF0007049006F21228CE122950DD
:1043BA009006F21228CE900022120C3DEA494B6078
:1043CA00409006F21228CE900022120C3DC003C083
:1043DA0002C0019006F21228CE12291090071FEB94
:1043EA001228E99006F21228CE12294A900722F0E2
:1043FA00A37413F0A37488F0D001D002D003124939
:02440A002B2263
:10009600020420E86480F8E933E83360110460F074
:1000A600ED33EC337009E8FCE9FDEAFEEBFF2204D0
:1000B60060DED3EB9FEA9EE99DE8C2E78CF0C2F7CB
:1000C60095F0400CE8CCF8E9CDF9EACEFAEBCFFB97
:1000D6001203EB85D0F05804700320D5B3E8047002
:1000E600075002B2D502042A92D5EC0460F7E4CC9C
:1000F600C0E0C398F8603B94186008400DD0E0FB60
:10010600020402E4FBFAC9FC8028E830E406E4C9EC
:10011600FBE4CAFCE830E305E4C9CACBFCE85407B3
:100126006010F8C3E913F9EA13FAEB13FBEC13FCBE
:10013600D8F130F52FC3E49CFCEF9BFFEE9AFEED61
:1001460099FDD0E0FBEF4E4D4C701222DB0302040A
:1001560027EC2CFCEF33FFEE33FEED33FDED30E7FD
:10016600EB020402EF2BFFEE3AFEED39FDD0E0FB89
:1001760050130BBB000302042AED13FDEE13FEEF32
:0801860013FFEC13FC0204025C
:10018E00EC4D6011E8497017ED33EC3304600DE46B
:10019E00FCFFFEFD22E933E8330470F8020420125E
:1001AE0003EB58046009E4CC248150062850090260
:1001BE00042A284003020427C0E0EB4A7044B980A9
:1001CE0006D0E0FB020416EF4E701CBD8008EBFF5C
:1001DE00EAFEE9FD80EBE98DF0A4FEE5F002027780
:1001EE00E9CDF9EAFEEBFFEF89F0A4FCE5F0CE894C
:1001FE00F0A42EFFE435F0CD89F0A42DFEE435F009
:10020E008067EF4E7005BD80D780C3EF8BF0A4AC36
:10021E00F0EE8BF0A42CFCE435F0F8EF8AF0A42C71
:10022E00E5F038FCE433CB8DF0A42CFCE5F03BF884
:10023E00EE8AF0A42CFCE5F038F8E433CF89F0A474
:10024E002CFCE5F038CF3400CE89F0A42FFFE5F07A
:10025E003EFEE433C98DF0A42EFEE5F039CD8AF0D2
:10026E00A42FFFE5F03EFEE43DFD33D0E0FB50074A
:10027E000BBB000F02042AEC2CFCEF33FFEE33FE17
:06028E00ED33FD02040245
:1002940002042AEC5D046005E8590470030204209A
:1002A4001203EB580460F6EC4860F2EC7004FDFEB7
:1002B400FF22C860DB2481C85009C398600250063D
:1002C4000204279850CAF582E9294B4A7005AB828B
:1002D40002041675F0007C1A7880C3EF9BEE9AED49
:1002E40099400DC3EF9BFFEE9AFEED99FDE842F0B5
:1002F400DC23ACF0D0E0FFD0E0FED0E0FDAB822008
:10030400E7101BEB60BAEC2CFCEF33FFEE33FEED91
:1003140033FD020402E803F830E705C0F075F0008D
:10032400EF2FFFEE33FEED33FD40B830E7C280AA75
:1003340074F8CC6480CCC86480C8F58204604FC370
:10034400EB9FF5F0EA9E42F0E99D42F0E89C45F00F
:10035400603C501DE5825FFFE582D313CB5BCBF499
:100364002B5582FB50280ABA002409B900200880C2
:100374001DE5825BFBE582D313CF5FCFF4C3132F5C
:100384005582FF50090EBE00050DBD00010CC3EBE4
:100394009FF5F0EA9E42F0E99D42F0E89C45F0604A
:0903A40007CC4820E701B3EC226C
:1003AD0075F020800E75F010800575F0087D007ECB
:1003BD00007F003392D530D503120AB7EC334010CD
:1003CD00EF33FFEE33FEED33FDEC33FCD5F0ED22D4
:0E03DD00E5F0247EA2D513CC92E7CDCEFF2210
:103807003E9248DA3ECCCCCD3F2AAAAB400000001E
:103817003F8000003F9837F03FB504F33FD744FCA3
:103827003E3172173EB172173F0515913EDE5BD9E7
:10383700D2098002C209EDD2E7F8CD33EC33047028
:103847000BBD800592D502042A02042040FBD31445
:1038570060F2F5F07C3FEE7A00C39496C8948B40F3
:10386700230AC89469C8941A401A0AC89468C89465
:103877001F40110AC8945AC89425400805F07A00D9
:10388700CDC2E7CDC0F09006F8120BE0EA2323C0C3
:10389700E02417F582E43438F583120B8012009D7B
:1038A700ECC0E0EDC0E0EEC0E0EFC0E0120B6490CA
:1038B70006F8120B74120099D0E0FBD0E0FAD0E0C2
:1038C700F9D0E0B2E7F81202979006F8120BE090F1
:1038D700380774031204359006F8120B7412018E20
:1038E700D0E0600F2423F582E43438F583120B808F
:1038F70012009D9006F8120BE0D0E0C3947FFDE420
:103907009400FC1203B27B187A727931783F120166
:103917008E9006F8120B7412009D30090B7BD97A32
:093927005B79DE783E12018E226C
:104CE700900831E0FFA3E0FEA3E0CF90079CF0A37C
:104CF700EEF0A3EFF0900834E0CBF0A3E0CAF0A306
:104D0700E0C9F07F2290079FAD82AC8312072A8DFE
:104D1700828C83F0A309E970010ADFEC900834E084
:0A4D2700FBA3E0FAA3E0F9020DD4AB
:1003EB00E9D2E7C933E833F892D5EDD2E7CD33EC58
:0703FB0033FC5002B2D522D1
:10040200EC30E7100FBF000C0EBE00080DBD00045B
:100412000BEB6014A2D5EB13FCED92E7FD2274FF07
:10042200FCFDFEFF22E480F8A2D574FF13FC7D8060
:03043200E480EF74
:100D6F00E522249CF582E43407F583E005222290E6
:100D7F00079930070390079CE475F001120C1D02D0
:100D8F00072A2000E97F2ED2008018EF540F2490FD
:100D9F00D43440D4FF30040BEF24BFB41A005003F7
:100DAF002461FFE523600215230526E52670020561
:100DBF002530070E900799E475F001120C1DEF0214
:100DCF0007DA024E737403D2078003E4C207F522D9
:100DDF00900799120C34E4F523F525F526E52360E9
:100DEF00077F20120DB280F57524FFC201C200C229
:100DFF0002C203C205C206C208120D7EFF700D307B
:100E0F0007057F00120DC3AF26AE2522B4255FC2A2
:100E1F00D5C204120D7EFF24D0B40A00501A75F00B
:100E2F000A782330D50508B6FF0106C6A426F6209A
:100E3F00D5047002D20380D924CFB41A00EF500426
:100E4F00C2E5D2040210B5D20180C6D20080C0D252
:100E5F000280BCD2D580BAD20580B47F20120DB2E9
:100E6F002002077401B5230040F1120D6FFF120D20
:100E7F00B2020DECD208D2068095120D6FFB120D47
:100E8F006FFA120D6FF94A4B700679B37A117BFF27
:100E9F0020022EE523602A7E008E827583001207C2
:100EAF004360060EEE652470F0C2D5EBC0E0EAC0D9
:100EBF00E0E9C0E0EE121116D0E0F9D0E0FAD0E090
:100ECF00FB12072AFF60AAEBC0E0EAC0E0E9C0E02E
:100EDF00120DB2D0E02401F9D0E03400FAD0E0FBDB
:100EEF00E5240460DCD524D98087D20280A21210B9
:100EFF00F860F7E524700104120482A924600DE55F
:100F0F0024600914F5241211A0EF60F3EA30E70210
:100F1F00F404C3995079EAF425240430E701E4047A
:100F2F00F524800D1210F860C1EA0524252412045F
:100F3F0082EA9007C8F030E701E4252404D52404A1
:100F4F0020050114121116E4C0E01211A09007C879
:100F5F00E0601320E70714F0120D9A802204F0D0FE
:100F6F00E014C0E07F00120D9AE5246007120D9186
:100F7F001524800B300503120D91D0E0020DECD03B
:100F8F00E00480C41210F8609EE5240412048290DD
:100F9F0007C8EAF0E52420050260010424041211B9
:010FAF00162B
:100FB00074FF04C0E01211A0120D9AE5242005026E
:100FC0006003120D91D0E0B524E87F45120DA49086
:100FD00007C8E07F2B30E7047F2DF404C0E0120D3A
:100FE000B2D0E075F00A84C0F0120D9BD0E0120D73
:100FF0009B020DEC791080027908C206C2088008B5
:10100000D2D5790A8004790AC2D5E524047002F5A4
:1010100024E4FAFDFEFF120D6FFC7B082001131281
:101020000D6FFD7B1030000A120D6FFE120D6FFF69
:101030007B20EC3382D592D55013C3E43000069F59
:10104000FFE49EFEE42001039DFDE49CFCE4CBF85C
:10105000C201EC700CCFCECDCCE824F8F870F38050
:1010600017C3EF33FFEE33FEED33FDEC33FCEB3310
:10107000FB994002FB0FD8E9EB300105F8D0E0C442
:1010800048B201C0E00AEC4D4E4F78207B0070C2A0
:10109000EAB5240040BCC0E0121118D0F0D0E02026
:1010A0000104C4C0E0C4B201C0F0120D9BD0F0D561
:1010B000F0EB020DEC120C6D0E89530FF4580E5A22
:1010C0004C0E56420FF84F1000441000490E6F436B
:1010D0001006550F33460F93450EFD4711D3500EA2
:1010E0005E2D0E622E0E852B0E66230E832011BC04
:1010F0002A0E1E4800000E7DE524B4FF0375240669
:10110000120D6FFC120D6FFD120D6FFE120D6FFFB1
:101110009007C10204BF790AA2D520031430050943
:10112000B910020404B9080104A2D5200602500136
:10113000042002689202B523005034C0E07F2030C2
:1011400003197F30A20272067205500F12116FC28E
:1011500002C206C205C2087F30800F300503E9C015
:10116000E0120DB2300503D0E0F9D0E0B523CC3069
:1011700005177F30B9100C120DB27F583004077F6D
:10118000788003B90803120DB23002057F2D020DDD
:10119000B27F202008F87F2B2006F322920280CF16
:1011A0007F00B40700500B24C1F582E43407F583B7
:1011B000E0FF22286E756C6C2900D201120D6F3091
:1011C00001F8C201782330D50108F6020E1E2D5019
:1011D000434958120D6F2403B405004001E49011F7
:1011E000CE93120DA3743A120DA3D20375230402F9
:0211F0000FF4FA
:10043500C0E0EFFBEEFAEDF9ECF812018ED0E0F535
:10044500F0EFFBEEFAEDF9ECF8120B64A3A3A3A30E
:10045500E8C0E0E9C0E0EAC0E0EBC0E0C0F01201AE
:100465008E120B80A3A3A3A312009DD0F0D0E0FBB6
:0D047500D0E0FAD0E0F9D0E0F8D5F0D422C4
:10048200F920E73624F950037907E4F42402FBE566
:1004920082158270021583DBF6E024FB501BE960B3
:1004A20014E4F0E582158270021583E004F0B40AC8
:0D04B20008E4F0D9EE7401F00A22C2D52250
:1004BF00ED33EC3392D5FA602AB4FF33EDC2E77B0C
:1004CF00FF60067A0479E4E4227A0479ED20D504FA
:1004DF007A0479E8224E614E002B494E46002D4991
:1004EF004E4600E47A08F0A3DAFC7B00740722C0C2
:1004FF0083C082ECC0E0EDC0E0EEC0E0EFC0E0EA08
:10050F0075F010A4CAABF075F04DA42BFBE435F0D9
:10051F00FCEA2410FAEB34C5FBEC34D9FCEDC2E74E
:10052F00FF75F056A4F42411C5F0F434C58FF0A470
:10053F002AE5F03BE43CF020E7141205F4D0E0FF8D
:10054F00D0E0FED0E0FDD0E0FC1202978014F4045E
:10055F001205F4D0E0FFD0E0FED0E0FDD0E0FC12B9
:10056F00018ED082D083E0FAEDD2E7CD33EC332485
:10057F0082FBE4C3CF33CFCE33CECD33CD33DBF3DA
:10058F007B0775F00A846004F0A31B0AE5F0F0A363
:10059F008FF0740AA4FFACF08EF0740AA42CFEAC9A
:1005AF00F050010C8DF0740AA42CFDE435F0F0A38B
:0505BF00DBDE740722E1
:1005C4003F8000004120000042C80000447A00003F
:1005D400461C400047C35000497424004B189680C1
:1005E4004CBEBC205A0E1BCA6753C21C749DC5AEB8
:1005F400FB60065407601C2323120622EB54386068
:100604000912060E12061D12018EECF8EDF9EEFA2F
:10061400EFCB22EB12061D80F1543803241C900505
:10062400C4FE93FC0EEE93FD0EEE930ECE93FF22CA
:1047AC00022CE3E493A3F8E493A34003F68001F214
:1047BC0008DFF48029E493A3F85407240CC8C3330E
:1047CC00C4540F4420C8834004F456800146F6DFDD
:1047DC00E4800B0102040810204080902270E47EDB
:1047EC00019360BCA3FF543F30E509541FFEE493D2
:1047FC00A360010ECF54C025E060A840B8E493A399
:10480C00FAE493A3F8E493A3C8C582C8CAC583CAC3
:10481C00F0A3C8C582C8CAC583CADFE9DEE780BE7B
:01241A0000C1
:10063400E709F608DFFA8046E709F208DFFA803EA8
:1006440088828C83E709F0A3DFFA8032E309F60895
:10065400DFFA8078E309F208DFFA807088828C83FD
:10066400E309F0A3DFFA806489828A83E0A3F608B1
:10067400DFFA805889828A83E0A3F208DFFA804C8B
:1006840080D280FA80C680D4806980F28033801062
:1006940080A680EA809A80A880DA80E280CA8033CB
:1006A40089828A83ECFAE493A3C8C582C8CCC58343
:1006B400CCF0A3C8C582C8CCC583CCDFE9DEE78013
:1006C4000D89828A83E493A3F608DFF9ECFAA9F092
:1006D400EDFB2289828A83ECFAE0A3C8C582C8CCE8
:1006E400C583CCF0A3C8C582C8CCC583CCDFEADE01
:1006F400E880DB89828A83E493A3F208DFF980CC63
:1007040088F0EF60010E4E60C388F0ED2402B4045B
:100714000050B9F582EB2402B4040050AF23234502
:060724008223900684739D
:10072A00BB010689828A83E0225002E722BBFE02CD
:09073A00E32289828A83E4932200
:10074300BB010CE58229F582E5833AF583E022506B
:1007530006E92582F8E622BBFE06E92582F8E222B5
:0D076300E58229F582E5833AF583E49322CF
:10077000BB0111F8E58229F582E5833AF583E0C8EB
:1007800028F0E8225009C58229F8C58226C622BB76
:10079000FE0DC58229F8E2C5822582F2E58222EAB1
:0707A0002583F583E9932294
:1007A700BB010FF8E58229F582E5833AF583E02856
:1007B700F0225009C58229F8E58226F622BBFE09F8
:1007C700C58229F8E22582F222F8EA2583F583E932
:0307D70093282242
:1007DA00BB010689828A83F0225002F722BBFE01FE
:0207EA00F322F8
:1007EC00F8BB010DE58229F582E5833AF583E8F043
:1007FC00225006E92582C8F622BBFE05E92582C8EF
:02080C00F222D6
:10080E00EF8DF0A4A8F0CF8CF0A428CE8DF0A42EFE
:02081E00FE22B8
:10082000BC000BBE0029EF8DF084FFADF022E4CCBC
:10083000F875F008EF2FFFEE33FEEC33FCEE9DEC85
:10084000984005FCEE9DFE0FD5F0E9E4CEFD22EDCB
:10085000F8F5F0EE8420D21CFEADF075F008EF2F15
:10086000FFED33FD4007985006D5F0F222C398FD06
:050870000FD5F0EA22A3
:10087500C5F0F8A3E028F0C5F0F8E582158270020E
:060885001583E038F022AB
:10088B00A3F8E0C5F025F0F0E58215827002158320
:06089B00E0C838F0E8227D
:1008A100BB010A89828A83E0F5F0A3E02250068722
:1008B100F009E71922BBFE07E3F5F009E3192289E4
:0B08C100828A83E493F5F07401932217
:1008CC00BB0110E58229F582E5833AF583E0F5F06A
:1008DC00A3E0225009E92582F886F008E622BBFE47
:1008EC000AE92582F8E2F5F008E222E5832AF5838D
:0808FC00E993F5F0A3E9932252
:10090400BB010FF8E58229F582E5833AF583E80215
:10091400088B5011C58229F808C5F026C6F5F018D1
:10092400C58236C622BBFE15C58229F808E2C5F089
:1009340025F0F218E2C5823582F2E58222E5832AA7
:0C094400F583E993F5F0A3E993C5F022D8
:10095000BB010DC58229C582C5833AC583020875CE
:100960005011C58229F808E5F026F618F5F0E58261
:1009700036F622BBFE11C58229F808E225F0F5F013
:10098000F218E23582F222F8E58229F582E5832A1F
:0D099000F58374019325F0F5F0E49338220F
:10099D00BB010A89828A83F0E5F0A3F0225006F7A5
:0F09AD0009A7F01922BBFE06F3E5F009F31922A2
:1009BC00F8BB0111E58229F582E5833AF583E8F06D
:1009CC00E5F0A3F0225009E92582C8F608A6F0222A
:0D09DC00BBFE09E92582C8F2E5F008F22211
:1009E90075F008758200EF2FFFEE33FECD33CDCCC5
:1009F90033CCC58233C5829BED9AEC99E582984048
:100A09000CF582EE9BFEED9AFDEC99FC0FD5F0D624
:100A1900E4CEFBE4CDFAE4CCF9A88222B800C1B94E
:100A29000059BA002DEC8BF084CFCECDFCE5F0CB8C
:100A3900F97818EF2FFFEE33FEED33FDEC33FCEBC5
:100A490033FB10D703994004EB99FB0FD8E5E4F980
:100A5900FA227818EF2FFFEE33FEED33FDEC33FC6D
:100A6900C933C910D7059BE99A4007EC9BFCE99A61
:100A7900F90FD8E0E4C9FAE4CCFB2275F010EF2FA6
:100A8900FFEE33FEED33FDCC33CCC833C810D707A6
:100A99009BEC9AE899400AED9BFDEC9AFCE899F8E1
:0E0AA9000FD5F0DAE4CDFBE4CCFAE4C8F92274
:0E0AB700C3E49FFFE49EFEE49DFDE49CFC2250
:100AC500EB9FF5F0EA9E42F0E99D42F0E89C45F087
:010AD50022FE
:100AD600BB010789828A83020CFE5005E9F8020CE5
:100AE600F2BBFE05E9F8020D0A89828A83020B64CD
:100AF600BB010DE58229F582E5833AF583020CFEFA
:100B06005007E92582F8020CF2BBFE07E92582F8B8
:100B1600020D0AE58229F582E5833AF583020B6424
:100B2600BB010789828A83020BE05005E9F8020DB2
:0A0B360030BBFE05E9F8020D3C2279
:100B4000BB010DE58229F582E5833AF583020BE0CE
:100B50005007E92582F8020D30BBFE07E92582F82F
:040B6000020D3C2224
:100B6400E493FC740193FD740293FE740393FF22D7
:0C0B7400E0F8A3E0F9A3E0FAA3E0FB2204
:100B8000E493F8740193F9740293FA740393FB22CB
:100B9000BB010789828A83020B745005E9F8020DB4
:100BA00016BBFE05E9F8020D2389828A83020B80B9
:100BB000BB010DE58229F582E5833AF583020B74CA
:100BC0005007E92582F8020D16BBFE07E92582F8D9
:100BD000020D23E58229F582E5833AF583020B8035
:0C0BE000ECF0A3EDF0A3EEF0A3EFF02288
:100BEC00A8828583F0D083D082120C03120C0312DE
:100BFC000C03120C03E473E493A3C583C5F0C58303
:100C0C00C8C582C8F0A3C583C5F0C583C8C582C852
:010C1C0022B5
:100C1D00F8E0FBA3A3E0F925F0F0E5821582700260
:070C2D001583E0FA38F02204
:090C3400EBF0A3EAF0A3E9F022C1
:100C3D00BB010DE58229F582E5833AF583020D515D
:100C4D005007E92582F8020D48BBFE07E92582F819
:100C5D00020D5AE58229F582E5833AF583020D638B
:100C6D00D083D082F8E4937012740193700DA3A316
:100C7D0093F8740193F5828883E47374029368602A
:060C8D00EFA3A3A380DF2A
:060C93008A838982E473EC
:100C9900EC8EF0A4CCC5F0CCCDF8EFA4CEC5F02DE8
:100CA900FDE43CFCE8A42EC8C5F03DFDE43CFCEFA6
:0D0CB900A4FFE5F028FEE43DFDE43CFC2234
:104E7300EFB40A07740D124E7E740A309811A89984
:104E8300B8130CC2983098FDA899C298B811F6309F
:074E930099FDC299F5992277
:100CC600EF4E6012EF60010EEDBB010B89828A8345
:100CD600F0A3DFFCDEFA2289F05007F709DFFCA952
:0C0CE600F022BBFEFCF309DFFCA9F022A9
:0C0CF200E6FC08E6FD08E6FE08E6FF222E
:0C0CFE00E0FCA3E0FDA3E0FEA3E0FF2269
:0C0D0A00E2FC08E2FD08E2FE08E2FF2225
:0D0D1600E6FB08E6F908E6FA08E6CBF8224D
:0D0D2300E2FB08E2F908E2FA08E2CBF82250
:0C0D3000ECF608EDF608EEF608EFF622EF
:0C0D3C00ECF208EDF208EEF208EFF222F3
:090D4800E6FB08E6FA08E6F922D0
:090D5100E0FBA3E0FAA3E0F922A3
:090D5A00E2FB08E2FA08E2F922CA
:0C0D6300E493FB740193FA740293F922EC
:00000001FF
