:10000000024E808F828E83E493FF2202263C7B0186
:100010007A0479A59004A6E0FEA3E0FFF5828E8322
:10002000020D5F02576B900568EEF0A3EFF01253DC
:100030000975C50390056812565975C65A75C6A547
:1000400002581F0251DF90054CEBF0A3EAF0A3E940
:10005000F0AD07AC0690054C125647EA494B602AB2
:1000600090054F12566360220DEDAE0470010C1422
:10007000FF12000390054CE0FBA3E475F0011208A9
:0E0080008BA9F0FAEF1207DA80D62202524462
:10009300024A84020420E86480F8E933E8336011FB
:1000A3000460F0ED33EC337009E8FCE9FDEAFEEBA4
:1000B300FF220460DED3EB9FEA9EE99DE8C2E78C52
:1000C300F0C2F795F0400CE8CCF8E9CDF9EACEFAA6
:1000D300EBCFFB1203EB85D0F05804700320D5B3AC
:1000E300E80470075002B2D502042A92D5EC0460EA
:1000F300F7E4CCC0E0C398F8603B94186008400D67
:10010300D0E0FB020402E4FBFAC9FC8028E830E4F7
:1001130006E4C9FBE4CAFCE830E305E4C9CACBFC46
:10012300E854076010F8C3E913F9EA13FAEB13FB79
:10013300EC13FCD8F130F52FC3E49CFCEF9BFFEEEE
:100143009AFEED99FDD0E0FBEF4E4D4C701222DB91
:1001530003020427EC2CFCEF33FFEE33FEED33FDFB
:10016300ED30E7EB020402EF2BFFEE3AFEED39FD33
:10017300D0E0FB50130BBB000302042AED13FDEE8A
:1001830013FEEF13FFEC13FC020402EC4D6011E8C5
:10019300497017ED33EC3304600DE4FCFFFEFD22E0
:1001A300E933E8330470F80204201203EB580460C7
:1001B30009E4CC2481500628500902042A2840036C
:1001C300020427C0E0EB4A7044B98006D0E0FB028A
:1001D3000416EF4E701CBD8008EBFFEAFEE9FD80BC
:1001E300EBE98DF0A4FEE5F0020277E9CDF9EAFE32
:1001F300EBFFEF89F0A4FCE5F0CE89F0A42EFFE439
:1002030035F0CD89F0A42DFEE435F08067EF4E7014
:1002130005BD80D780C3EF8BF0A4ACF0EE8BF0A4C8
:100223002CFCE435F0F8EF8AF0A42CE5F038FCE47C
:1002330033CB8DF0A42CFCE5F03BF8EE8AF0A42C34
:10024300FCE5F038F8E433CF89F0A42CFCE5F03872
:10025300CF3400CE89F0A42FFFE5F03EFEE433C98E
:100263008DF0A42EFEE5F039CD8AF0A42FFFE5F042
:100273003EFEE43DFD33D0E0FB50070BBB000F0215
:10028300042AEC2CFCEF33FFEE33FEED33FD0204C6
:100293000202042AEC5D046005E8590470030204B9
:1002A300201203EB580460F6EC4860F2EC7004FD96
:1002B300FEFF22C860DB2481C85009C39860025046
:1002C300060204279850CAF582E9294B4A7005AB08
:1002D3008202041675F0007C1A7880C3EF9BEE9AB5
:1002E300ED99400DC3EF9BFFEE9AFEED99FDE842B9
:1002F300F0DC23ACF0D0E0FFD0E0FED0E0FDAB8239
:1003030020E7101BEB60BAEC2CFCEF33FFEE33FE5F
:10031300ED33FD020402E803F830E705C0F075F0A1
:1003230000EF2FFFEE33FEED33FD40B830E7C28020
:10033300AA74F8CC6480CCC86480C8F58204604F8A
:10034300C3EB9FF5F0EA9E42F0E99D42F0E89C453D
:10035300F0603C501DE5825FFFE582D313CB5BCB9E
:10036300F42B5582FB50280ABA002409B90020084F
:10037300801DE5825BFBE582D313CF5FCFF4C3130C
:100383002F5582FF50090EBE00050DBD00010CC3A1
:10039300EB9FF5F0EA9E42F0E99D42F0E89C45F0C0
:1003A3006007CC4820E701B3EC2275F020800E757E
:1003B300F010800575F0087D007E007F003392D534
:1003C30030D503120AB7EC334010EF33FFEE33FEA0
:1003D300ED33FDEC33FCD5F0ED22E5F0247EA2D520
:1003E30013CC92E7CDCEFF22E9D2E7C933E833F845
:1003F30092D5EDD2E7CD33EC33FC5002B2D522ECEB
:1004030030E7100FBF000C0EBE00080DBD00040B3B
:10041300EB6014A2D5EB13FCED92E7FD2274FFFC15
:10042300FDFEFF22E480F8A2D574FF13FC7D80E477
:1004330080EFC0E0EFFBEEFAEDF9ECF812018ED09D
:10044300E0F5F0EFFBEEFAEDF9ECF8120B64A3A381
:10045300A3A3E8C0E0E9C0E0EAC0E0EBC0E0C0F07D
:1004630012018E120B80A3A3A3A312009DD0F0D080
:10047300E0FBD0E0FAD0E0F9D0E0F8D5F0D422F9EF
:1004830020E73624F950037907E4F42402FBE582DC
:10049300158270021583DBF6E024FB501BE9601420
:1004A300E4F0E582158270021583E004F0B40A08D3
:1004B300E4F0D9EE7401F00A22C2D522ED33EC3315
:1004C30092D5FA602AB4FF33EDC2E77BFF60067A68
:1004D3000479E4E4227A0479ED20D5047A0479E8F6
:1004E300224E614E002B494E46002D494E4600E4F4
:1004F3007A08F0A3DAFC7B00740722C083C082EC85
:10050300C0E0EDC0E0EEC0E0EFC0E0EA75F010A49B
:10051300CAABF075F04DA42BFBE435F0FCEA2410D4
:10052300FAEB34C5FBEC34D9FCEDC2E7FF75F056AA
:10053300A4F42411C5F0F434C58FF0A42AE5F03BEC
:10054300E43CF020E7141205F4D0E0FFD0E0FED045
:10055300E0FDD0E0FC1202978014F4041205F4D0FD
:10056300E0FFD0E0FED0E0FDD0E0FC12018ED082AF
:10057300D083E0FAEDD2E7CD33EC332482FBE4C33E
:10058300CF33CFCE33CECD33CD33DBF37B0775F013
:100593000A846004F0A31B0AE5F0F0A38FF0740A49
:1005A300A4FFACF08EF0740AA42CFEACF050010C46
:1005B3008DF0740AA42CFDE435F0F0A3DBDE7407A0
:1005C300223F8000004120000042C80000447A001E
:1005D30000461C400047C35000497424004B189642
:1005E300804CBEBC205A0E1BCA6753C21C749DC5E7
:1005F300AEFB60065407601C2323120622EB54381B
:10060300600912060E12061D12018EECF8EDF9EECA
:10061300FAEFCB22EB12061D80F1543803241C9011
:1006230005C4FE93FC0EEE93FD0EEE930ECE93FFE8
:1006330022E709F608DFFA8046E709F208DFFA80C5
:100643003E88828C83E709F0A3DFFA8032E309F660
:1006530008DFFA8078E309F208DFFA807088828C79
:1006630083E309F0A3DFFA806489828A83E0A3F637
:1006730008DFFA805889828A83E0A3F208DFFA80D0
:100683004C80D280FA80C680D4806980F280338027
:100693001080A680EA809A80A880DA80E280CA80EF
:1006A3003389828A83ECFAE493A3C8C582C8CCC594
:1006B30083CCF0A3C8C582C8CCC583CCDFE9DEE711
:1006C300800D89828A83E493A3F608DFF9ECFAA903
:1006D300F0EDFB2289828A83ECFAE0A3C8C582C8C5
:1006E300CCC583CCF0A3C8C582C8CCC583CCDFEA14
:1006F300DEE880DB89828A83E493A3F208DFF98052
:10070300CC88F0EF60010E4E60C388F0ED2402B494
:10071300040050B9F582EB2402B4040050AF232344
:1007230045822390068473BB010689828A83E02273
:100733005002E722BBFE02E32289828A83E49322EA
:10074300BB010CE58229F582E5833AF583E022506B
:1007530006E92582F8E622BBFE06E92582F8E222B5
:10076300E58229F582E5833AF583E49322BB0111FF
:10077300F8E58229F582E5833AF583E0C828F0E8B5
:10078300225009C58229F8C58226C622BBFE0DC5A3
:100793008229F8E2C5822582F2E58222EA2583F5E1
:1007A30083E99322BB010FF8E58229F582E5833AB9
:1007B300F583E028F0225009C58229F8E58226F660
:1007C30022BBFE09C58229F8E22582F222F8EA2536
:1007D30083F583E9932822BB010689828A83F02269
:1007E3005002F722BBFE01F322F8BB010DE582297B
:1007F300F582E5833AF583E8F0225006E92582C8BD
:10080300F622BBFE05E92582C8F222EF8DF0A4A8EB
:10081300F0CF8CF0A428CE8DF0A42EFE22BC000BCA
:10082300BE0029EF8DF084FFADF022E4CCF875F023
:1008330008EF2FFFEE33FEEC33FCEE9DEC98400502
:10084300FCEE9DFE0FD5F0E9E4CEFD22EDF8F5F0C8
:10085300EE8420D21CFEADF075F008EF2FFFED33D0
:10086300FD4007985006D5F0F222C398FD0FD5F04E
:10087300EA22C5F0F8A3E028F0C5F0F8E582158276
:1008830070021583E038F022A3F8E0C5F025F0F0FC
:10089300E582158270021583E0C838F0E822BB01B7
:1008A3000A89828A83E0F5F0A3E022500687F009E3
:1008B300E71922BBFE07E3F5F009E3192289828ACF
:1008C30083E493F5F074019322BB0110E58229F5CB
:1008D30082E5833AF583E0F5F0A3E0225009E925A8
:1008E30082F886F008E622BBFE0AE92582F8E2F5E3
:1008F300F008E222E5832AF583E993F5F0A3E9936F
:1009030022BB010FF8E58229F582E5833AF583E8F6
:1009130002088B5011C58229F808C5F026C6F5F0E8
:1009230018C58236C622BBFE15C58229F808E2C562
:10093300F025F0F218E2C5823582F2E58222E583E2
:100943002AF583E993F5F0A3E993C5F022BB010DE2
:10095300C58229C582C5833AC5830208755011C56E
:100963008229F808E5F026F618F5F0E58236F62236
:10097300BBFE11C58229F808E225F0F5F0F218E272
:100983003582F222F8E58229F582E5832AF583741C
:10099300019325F0F5F0E4933822BB010A89828A9A
:1009A30083F0E5F0A3F0225006F709A7F01922BB64
:1009B300FE06F3E5F009F31922F8BB0111E58229DC
:1009C300F582E5833AF583E8F0E5F0A3F0225009D8
:1009D300E92582C8F608A6F022BBFE09E92582C8EC
:1009E300F2E5F008F22275F008758200EF2FFFEEB2
:1009F30033FECD33CDCC33CCC58233C5829BED9A48
:100A0300EC99E58298400CF582EE9BFEED9AFDECA5
:100A130099FC0FD5F0D6E4CEFBE4CDFAE4CCF9A8EB
:100A23008222B800C1B90059BA002DEC8BF084CFF3
:100A3300CECDFCE5F0CBF97818EF2FFFEE33FEEDCA
:100A430033FDEC33FCEB33FB10D703994004EB99F4
:100A5300FB0FD8E5E4F9FA227818EF2FFFEE33FE07
:100A6300ED33FDEC33FCC933C910D7059BE99A403C
:100A730007EC9BFCE99AF90FD8E0E4C9FAE4CCFB54
:100A83002275F010EF2FFFEE33FEED33FDCC33CCA8
:100A9300C833C810D7079BEC9AE899400AED9BFD31
:100AA300EC9AFCE899F80FD5F0DAE4CDFBE4CCFA44
:100AB300E4C8F922C3E49FFFE49EFEE49DFDE49CA9
:100AC300FC22EB9FF5F0EA9E42F0E99D42F0E89CA0
:100AD30045F022BB010789828A83020F685005E92A
:100AE300F8020F5CBBFE05E9F8020F7489828A8362
:100AF300020B64BB010DE58229F582E5833AF58398
:100B0300020F685007E92582F8020F5CBBFE07E974
:100B13002582F8020F74E58229F582E5833AF5838D
:100B2300020B64BB010789828A83020BE05005E94B
:100B3300F8020F9ABBFE05E9F8020FA622BB010DCE
:100B4300E58229F582E5833AF583020BE05007E954
:100B53002582F8020F9ABBFE07E92582F8020FA649
:100B630022E493FC740193FD740293FE740393FFD8
:100B730022E0F8A3E0F9A3E0FAA3E0FB22E493F870
:100B8300740193F9740293FA740393FB22BB010774
:100B930089828A83020B745005E9F8020F80BBFE39
:100BA30005E9F8020F8D89828A83020B80BB010D50
:100BB300E58229F582E5833AF583020B745007E950
:100BC3002582F8020F80BBFE07E92582F8020F8D0C
:100BD300E58229F582E5833AF583020B80ECF0A3E5
:100BE300EDF0A3EEF0A3EFF022A8828583F0D0838B
:100BF300D082120C03120C03120C03120C03E473C5
:100C0300E493A3C583C5F0C583C8C582C8F0A3C553
:100C130083C5F0C583C8C582C822F8E0FBA3A3E05F
:100C2300F925F0F0E582158270021583E0FA38F0B9
:100C330022EBF0A3EAF0A3E9F022BB010789828A41
:100C430083020FC45005E9F8020FB2BBFE05E9F8B1
:100C5300020FCD89828A83020FDFBB011A89828A40
:100C630083D0F0D0E0F8D0E0F9D0E0FAD0E0FBE8B0
:100C7300C0E0C0F0020C345016E9F8D083D082D023
:100C8300E0F9D0E0FAD0E0FBC082C083020FBBBB27
:100C9300FE16E9F8D083D082D0E0F9D0E0FAD0E0B4
:100CA300FBC082C083020FD622BB010DE58229F56A
:100CB30082E5833AF583020FC45007E92582F802DF
:100CC3000FB2BBFE07E92582F8020FCDE58229F5B5
:100CD30082E5833AF583020FDFBB0120E58229F524
:100CE30082E5833AF583D0F0D0E0F8D0E0F9D0E0A4
:100CF300FAD0E0FBE8C0E0C0F0020C345018E9255C
:100D030082F8D083D082D0E0F9D0E0FAD0E0FBC003
:100D130082C083020FBBBBFE18E92582F8D083D0C3
:100D230082D0E0F9D0E0FAD0E0FBC082C083020FAA
:100D3300D622D083D082F8E4937012740193700D9D
:100D4300A3A393F8740193F5828883E473740293E5
:100D53006860EFA3A3A380DF8A838982E473EC8EA8
:100D6300F0A4CCC5F0CCCDF8EFA4CEC5F02DFDE4B6
:100D73003CFCE8A42EC8C5F03DFDE43CFCEFA4FF19
:100D8300E5F028FEE43DFDE43CFC22EF4E6012EF6B
:100D930060010EEDBB010B89828A83F0A3DFFCDEC9
:100DA300FA2289F05007F709DFFCA9F022BBFEFC09
:100DB300F309DFFCA9F022E709F608DFFA807BE9F3
:100DC300D39850F3E92FF9E82FF819E718F6DFFA6B
:100DD3008068E709F208DFFA806080E388828C8309
:100DE300E709F0A3DFFA8052E309F608DFFA804A45
:100DF300E9D398500EE92FF9E82FF819E318F2DF39
:100E0300FA8037E309F208DFFA802F88828C83E3C4
:100E130009F0A3DFFA802389828A83E0A3F608DF3F
:100E2300FA801789828A83E493A3F208DFF9800AA0
:100E330089828A83E0A3F208DFFA020ECC80B180B4
:100E4300F980A580C680DC80F18073801080838068
:100E5300E98087808780D980E180BC8073D3E9985B
:100E6300EA9C5039E92FF582EA3BF583E82FF8EC49
:100E73003BFC0582D5820215831582E493C8C582A3
:100E8300C8CCC583CC0582D5820215831582F0C8F0
:100E9300C582C8CCC583CCDFD9DED7802E89828AB0
:100EA30083ECFAE493A3C8C582C8CCC583CCF0A372
:100EB300C8C582C8CCC583CCDFE9DEE7800D898253
:100EC3008A83E493A3F608DFF9ECFAA9F0EDFB2299
:100ED300D3E998EA9C5038E92FF582EA3BF583E899
:100EE3002FF8EC3BFC0582D5820215831582E0C8FE
:100EF300C582C8CCC583CC0582D5820215831582F1
:100F0300F0C8C582C8CCC583CCDFDADED880BC8903
:100F1300828A83ECFAE0A3C8C582C8CCC583CCF02F
:100F2300A3C8C582C8CCC583CCDFEADEE8809C8039
:100F33009888F08E83EF60010E4E608DED2402B42D
:100F430004005085F582EB2402B4040050E123230E
:100F53004582AB8323900E4073E6FC08E6FD08E66A
:100F6300FE08E6FF22E0FCA3E0FDA3E0FEA3E0FF12
:100F730022E2FC08E2FD08E2FE08E2FF22E6FB08AB
:100F8300E6F908E6FA08E6CBF822E2FB08E2F908FC
:100F9300E2FA08E2CBF822ECF608EDF608EEF608E2
:100FA300EFF622ECF208EDF208EEF208EFF222E699
:100FB300FB08E6FA08E6F922EBF608EAF608E9F692
:100FC30022E0FBA3E0FAA3E0F922E2FB08E2FA083D
:100FD300E2F922EBF208EAF208E9F222E493FB7465
:100FE3000193FA740293F922E52224A3F582E434EF
:100FF30006F583E00522229006A03007039006A39E
:10100300E475F001120C1D02072A2000E97F2ED29D
:10101300008018EF540F2490D43440D4FF30040BD5
:10102300EF24BFB41A0050032461FFE523600215C7
:10103300230526E5267002052530070E9006A0E459
:1010430075F001120C1DEF0207DA0257937403D2F5
:10105300078003E4C207F5229006A0120C34E4F5DE
:1010630023F525F526E52360077F2012102E80F552
:101073007524FFC201C200C202C203C205C206C276
:1010830008120FFAFF700D3007057F0012103FAFF3
:1010930026AE2522B4255FC2D5C204120FFAFF245F
:1010A300D0B40A00501A75F00A782330D50508B673
:1010B300FF0106C6A426F620D5047002D20380D908
:1010C30024CFB41A00EF5004C2E5D204021331D284
:1010D3000180C6D20080C0D20280BCD2D580BAD2F1
:1010E3000580B47F2012102E2002077401B523005F
:1010F30040F1120FEBFF12102E021068D208D20635
:101103008095120FEBFB120FEBFA120FEBF94A4B20
:101113007006792F7A147BFF20022EE523602A7E46
:10112300008E8275830012074360060EEE652470FD
:10113300F0C2D5EBC0E0EAC0E0E9C0E0EE121392E2
:10114300D0E0F9D0E0FAD0E0FB12072AFF60AAEB67
:10115300C0E0EAC0E0E9C0E012102ED0E02401F9BB
:10116300D0E03400FAD0E0FBE5240460DCD524D9D8
:101173008087D20280A212137460F7E52470010401
:10118300120482A924600DE524600914F5241214C5
:101193001CEF60F3EA30E702F404C3995079EAF4F0
:1011A30025240430E701E404F524800D1213746050
:1011B300C1EA05242524120482EA9006CFF030E721
:1011C30001E4252404D5240420050114121392E418
:1011D300C0E012141C9006CFE0601320E70714F060
:1011E300121016802204F0D0E014C0E07F00121029
:1011F30016E524600712100D1524800B3005031229
:10120300100DD0E0021068D0E00480C412137460A3
:101213009EE524041204829006CFEAF0E52420051B
:1012230002600104240412139274FF04C0E0121438
:101233001C121016E524200502600312100DD0E0E5
:10124300B524E87F451210209006CFE07F2B30E7CE
:10125300047F2DF404C0E012102ED0E075F00A8450
:10126300C0F0121017D0E012101702106879108026
:10127300027908C206C2088008D2D5790A800479A7
:101283000AC2D5E524047002F524E4FAFDFEFF1238
:101293000FEBFC7B08200113120FEBFD7B103000DA
:1012A3000A120FEBFE120FEBFF7B20EC3382D59279
:1012B300D55013C3E43000069FFFE49EFEE42001F3
:1012C300039DFDE49CFCE4CBF8C201EC700CCFCE93
:1012D300CDCCE824F8F870F38017C3EF33FFEE3377
:1012E300FEED33FDEC33FCEB33FB994002FB0FD8EF
:1012F300E9EB300105F8D0E0C448B201C0E00AECE4
:101303004D4E4F78207B0070C2EAB5240040BCC02C
:10131300E0121394D0F0D0E0200104C4C0E0C4B2C2
:1013230001C0F0121017D0F0D5F0EB021068120DC7
:101333003511055312705810D64C10D24212744F07
:10134300127C44127C4910EB4312825511AF4612B2
:101353000F45117947144F5010DA2D10DE2E11016D
:101363002B10E22310FF2014382A109A4800001093
:10137300F9E524B4FF03752406120FEBFC120FEBFF
:10138300FD120FEBFE120FEBFF9006C80204BF79AC
:101393000AA2D5200314300509B910020404B908C0
:1013A3000104A2D52006025001042002689202B56E
:1013B30023005034C0E07F203003197F30A2027233
:1013C300067205500F1213EBC202C206C205C20811
:1013D3007F30800F300503E9C0E012102E30050383
:1013E300D0E0F9D0E0B523CC3005177F30B9100C2D
:1013F30012102E7F583004077F788003B908031238
:10140300102E3002057F2D02102E7F202008F87F3A
:101413002B2006F322920280CF7F00B40700500BEB
:1014230024C8F582E43406F583E0FF22286E756C48
:101433006C2900D201120FEB3001F8C2017823307E
:10144300D50108F602109A2D50434958120FEB2488
:1014530003B405004001E490144A9312101F743A38
:1014630012101FD20375230402127090054AEBF089
:10147300A3EAF0A3E9F090054A124395EA494B70B9
:1014830003021795A3124395EA494B70030217957C
:1014930090054DA3A3E012440D9001191243E27885
:1014A3003D12018EC004C005C006C00790054D1251
:1014B300439512440D9001181243E2784112018EB4
:1014C300D003D002D001D00012445A1243959000A9
:1014D3000412446112439512440D90011B124426D9
:1014E30079207841120297C004C005C006C0079056
:1014F300054D12439512440D90011A1243E27841AF
:1015030012018ED003D002D001D00012445A1243EC
:1015130095900018124468EC4D4E4F602A90054A8E
:10152300124395900004120BB0C000C001C002C06A
:101533000390054A124395124432D003D002D001DE
:10154300D0001202978005E4FFFEFDFC90054A12CD
:10155300439590000812446112439512440D900183
:101563001D12074354F0FFC4540F124429F9784065
:1015730012018EC004C005C006C00790054D12437A
:101583009512440D90011C124426F9784212018EE3
:10159300D003D002D001D00012009DC004C005C00A
:1015A30006C00790054D12439512440D90011D127C
:1015B3000743540F1243E5783D12018ED003D00246
:1015C300D001D00012445A124395120B2690054ABB
:1015D300124395124432EC4D4E4F603190054AA3AD
:1015E300A3E0120AD67466FBFAF9783F12018EC0A3
:1015F30004C005C006C00790054A12439512443241
:10160300D003D002D001D0001202978005E4FFFE80
:10161300FDFC90054A124395900014120B401244AE
:1016230040EC4D4E4F603190054A124395124440B1
:10163300C004C005C006C00790054A124395124472
:1016430032D003D002D001D000120297E4FBFA7922
:10165300C8784212018E8005E4FFFEFDFC90054A26
:1016630012439590001C1244611243951243CCD34C
:101673009440EE940190054DE0FB402512439712F0
:1016830043CCFFAC06E41203B2123E407B7B7A14D8
:10169300790C78C212018E7B857A6B7976784380D8
:1016A300201243971243CCFFAC06E41203B27BC86B
:1016B3007A9879BB78BD12018E7B127A83799178FF
:1016C3004212009D90054A12439590000C12446803
:1016D300E4FBFA7948784312033460224020124332
:1016E3009EAEF044081243C5EF54FB1243B190057C
:1016F3004A1243F824221243AA54FE021792900579
:101703004A124395124432797012445250251243BF
:101713009EAEF054F71243C5EF44041243B1EF44B5
:10172300101243C590054A1243F824221243AA44D7
:1017330001805C90054A1243F824221243AA54FE06
:1017430012443812439EAEF044021243C5EF54F7DD
:101753001243C5EF54FB1243C590054A12439590BB
:1017630000201208CC30E408E91243A84420800585
:1017730012439E54DF12443890054A124395120ACD
:10178300D67920124452600A400812439E54EF1245
:1017930044382290054DEDF090054AEB121A3212AF
:1017A3001B0290054EEBF0A3EAF0E9121A1C121A81
:1017B30057121AD4500B121A1E121A57121A6A8091
:1017C30072121A1E121A57121AABC333CE33CED863
:1017D300F9121A9DC004C005C006C007121A1E12D2
:1017E3001A57121AB6C333CE33CED8F9121A9DD074
:1017F30003D002D001D000121A5DC004C005C00698
:10180300C007121A1E121A57121A7ED003D002D022
:1018130001D000EB121A5FC004C005C006C0071256
:101823001A1E121A57121AFAD003D002D001D0008E
:10183300121AE8900551EEF0EF121A1C121AA59035
:10184300054D121C1B120AF6900553EEF0A3EFF0A0
:10185300E4A3F0A3F090054E121A2190000D120894
:10186300CCFF900557E5F0F0A3EFF090000F1208BE
:10187300CCFF900559E5F0F0A3EF121A1D121AA53B
:1018830090054D121A43FFC3900552E09F900551F6
:10189300E095F05003021A1B121B18900551E0FC4F
:1018A300A3E0FDD39FEC95F04003021A1BA3E0FED7
:1018B300A3E0FFBE100DBF200A90077BECF0A3ED61
:1018C300F0800EBE100BBF2108900779ECF0A3ED5A
:1018D300F0EF64227003EE641060030219ADED644F
:1018E300F14C60030219AD121B3D7003A3E06F704E
:1018F30064121B977003A3E06F705A9006F3F0A372
:10190300F090054E121A2190000C12074354027EE8
:101913000060047F0680027F07900555EEF0FCA36C
:10192300EFF0FD121A1E12548490054EE0F9A3E065
:10193300FAA3E0900564C9121A32A3E4F0A3740C6D
:10194300121A1D7D127C10124DEE121AE07458F01B
:10195300A374B2804F121B3D7003A3E06F601C128F
:101963001B977003A3E06F60129006F3E4F0740317
:10197300121ADE7458F0A374D68029121B3D70032B
:10198300A3E06F9006F3600FE4F0A304121ADF7470
:1019930058F0A374FD800DE4F07402121ADE74593A
:1019A300F0A37417121ACC125090900553E06410F0
:1019B3007004A3E064237042900551E07004A3E037
:1019C30064F070369006F3F0A3F090055B120BEC15
:1019D30000000000121B5B7405F0745B121BAC74F7
:1019E30004121A1D7D207C10124DEE121AE0745958
:1019F300F0A37435121ACC1250909005647401F060
:101A0300A37406F0A374F3F0A3E4F0A37402121A10
:101A13001D7D247C10124DEE22A3F090054AE0FBBD
:101A2300A3E0FAA3E0F922F9E43AFAEB900564F0B3
:101A3300A3EAF0A3E9F022900010120CAC90054D3C
:101A4300E075F00BA429F9EA35F0FA9000060208D4
:101A5300CCA3A3E090000A020CACEB4FFFEA4EFECE
:101A6300E94DFDE84CFC22900001120743FE900073
:101A730002120743FDEDFFE4FCFD22900003120771
:101A830043FE3395E0FDFC22E075F00BA4F582855F
:101A9300F083120AF6AD07AC0622FFEE3395E0FDA4
:101AA300FC22900010020CAC9000011207437E0050
:101AB3007818229000021207437E00781022E0FF7C
:101AC300A3E090056FCFF0EFA3F07B017A017901DA
:101AD3002212072AC39402E4940022A3F090056C17
:101AE30074FFF0A322EB4FFFEAFEE9FDE8FC22E0DE
:101AF300FBA3E0FAA3E022900004120743FF229025
:101B0300000D020CACA3E4F0A37402F022900013C6
:101B13001208CCFF229000041208CCFF229000028E
:101B2300120CACA801AC02AD037B0122900007129A
:101B33000CAC90055C7401F0A322900557E0FEA362
:101B4300E0FF90077BE06E22E0C39FE495F0227DE7
:101B5300017BFF7E00020704E4900779F0A3F0A362
:101B6300F0A3F090056404F0A32234FFFC74FF900B
:101B73000579F0A3F022900002020CAC240CF9E4E6
:101B83003AFA02072A120704900567E0FEA3E0FF72
:101B930090055F22900559E0FEA3E0FF900779E0EE
:101BA3006E22A3ECF0A3EDF022A3F0A3E4F0A322B2
:101BB300E0FEA3E0FFE4FCFDC3020AC5900552E08A
:101BC3009F900551E095F022900552E09F900551BA
:101BD300E095F022900552E09F900551E095F022A8
:101BE300900552E09F900551E095F022900552E058
:101BF3009F900551E095F022900005E475F00102F5
:101C03000904FDECF0A3EDF0900005E4227E007FD3
:101C13000A12070490055F22E075F00BA4F5828594
:101C2300F08322F9EA3EFA900008020CAC9000051A
:101C33000208CC85F082F583EF0207EC90000702DF
:101C43000CAC90054AEB122E6690054A122E4B12ED
:101C53002E7C900004120743122E9A90054DEFF04C
:101C63007C007E007803CEC313CE13D8F9FFED5466
:101C7300077E0060027E01EE2F90054EF0900597DF
:101C83007401F0A37405F0A3744FF0E4A3F0A3F080
:101C930090054DE0FFC39448748094804003021E76
:101CA3005D7E007D00900597122E4B120D8E9005E0
:101CB3004A122E4B122E82120D8E90054A122E4B73
:101CC300900015E4122E79C003C002C00190054AAA
:101CD300122E4B122E8D122F3DD001D002D0037E37
:101CE300007F0212070490054A122E4B122EC89051
:101CF300054EE0FF122E8DC003C002C00190054ABD
:101D0300122E4B9000157401120770D001D002D02F
:101D130003122F4490054A122E4B122E7C122F18B9
:101D230064017F017001FF90054A122E4B122F248C
:101D3300C003C002C00190054A122E4B122E7C1222
:101D43002EAF120743900597122E5490054DE09045
:101D530005A5F0D001D002D00312350D90054EE059
:101D6300FF90059AE0C39F4003021E4FE4A3F09047
:101D7300059BE0FD7C00C39408EC94004003021E25
:101D83003D90059AE075F008A42DFFEC35F0FE9028
:101D9300054DE0FDC3EF9DEE9C4003021E3D900503
:101DA30097122E4B90059BE0FF90059AE075F00883
:101DB300A42FF582E435F0F583120743540190050F
:101DC3009CF0603490054A122E4B122E8DC003C036
:101DD30002C00190054A122E4B122EC2D001D0022E
:101DE300D00329122EE3FE90059CE0FDA80708808E
:101DF30002C333D8FC4E803690054A122E4B122E66
:101E03008DC003C002C00190054A122E4B122EC290
:101E1300D001D002D00329122EE3FF90059BE0FEF0
:101E2300A3E0FDA806088002C333D8FCF45F1207C1
:101E3300DA90059BE004F0021D7290054A122E4BC6
:101E4300122F4D90059AE004F0021D5F90054A128F
:101E53002E4B122F0CE4FD120D5F227B017A0179C8
:101E630001900907EBF0A3EAF0A3E9F0900907E07A
:101E7300FBA3E0FAA3E0F9EA494B700302206F7B6E
:101E8300017A017951C003C002C001900907E0FB48
:101E9300A3E0FAA3E0F9C3D082D083D0E0E995822E
:101EA300EA9583400302206F900907E0FBA3E0FA61
:101EB300A3E0F912072AFF7E00EF64044E706D530E
:101EC300AFEF900907E0FBA3E0FAA3E0F975820BFB
:101ED3007583001208CCFFAEF0EF24FFFFEE34FF52
:101EE300FE900784E0FBA3E0FAA3E0F97582037593
:101EF3008300EE8FF01209BC900907E0FBA3E0FA20
:101F0300A3E0F975820D758300120CACC003C00207
:101F1300C001900784E0FBA3E0FAA3E0F9120C5D93
:101F23007B017A07797D124B3F43AF10900907E09D
:101F3300FBA3E0FAA3E0F97582137583001207434C
:101F4300FFEF20E103022062900907E0FBA3E0FA20
:101F5300A3E0F9E92413F9EA3400FA12072AFFEFA0
:101F630054FDFFEF1207DA900907E0FBA3E0FAA3A1
:101F7300E0F912072AFFEF120D351F8A011F9102A4
:101F83001FE9030000201AC2ACD2AC02201A53AFDF
:101F9300FE900907E0FBA3E0FAA3E0F975820D7553
:101FA3008300120CAC9004BBEBF0A3EAF0A3E9F0BE
:101FB300900907E0FBA3E0FAA3E0F97582107583AB
:101FC300001208CCFFAEF09004BEEFF07B017A0460
:101FD30079A59004A6E0FEA3E0FF8F828E83120D05
:101FE3005F43AF01803153AFF77B017A08791EC09D
:101FF30003C002C001900907E0FBA3E0FAA3E0F9E4
:1020030090054DEBF0A3EAF0A3E9F0D001D002D0A4
:102013000312146E43AF08900907E0FBA3E0FAA391
:10202300E0F97582107583001208CCFFAEF07D00D5
:10203300900907E0FBA3E0FAA3E0F975820D75832D
:1020430000120CAC120D8E900907E0FBA3E0FAA37B
:10205300E0F9758210758300E475F0001209BC90F5
:102063000908E475F014120875021E6F2290054AE0
:10207300EBF0A3EAF0A3E9F0124392EA494B7003B1
:10208300022276A3124395EA494B70030222761289
:1020930043929000241244139400EE94004003D31F
:1020A3008001C3500EC3EF9421EE940050028001CF
:1020B300C3400A900024E475F0011209BC90002487
:1020C3001243F190002612438D12444C54019005A3
:1020D3004D600B1243957402124471E4800912435C
:1020E30095E412447174011207EC12439212444CAA
:1020F300540290054D600A12439590001F740180AD
:102103000712439590001FE41207EC1243929000CC
:102113002C1244139400EE94004003D38001C35067
:102123000EC3EF9424EE940050028001C3400A9042
:10213300002CE475F0011209BC90002C1243F190BD
:10214300002112438D12444CFF54026014EF5404D7
:10215300600FE92430F9E43AFA12072A54FB120714
:10216300DA12439212444C540490054D600A124310
:102173009590002274018007124395900022E41287
:1021830007EC12439290002E124413940EEE940027
:102193004003D38001C3500EC3EF94B7EE940350B2
:1021A300028001C3400A90002EE475F00F1209BCAF
:1021B30090002E12440312439590002412438E90F4
:1021C300002E12441E12439590002512438E900058
:1021D3002812441394DBEE94004003D38001C350D0
:1021E3000EC3EF9459EE940250028001C3400A904B
:1021F3000028E475F0DC1209BC12440012439590E8
:10220300002012438E124400124395900023124380
:102213008E12441B12439590002812438E12441BC6
:1022230012439590002912438E90002A124413946E
:10223300DBEE94004003D38001C3500EC3EF9459E7
:10224300EE940250028001C3400A90002AE475F024
:10225300DC1209BC90002A12440312439590002714
:1022630012438E90002A12441E12439590002AEFC7
:102273001207EC22900550EB121A32E4900556F047
:10228300A3F0900550121AF24A4B6020900550A318
:10229300A3E0F9121C3FE94A4B6011900550121A52
:1022A30021121C3F120C3DE94A4B70037F07229019
:1022B3000553121AF24A4B70037F072290055012FE
:1022C3001A21121B2F7406F0A374D3F0121B0812E9
:1022D3004F92900558EFF0900550121A21121C3FAF
:1022E300125718EF4E70037F0722900558E06402DF
:1022F300700E9006D3E0645A7006A3E064A5606C88
:10230300121AE07458F07432121ACB125090121A47
:10231300E07458F0A37458F0A37420121ACC12502E
:1023230090E4900558F0900558E0FFC39420748022
:1023330094805026121AE07458F0A3746AF074D390
:102343002FF582E43406F583E090056F121ACC1260
:102353005090900558E004F080CC121AE07458F0C5
:10236300A3746F121ACC1250907F00229005501262
:102373001A21121B2F7405F07458121BAC0412247B
:1023830067E0FE70037F0522900550121A21121B8D
:102393002F7406F0A374D3F0EEFFA3E4F0A3EF12BF
:1023A3002467EFF0E070037F05229006D3E0648298
:1023B30070037F07229006D4E0FEA3E0FDEDFF90BB
:1023C3000553121A21EE8FF012099D7B017A0679CB
:1023D300D6C003C002C001900550121A2190000A12
:1023E300120CDC7B017A0679D3900558E024FEFDBC
:1023F300E4121B6D124BF8900556EEF0A3EFF0902C
:102403000556E0FCA3E0FAECFFEAFE900556EEF079
:10241300A3EFF0A3E0FD24D1F582E43406F583E0D5
:10242300FE74D22DF582E43406F583E0FDEDFBAABC
:1024330006E4F9F8900556121BB36025121AE074EE
:1024430058F0A37474121ACC125090121AE07458F4
:10245300F0A37493F0900556121AC11250907F01A5
:10246300227F0822F0124F92900558227B017A08AE
:10247300791E9008F6EBF0A3EAF0A3E9F07B017A6A
:102483000479A59008F9EBF0A3EAF0A3E9F090082A
:10249300FCE4F09008F9E0FBA3E0FAA3E0F975820D
:1024A3001D75830074021207EC9008F9E0FBA3E0AA
:1024B300FAA3E0F975822175830074011207EC9089
:1024C30008F9E0FBA3E0FAA3E0F9C003C002C001EE
:1024D3009008F6E0FBA3E0FAA3E0F99005A2EBF085
:1024E300A3EAF0A3E9F09005A57424F0D001D0028B
:1024F300D0037D007C0012350DEF700302263B9064
:1025030008F9E0FBA3E0FAA3E0F975821D758300E7
:1025130074031207EC9008F9E0FBA3E0FAA3E0F9D7
:1025230075822175830074011207EC9008F9E0FBB2
:10253300A3E0FAA3E0F9C003C002C0019008F6E0EB
:10254300FBA3E0FAA3E0F9E92424F9EA3400FA90C2
:1025530005A2EBF0A3EAF0A3E9F09005A57413F04C
:10256300D001D002D0037D007C0012350DEF700343
:1025730002263B9008F9E0FBA3E0FAA3E0F9758299
:102583001D758300E41207EC9008F9E0FBA3E0FA61
:10259300A3E0F975822175830074011207EC90089A
:1025A300F6E0FBA3E0FAA3E0F9758230758300122D
:1025B3000743FFEF5404FF7E00EF4E60047FFF806C
:1025C300027F009008FCEFF09008F9E0FBA3E0FA2B
:1025D300A3E0F9C003C002C0017B017A0879FC9033
:1025E30005A2EBF0A3EAF0A3E9F09005A57401F0CE
:1025F300D001D002D0037D007C0012350DEF60388E
:102603007B017A07797DC003C002C0019008F6E020
:10261300FBA3E0FAA3E0F9900564EBF0A3EAF0A3CF
:10262300E9F0900567E4F0A37424F0D001D002D060
:10263300037D007C10124DEE22C0E0C0F0C083C0C9
:1026430082C0D075D000C000C001C002C003C00466
:10265300C005C006C007752700752700900892E0E3
:10266300FFE527C39F4003022703AF2775F009EF58
:10267300A42497F582E5F03408F583E0FF7E00EFAC
:1026830064014E7076AF2775F009EFA42493F582A9
:10269300E5F03408F583E475F001120875AF27758A
:1026A300F009EFA42495F582E5F03408F583E0FE04
:1026B300A3E0FFAD2775F009EDA42493F582E5F0BF
:1026C3003408F583E0FCA3E0FDEDB5072EECB50679
:1026D3002AAF2775F009EFA42498F582E5F03408B2
:1026E300F5837401F0AF2775F009EFA42493F58205
:1026F300E5F03408F583E4F0A3E4F0052702265F50
:102703007B017A0179017828A60308A60208A601AD
:102713007828860308E6FA08E6F9EA494B700302CB
:1027230027DC7B017A017951C003C002C0017828FC
:10273300860308E6FA08E6F9C3D082D083D0E0E93D
:102743009582EA958340030227DC7828860308E60E
:10275300FA08E6F9758213758300120743FFEF3019
:10276300E06A7828860308E6FA08E6F975821275A6
:102773008300120743FFEF60177828860308E6FA01
:1027830008E6F975821275830074FF1207A7803C6F
:102793007828860308E6FA08E6F9E92413F9EA3407
:1027A30000FA12072AFFEF54FEFFEF1207DA782828
:1027B300860308E6FA08E6F9E92413F9EA3400FA8D
:1027C30012072AFFEF4402FFEF1207DA782A741484
:1027D30026F618E436F6022713D007D006D005D024
:1027E30004D003D002D001D000D0D0D082D083D087
:1027F300F0D0E03242077B00004207790000420636
:10280300F30000608406F50000101200200001FFB1
:1028130039080000101302580078FF2F9D000010A4
:1028230014025800DCFF30F900001015025800DCD8
:10283300FF32550000101600230001FF3A55000037
:10284300101703B6000FFF33B1000010180001008A
:1028530000FF405C00001020270F0000FF179600C8
:10286300001021270F0000FF179600001022FFFF22
:102873000000FF179600001023FFFF0000FF1796CC
:1028830000001030FFFF0000FF4180490795000062
:102893000000000000000058077DFC0001079E00B7
:1028A300000107950000000108420106F5000C0134
:1028B300013D60240893000000640100FF1E5E00D8
:1028C3000005DC0100FF246F000003E80100FF475F
:1028D3002D000003E80100FF480B4108920444085F
:1028E3008A0000000044088E0000000060500101CF
:1028F30000000000000000000000000000000000D5
:1029030000000000000000000000000000000000C4
:1029130000000000000000000000000000000000B4
:1029230000000000000000000000000000000000A4
:102933000000000000000000000000000000000094
:10294300410000006037081E000000000000000086
:102953000000000000000000000000000000000074
:102963000000000000000000000000000000000064
:1029730000000000000000000000000000000060F4
:102983002504A5023CD848E3464C1C4537B82CD552
:10299300447B2B450104CA8000000000000108426B
:1029A3000101033D0001011500EFD39405748094E8
:1029B3008040037F012212072AFED394037480947C
:1029C3008040037F0222EF7038EE700812582CF417
:1029D3005293529412072A6401700812582C42939E
:1029E300F4529412072AFE6402700712582C429381
:1029F3004294EE6403700A12582CFEF45293EE4292
:102A030094EF6401703A12072AFE700812582CF4EE
:102A130052915292EE6401700812582C4291F45272
:102A23009212072A6402700712582C4291429212A2
:102A3300072A6403700A12582CFEF45291EE429254
:102A4300EF6402703A12072AFE700812582CF452EF
:102A5300955296EE6401700812582C4295F45296E2
:102A630012072A6402700712582C429542961207E5
:102A73002A6403700A12582CFEF45295EE4296EF24
:102A83006403703A12072AFE700812582CF452B1EC
:102A930052B2EE6401700812582C42B1F452B212D1
:102AA300072A6402700712582C42B142B212072A55
:102AB3006403700A12582CFEF452B1EE42B2EF6472
:102AC30004703A12072AFE700812582CF452B352BB
:102AD300B4EE6401700812582C42B3F452B41207D6
:102AE3002A6402700712582C42B342B412072A64B4
:102AF30003700A12582CFEF452B3EE42B4EF64058D
:102B0300703D12072AFF7E00700812582CF452C938
:102B130052CAEF64014E700812582C42C9F452CACB
:102B230012072A6402700712582C42C942CA1207BC
:102B33002A6403700A12582CFFF452C9EF42CA7F69
:102B4300002290054AEB122E6690054A122E4B1274
:102B53002F9790054DEB122E66A37401F0A3740713
:102B6300F0A3747DF0E4A3122F0490055AF09005AE
:102B73004A122E4B122E7C122EAF122E9D9005530D
:102B8300EEF0A3EFF0122E93900555EEF0A3EFF0C5
:102B930090054D122E4BEA494B7003022CD490053D
:102BA30057EB122E6690054A122E4B122E7C122FD3
:102BB3001824FA6041046003022CB7900553E070B7
:102BC30002A3E06003022CB7900555E07002A3E076
:102BD30090054D600F122EA7122EE144041207DA5E
:102BE30054FD800D122EA7122EE144021207DA546F
:102BF300FB1207DA8070900550122E4B90001012D2
:102C03000CAC900553E0FEA3E0FF7C007D0B1208A3
:102C13000E122EFB9000061208CCC3122F55404E05
:102C23009000041208CCD3122F5550429005501235
:102C33002E4B9000131208CCFF900553E0FCA3E049
:102C4300FDC39FEC95F05026A3E0FEA3E0FF8FF0B9
:102C5300C006ED25E0FFEC33FEA3122E4B8F828ED0
:102C630083D0E01209BC90055A7401F080469005A8
:102C73004A122E4B90001D74031207EC7401122F9D
:102C83002CC003C002C001900553E0FCA3E0FD2566
:102C9300E0FFEC33FE900557122EA72FF9EA3EFA18
:102CA300EB122E63A37402F0D001D002D0031235CD
:102CB3000DEF601D90055AE0601790054D122EA789
:102CC300122EE144081207DA900550122E4B1254CB
:102CD300272290054AEB122E6690054A122E4B12BC
:102CE3002E7C122E937C007D02120D6190054DEF18
:102CF300F07B017A05794E900596EB122E664A4BCE
:102D03007F0070027F01C3EF944874809480400376
:102D1300022E3890054DE0FF7E007D00900596124F
:102D23002E4B120D8E90054A122E4B122E82120D2F
:102D33008E90054A122E4B900015E4122E79C00393
:102D4300C002C00190054A122E4B122E8D122F3D48
:102D5300D001D002D0037E007F0212070490054AFF
:102D6300122E4B122EC890054DE0FF122E8DC0037C
:102D7300C002C00190054A122E4B122EC2D001D0C0
:102D830002D003122F4490054A122E4B122F4D12DC
:102D93002E7C122F1864037F0270027F0390054A72
:102DA300122E4B122F24C003C002C00190054A12F9
:102DB3002E4B122E7C122EAF122E9DAD07AC069019
:102DC3000596122E5B90054DE09005A5F0D001D03D
:102DD30002D00312350D90054DE0FF7E0090054AA9
:102DE300122E4B122E8DC003C002C00190054A1251
:102DF3002E4B122EC27C00D001D002D003122F6FB3
:102E0300900596122E4B12070490054DE0FF900596
:102E13004A122E4B900015EF1207A7C003C002C041
:102E23000190054A122E4B122F0CD001D002D00371
:102E3300E4FD120D5F22F91208CCFFAEF0F5828596
:102E4300F083120D5F90054AE0FBA3E0FAA3E0F9DB
:102E530022FDEDFFAD07AC06E0F9A3E0FAA3E0C95C
:102E63009005A2F0A3EAF0A3E9F02290001D120757
:102E7300EC90002174011207EC900016020CAC9048
:102E83000014120743FF7E007D00900011020CAC7A
:102E9300900004120743FE900005120743FDEDFF67
:102EA3002290054AE0FBA3E0FAA3E022900002127D
:102EB3000743FE9000032290001E120CACE92290FF
:102EC300001502074374029000150207A7E0FD9066
:102ED30000031208CCFFAEF0F58285F08322240CA8
:102EE300F9E43AFA02072A90001D020743F9E43A8B
:102EF300FAED25E0FFEC33FEE92FF9EA3EFA22A3CF
:102F0300E4F0A3F0A3F0A3F0229000031208CCF5A1
:102F13008285F08322900001020743900019020783
:102F23004390001DEF1207ECE49000210207ECFA36
:102F3300ECFFEAFEEEF0A3EFF022A801AC02AD0332
:102F430022F582758300EF0207EC740190001502ED
:102F530007A7FF900556E09F900555E095F02224C2
:102F630024F9E43AFAE92DF9EA3CFA2229F9EC3A90
:102F7300A801FCAD032274069000150207EC90052E
:102F8300A2E0F9A3E0FAA3E0227E007F0712070480
:102F930090054A2290001A020CAC90054DEDF0907A
:102FA300054AEB121A32121B0290054EEB121A322B
:102FB3004A4B70030230F890054A121A21EA494B32
:102FC30070030230F8E4900551F0A3F090054A1223
:102FD3001A54121AD4500E90054A121A21121A5773
:102FE300121A6A807E90054A121A21121A57121A6F
:102FF300ABC333CE33CED8F9121A9DC004C005C07B
:1030030006C00790054A121A21121A57121AB6C39C
:1030130033CE33CED8F9121A9DD003D002D001D0CB
:1030230000121A5DC004C005C006C00790054A120D
:103033001A21121A57121A7ED003D002D001D000DF
:10304300EB121A5FC004C005C006C00790054A1200
:103053001A21121A57121AFAD003D002D001D00043
:10306300121AE8900551EEF0A3EFF090054A121AF8
:1030730021121AA590054D121A43FFC3121BCB4010
:103083002E121B18D3121BCB502590054A121A215E
:10309300121B1090054D121B4B5034900551E0FE4E
:1030A300A3E0FF90054E121A21900002EE801B90C0
:1030B300054A121A21121AA590054D121A43FF90C0
:1030C300054E121A21900002E5F08FF01209BC9010
:1030D300054A121A21121AA590054D121A8B900552
:1030E3004E121AF22402121A2A121B0890054A12CF
:1030F3001A21124DEE2290054DEDF090054AEB1288
:103103001A32121B0290054EEB121A324A4B70030D
:1031130002325490054A121A21EA494B70030232D3
:1031230054E4900551F0A3F090054A121A54121A70
:10313300D4500E90054A121A21121A57121A6A8095
:103143007E90054A121A21121A57121AABC333CEB4
:1031530033CED8F9121A9DC004C005C006C007902B
:10316300054A121A21121A57121AB6C333CE33CE96
:10317300D8F9121A9DD003D002D001D000121A5DE3
:10318300C004C005C006C00790054A121A21121ACE
:1031930057121A7ED003D002D001D000EB121A5F6F
:1031A300C004C005C006C00790054A121A21121AAE
:1031B30057121AFAD003D002D001D000121AE890A5
:1031C3000551EEF0A3EFF090054A121A21121AA549
:1031D30090054D121A43FFC3121BD7402E121B1822
:1031E300D3121BD7502590054A121A21121B109097
:1031F300054D121B4B5034900551E0FEA3E0FF90A8
:10320300054E121A21900004EE801B90054A121AF3
:1032130021121AA590054D121A43FF90054E121A5A
:1032230021900004E5F08FF01209BC90054A121AB0
:1032330021121AA590054D121A8B90054E121AF2FF
:103243002404121A2A121B0890054A121A21124D3D
:10325300EE2290054DEDF090054AEB121A32121B47
:103263000290054EEB121A324A4B70030233B090B0
:10327300054A121A21EA494B70030233B0E4900560
:1032830051F0A3F090054A121A54121AD4500E901A
:10329300054A121A21121A57121A6A807E90054A99
:1032A300121A21121A57121AABC333CE33CED8F9DE
:1032B300121A9DC004C005C006C00790054A121A21
:1032C30021121A57121AB6C333CE33CED8F9121AB3
:1032D3009DD003D002D001D000121A5DC004C005F6
:1032E300C006C00790054A121A21121A57121A7EF5
:1032F300D003D002D001D000EB121A5FC004C00586
:10330300C006C00790054A121A21121A57121AFA58
:10331300D003D002D001D000121AE8900551EEF08C
:10332300A3EFF090054A121A21121AA590054D1227
:103333001A43FFC3121BE3402E121B18D3121BE3C5
:10334300502590054A121A21121B1090054D121B8D
:103353004B5034900551E0FEA3E0FF90054E121A46
:1033630021900006EE801B90054A121A21121AA51D
:1033730090054D121A43FF90054E121A2190000634
:10338300E5F08FF01209BC90054A121A21121AA512
:1033930090054D121A8B90054E121AF22406121A3A
:1033A3002A121B0890054A121A21124DEE2290058B
:1033B3004DEDF090054AEB121A32121B0290054EA6
:1033C300EB121A324A4B700302350C90054A121A5B
:1033D30021EA494B700302350CE4900551F0A3F048
:1033E30090054A121A54121AD4500E90054A121A12
:1033F30021121A57121A6A807E90054A121A211254
:103403001A57121AABC333CE33CED8F9121A9DC052
:1034130004C005C006C00790054A121A21121A57A4
:10342300121AB6C333CE33CED8F9121A9DD003D0B5
:1034330002D001D000121A5DC004C005C006C00747
:1034430090054A121A21121A57121A7ED003D0027B
:10345300D001D000EB121A5FC004C005C006C0073C
:1034630090054A121A21121A57121AFAD003D002DF
:10347300D001D000121AE8900551EEF0A3EFF090BE
:10348300054A121A21121AA590054D121A43FFC3B9
:10349300121BEF402E121B18D3121BEF5025900561
:1034A3004A121A21121B1090054D121B4B503490D7
:1034B3000551E0FEA3E0FF90054E121A2190000A89
:1034C300EE801B90054A121A21121AA590054D127F
:1034D3001A43FF90054E121A2190000AE5F08FF06F
:1034E3001209BC90054A121A21121AA590054D1211
:1034F3001A8B90054E121AF2240A121A2A121B086A
:1035030090054A121A21124DEE2290059DEB122EC0
:1035130066122EEAC39402748094807F4850027F1F
:10352300249005A6EFF0E49005ADF090059D122ED2
:10353300A74A4B600F9005A2122EA74A4B6005A322
:10354300E0FE70030236629005A6E0FFFBC3ED9B2D
:10355300EC94004003023662EEC39F4003023662DE
:1035630090059D122E4B900021120743705C122F81
:10357300819005A7C9122E6690059D122E4D122E1D
:10358300EA700A122EBA2DF9EA3CFA803790059DAB
:10359300122E4B122EEA64017008122EBA122F62F9
:1035A300802290059D122E4B122EEA6402700712A0
:1035B3002EBA2448800B90059D122E4B122EBA244E
:1035C300D8122EF09005AAEB805A90059D122E4B2F
:1035D300122EEA700A122EBA2DF9EA3CFA803790BD
:1035E300059D122E4B122EEA64017008122EBA1298
:1035F3002F62802290059D122E4B122EEA640270D8
:1036030007122EBA2448800B90059D122E4B122EC2
:10361300BA24D8122EF09005A7EB122E66122F8132
:103623009005AAC9122E669005A7122E4BEA494BA4
:10363300602DA3122E4BEA494B60249005A5E0FFB1
:103643007E009005A7122EA7F8AC02AD03A3122E9D
:10365300A7120F34EA494B60069005AD7401F09050
:1036630005ADE0FF229008B7E4F0A3E4F07B017A14
:103673000879429008B9EBF0A3EAF0A3E9F07BFFE5
:103683007A5A7997C003C002C0017B017A0879BCDA
:10369300A801AC02AD03D001D002D0037E007F139A
:1036A300120704123F351256AB7FD57EFF1254D654
:1036B3007FD57EFF1255EE7FF87EFD12556A7FD5CA
:1036C3007EFF1255AD9008B9E0FBA3E0FAA3E0F941
:1036D30090054FE4F0A37413F07F007EFC120046C4
:1036E3009008B9E0FBA3E0FAA3E0F990057974FF31
:1036F300F0A374FFF07D117C00124BF89008B7EE35
:10370300F0A3EFF09008B9E0FBA3E0FAA3E0F975AA
:1037130082117583001208CCFFAEF09008B7E0FC6D
:10372300A3E0FDEF6D7002EE6C60737B017A0879A4
:10373300BCC003C002C0019008B9E0FBA3E0FAA338
:10374300E0F9A801AC02AD03D001D002D0037E00A2
:103753007F131207047B017A0879BC90057974FF03
:10376300F0A374FFF07D117C00124BF89008B9E0D0
:10377300FBA3E0FAA3E0F9758211758300EE8FF0E5
:103783001209BC9008B9E0FBA3E0FAA3E0F99005A5
:1037930066E4F0A37413F07F007EFC125369D2AF8A
:1037A300C2A97B017A0879931249BAD2A9A2CDB3EF
:1037B30092CD80EC2290054AEB122E66122F02A3C3
:1037C300F090054A122E4BE4122E6E122F18640548
:1037D3007045122E93E4FCFDFB7AFFF9F8C3120A3D
:1037E300C5C37001D37F0050027F01900553EFF0F2
:1037F3009005507401F090054DF0A37405F0A37487
:1038030053F090054A122E4B122F1E122F7B900558
:10381300527401F002389E90054A122E4B122E7CF0
:10382300122E93900550EFF090054A122E4B122E54
:103833008D90054DEB122E66900550E0FFA3E0FE40
:10384300C39F504990054A122E4B122E7CEEFD7CED
:10385300007E007803CEC313CE13D8F92407F58274
:10386300E43EF583120743FFED5407FEF8EF0880AB
:1038730002C313D8FC5401FF90054D122E4B900543
:1038830051E0122F44900551E004F080AB90054ABB
:10389300122E4B122F79E4900552F090054D122E03
:1038A3004BEA494B602690054A122E4B122E7C128E
:1038B3002EAF12074390054D122E54900550E09001
:1038C30005A5F090054A122E4B12350D90054A12AC
:1038D3002E4B122EC2FF7E00122E7CC003C002C0EC
:1038E3000190054A122E4B122E8D122F3DD001D07E
:1038F30002D00312070490054A122E4B9005521270
:103903002ED0020D5F90054DEDF090054AEB121A93
:1039130032121B0290054EEB121A324A4B7003020D
:103923003A5490054A121A21EA494B7003023A5459
:10393300E4900551F0A3F090054A121A54121AD4D8
:10394300500E90054A121A21121A57121A6A807ED3
:1039530090054A121A21121A57121AABC333CE33E7
:10396300CED8F9121A9DC004C005C006C007900541
:103973004A121A21121A57121AB6C333CE33CED8AB
:10398300F9121A9DD003D002D001D000121A5DC0E3
:1039930004C005C006C00790054A121A21121A571F
:1039A300121A7ED003D002D001D000EB121A5FC0EE
:1039B30004C005C006C00790054A121A21121A57FF
:1039C300121AFAD003D002D001D000121AE89005DF
:1039D30051EEF0A3EFF090054A121A21121A3AFFA2
:1039E300C3121BBF402B121B18D3121BBF502290B4
:1039F300054A121A21121B1090054D121B4B502819
:103A0300900551E0F9A3E0FF90054E121AF2C98028
:103A13001290054A121A21121A3AFF90054E121AF1
:103A230021E5F08FF012099D90054A121A21121A0E
:103A3300A590054D121A8B90054EE0F9A3E0FAA369
:103A4300E0C9121A2F121B0890054A121A21124DAF
:103A5300EE2290054DEDF090054AEB121A32121B3F
:103A63000290054EEB121A324A4B7003023BA090B0
:103A7300054A121A21EA494B7003023BA0E4900560
:103A830051F090054A121A54121AD4500E90054A56
:103A9300121A21121A57121A6A807E90054A121AB4
:103AA30021121A57121AABC333CE33CED8F9121AD6
:103AB3009DC004C005C006C00790054A121A211212
:103AC3001A57121AB6C333CE33CED8F9121A9DD071
:103AD30003D002D001D000121A5DC004C005C00695
:103AE300C00790054A121A21121A57121A7ED003E0
:103AF300D002D001D000EB121A5FC004C005C0068B
:103B0300C00790054A121A21121A57121AFAD00343
:103B1300D002D001D000121AE8900551EFF09005C1
:103B23004A121A21121AA590054D121A43FF900545
:103B330051E0C39F4022121B18900551E0D39F50C0
:103B43001790054A121A21121B1090054D121B4B98
:103B53005025900551E0800F90054A121A21121A40
:103B6300A590054D121A43FF90054E121A2190009D
:103B730008E48FF01209BC90054A121A21121AA503
:103B830090054D121A8B90054E121AF22408121A40
:103B93002A121B0890054A121A21124DEE22900593
:103BA3004AEB124CC7784D7C057D017BFF7A59792E
:103BB300697E007F02120704124CA712072A24FE13
:103BC300605A147003023C59147003023C852403A9
:103BD3006003023CB6124D2BF598124D50428912E8
:103BE3004CFEF58BEEF58D90000512074313928E74
:103BF300900007120743428E90000912074352B800
:103C030090000A12074352B7124D3124FF92AC12AF
:103C13004D177F03123CB77F03023CB3124CA7122C
:103C23004D2BF59A124CFEF5D7EEF5D69000071200
:103C33000743428E124D315401F5AF90000912072C
:103C43004352B590000A12074352B6124D17FF12A2
:103C53003CB77F01805A124CA7124D2BF5AC124D85
:103C630050F5D1124CFEF5D5EEF5D4124D31540872
:103C730042AF124D17124CF7123CCEA314124CF460
:103C8300802E124CA7124D2BF584124D5042D112A7
:103C93004CFEF5D3EEF5D2124D31541042AFE49001
:103CA300054DF07404124CF3123CCE7408124CF31D
:103CB3001229AC227A05794D1229AC90054D740373
:103CC300F0A314F07B017A05794D221229AC9005FB
:103CD3004D7403F02290054AEB122E66E4A3F0A381
:103CE300F012566D5006122E48125800122E48122A
:103CF3002F1EFF7E00D39402EE9400401E122E7CF2
:103D0300EF24FEFDEE34FFFC74FF900579F0A3F081
:103D1300124BF890054DEEF0A3EFF090054DE0FC4B
:103D2300A3E090054D122F32122E48122E7C12075B
:103D33002AFF122E4812072A6F6003023DF1122F49
:103D43001EFD7C0024FEFFEC34FFFE122E7C8F82CE
:103D53008E83120743FE74FF2DF582EC34FFF58347
:103D6300120743FDEDFBAA06E4F9F890054DE0FECA
:103D7300A3E0FFE4FDC3120AC57073122E48122E8E
:103D83007C122F18120D353DA9013DA9023DBF0339
:103D93003DBF043DB1053DC7063DB10F3DC7103DD5
:103DA300DB1100003DF1122E489000078022122EF5
:103DB300A4900009122E3990000F8014122E4890FF
:103DC300000B800C122EA490000D122E3990000FC0
:103DD300122ED5120D5F8016122E48122F97EA4924
:103DE3004B600B122E48122F9774011207DA122E12
:103DF30048122F1EFF7E007D00122E7C120D8E12A4
:103E03002E48900019E40207EC3E9248DA3ECCCCEF
:103E1300CD3F2AAAAB400000003F8000003F983707
:103E2300F03FB504F33FD744FC3E3172173EB17205
:103E3300173F0515913EDE5BD9D2008002C200ED2B
:103E4300D2E7F8CD33EC3304700BBD800592D50275
:103E5300042A02042040FBD31460F2F5F07C3FEE09
:103E63007A00C39496C8948B40230AC89469C89473
:103E73001A401A0AC89468C8941F40110AC8945A71
:103E8300C89425400805F07A00CDC2E7CDC0F09074
:103E93000550120BE0EA2323C0E0241CF582E4342E
:103EA3003EF583120B8012009DECC0E0EDC0E0EE06
:103EB300C0E0EFC0E0120B64900550120B741200C7
:103EC30099D0E0FBD0E0FAD0E0F9D0E0B2E7F81205
:103ED3000297900550120BE0903E0C7403120435C8
:103EE300900550120B7412018ED0E0600F2428F558
:103EF30082E4343EF583120B8012009D900550122C
:103F03000BE0D0E0C3947FFDE49400FC1203B27B8A
:103F1300187A727931783F12018E900550120B7422
:103F230012009D30000B7BD97A5B79DE783E12015B
:103F33008E227BFF7A5A79DCC003C002C0017B0169
:103F43007A097913A801AC02AD03D001D002D003E2
:103F53007E007F0212070475BA8090FE0374C0F0DE
:103F630090FE03E0FFEF30E0F790FE017401F09064
:103F7300FE007401F075BA009009137403F0900900
:103F8300147490F07B017A0979137F031229AC90A2
:103F930009137401F09009147460F07B017A0979B4
:103FA300137F031229AC9009137403F0900914745E
:103FB30024F07B017A0979137F021229AC9009134B
:103FC3007401F09009147418F07B017A0979137F56
:103FD300021229AC9009137403F09009147440F091
:103FE3007B017A0979137F001229AC9009147408B4
:103FF300F07B017A0979137F011229AC90091374BC
:1040030003F09009147480F07B017A0979137F001F
:104013001229AC9009137401F09009147404F07B15
:10402300017A0979137F011229AC9009137403F003
:104033009009147420F07B017A0979137F05122902
:10404300AC9009137403F09009147480F07B017A27
:104053000979137F001229AC2290054AEB121A3218
:10406300121B0290054DEB121A3290054A121A21C7
:10407300EA494B700302417FA3121A21EA494B70AC
:104083000302417F90054A121A21121A57121AD4B9
:10409300501C90054A121A21121A57900001120758
:1040A30043FE900002120743FDEDFF0241319005EC
:1040B3004A121A21121A57121AABC333CE33CED86F
:1040C300F9121A9DC004C005C006C00790054A1224
:1040D3001A21121A57121AB6C333CE33CED8F91295
:1040E3001A9DD003D002D001D000121A5DC004C0C3
:1040F30005C006C00790054A121A21121A57121A50
:104103007ED003D002D001D000EB121A5FC004C0EE
:1041130005C006C00790054A121A21121A57121A2F
:10412300FAD003D002D001D000EB4FFFEAFE900596
:1041330050EFF0E4A3F0EF64F190054D7018121AFC
:10414300F2121B7F44021207DA54FB1207DA9005BE
:10415300517406F08016121AF2121B7F44041207E0
:10416300DA54FD1207DA9005517407F090054A12EC
:104173001A21900551E0FD7C001254842290054AD7
:10418300EB121A32121B0290054DEB121A329005F4
:104193004A121A21EA494B700302429AA3121A21C6
:1041A300EA494B700302429A90054A121A21121AE5
:1041B30057121AD4500E90054A121A21121A571286
:1041C3001A6A807E90054A121A21121A57121AABE4
:1041D300C333CE33CED8F9121A9DC004C005C0062E
:1041E300C00790054A121A21121A57121AB6C3337E
:1041F300CE33CED8F9121A9DD003D002D001D0000D
:10420300121A5DC004C005C006C00790054A121A01
:1042130021121A57121A7ED003D002D001D000EB1C
:10422300121A5FC004C005C006C00790054A121ADF
:1042330021121A57121AFAD003D002D001D0001259
:104243001AE8900550EFF064F1704C90054D121A86
:10425300F2121B7F44081207DA900551120BEC008F
:10426300000000121B5B7405F0A37451F0A3E4F08B
:10427300A37404F090054A121A217D207C10124D7C
:10428300EE90054A121A2112542790054A121A2158
:104293007D027C001254842290090DEBF0A3EAF016
:1042A300A3E9F090090DE0FBA3E0FAA3E0F91207FC
:1042B3002AFFEF120D3542C0000000438C90090D18
:1042C300E0FBA3E0FAA3E0F975820175830012070E
:1042D30043FFEF528E90090DE0FBA3E0FAA3E0F950
:1042E300758202758300120743FFEF528990090D0F
:1042F300E0FBA3E0FAA3E0F97582037583001208DB
:10430300CCFFAEF08F8A90090DE0FBA3E0FAA3E0A7
:10431300F97582037583001208CCFFAEF0EEFF7EC1
:10432300008F8C90090DE0FBA3E0FAA3E0F97582FE
:1043330006758300120743FFEF42B890090DE0FBB7
:10434300A3E0FAA3E0F9758205758300120743FF22
:10435300EF42B790090DE0FBA3E0FAA3E0F9758201
:1043630007758300120743FFEF24FF92A990090DFD
:10437300E0FBA3E0FAA3E0F9758208758300120756
:1043830043FFEF24FF928CC28D22F9EF1207EC90CA
:10439300054AE0FBA3E0FAA3E0F92290054AE0FB1B
:1043A300A3E0FAA3E02420F9E43AFA0208A1FFEE1D
:1043B3008FF012099DEF54FDFFEE8FF012099DEF70
:1043C30054DFFFEE8FF002099D90000D120CAC90AC
:1043D3000124120743FE900125120743FDED22122B
:1043E3000743FCE41203B77BCD7ACC79CC221208C5
:1043F300CCFF90054DE0FBA3E0FAA3E02290002858
:104403001208CCE5F0FF90054D2290000D020CAC94
:104413001208CCFFAEF0D3229000281208CCFF90F4
:10442300054D22120743FCE41203B7E4FBFA229082
:104433000018020AF6FFE5F08FF002099D900014C0
:10444300120AF6120B9002018E900030020743E429
:10445300FBFA784102033412009D90054A22120BA5
:104463004090054D22120B40900004020AF6900082
:10447300041207EC9000052290054AEB122E6612F7
:104483002F0290054A122E4B7403122E6E122F1810
:10449300640670319005507402F090054A122E4B59
:1044A300122E7CE92404F9E43AFA90054DEB122E1E
:1044B3006690054A122E4B122F1E122F7B90055128
:1044C3007401F0802F90054A122E4B122E7C90001F
:1044D30006120743900550F0E92407F9E43AFA90ED
:1044E300054DEB122E6690054A122E4B122F79E4DE
:1044F300900551F090054D122E4BEA494B602A90DE
:10450300054A122E4B122E7C122EAF122E9DAD0792
:10451300AC0690054D122E5B900550E09005A5F07A
:1045230090054A122E4B12350D90054A122E4B124E
:104533002EC2FF7E00122E7CC003C002C001900574
:104543004A122E4B122E8D122F3DD001D002D003D2
:1045530012070490054A122E4B900551122ED002D9
:104563000D5F90056FEB121A32E4A3F0A3F0EA4952
:104573004B700302460C90056F121A21900015121E
:104583000CACEA494B700302460C90056F121A21DA
:10459300121B79E92403F9E43AFAC003C002C0010B
:1045A30090056F121A21121C3024FDFDE5F0121B39
:1045B3006DD001D002D003124BF8900572EEF0A338
:1045C300EFF090056F121A21121B79C003C002C0CD
:1045D3000190056F121A21121BFBD001D002D003E8
:1045E300121C36900572E0FF90056F121A21121B00
:1045F30079C003C002C00190056F121A21121BFB80
:10460300D001D002D003121C3690056F121A2190EC
:104613000015120CACC003C002C00190056F121A42
:1046230021121B7990069DEB121A3290056F121A14
:1046330021121C309006A0F0A37413F0A37488F029
:10464300D001D002D00302517590054AEB122E66B9
:10465300A3ECF0A3EDF078537C057D017BFF7A5B3F
:10466300791E122F8C122E4B12072A900553F090AD
:10467300054DE0FCA3E0FDEC900555F0A3EDF090B3
:104683000552E0FDFFE4C313FAEF13FBEA9005576D
:10469300F0AF03A3EFF0A3EDF090054AE0FBA3E036
:1046A300FA122E82120D8E90054A122E4BE4122F0F
:1046B3007B90054A122E4B122E8D122F3D7B017AD1
:1046C300057953122F8C122E4B7407122ECA9005A4
:1046D30052E0FF7E0090054A122E4B122E8DC0032E
:1046E300C002C00190054A122E4B122EC27C00D08C
:1046F30001D002D003122F6F90054F122E4B1207D9
:1047030004900552E0FF90054A122E4BEF122F4FF3
:10471300C003C002C00190054A122E4B122F0CD0C9
:1047230001D002D003E4FD020D5F7B017A08791EFC
:10473300900855EBF0A3EAF0A3E9F07BFF7A5A79EE
:10474300AAC003C002C0017B017A087958A801AC52
:1047530002AD03D001D002D0037E007F32120704E2
:10476300900855E0FBA3E0FAA3E0F9758230758366
:1047730000120743FFEF30E327900855E0FBA3E067
:10478300FAA3E0F9E92430F9EA3400FA12072AFF20
:10479300EF54F7FFEF1207DA9008587415F080060C
:1047A3009008587416F0900855E0FBA3E0FAA3E0D4
:1047B300F9C003C002C0017B017A08795890054D06
:1047C300EBF0A3EAF0A3E9F0D001D002D00312206A
:1047D300707B017A017929C003C002C0017B017A91
:1047E30008795890069DEBF0A3EAF0A3E9F0900650
:1047F300A07432F09006A17413F0A37488F0D00172
:10480300D002D003125175227B017A08791E9009D8
:104813000AEBF0A3EAF0A3E9F090090AE0FBA3E0B6
:10482300FAA3E0F97582207583001208CCFFAEF07D
:10483300EF30E24F90088AE0FCA3E0FDA3E0FEA383
:10484300E0FFEF2401FFEE3400FEED3400FDEC3415
:1048530000FC90088A120BE090088EE0FCA3E0FDB8
:10486300A3E0FEA3E0FF90090AE0FBA3E0FAA3E0C4
:10487300F9758208758300120BB012009D90088EA3
:10488300120BE090090AE0FBA3E0FAA3E0F97582BA
:10489300207583001208CCFFAEF0EF30E1149008CE
:1048A3008A120BEC0000000090088E120BEC000043
:1048B30000007B3C7A007900780090088AE0FCA332
:1048C300E0FDA3E0FEA3E0FF120A2590090AE0FB46
:1048D300A3E0FAA3E0F9758210758300120B40225E
:1048E30090054AEB122E66ED707B90054A122E4B13
:1048F300122E8DC003C002C00190054A122E4B1226
:104903002EC2FD7C0074FF900579F0A3F0D001D096
:1049130002D003124BF890054DEEF0A3EFF0900593
:104923004DE0FCA3E090054D122F3290054A122E64
:104933004B122E8DC003C002C00190054A122E4BAC
:10494300122EC27E00D001D002D00329F9EE122F1D
:10495300727B017A05794D7F0212070490054A1292
:104963002E4B122EC890054A122E4B900022120C89
:10497300ACEA494B604090054A122E4B900022123C
:104983000CACC003C002C00190054A122E4B122E7C
:104993008D90069DEB122E6690054A122E4B122E19
:1049A300C29006A0F0A37413F0A37488F0D001D0D2
:1049B30002D003125175229008FDEBF0A3EAF0A395
:1049C300E9F09008FDE0FBA3E0FAA3E0F990090009
:1049D300EBF0A3EAF0A3E9F09008FDE0FBA3E0FA13
:1049E300A3E0F9EA494B7003024A83900892E0FF7F
:1049F3007E09EF8EF0A4FFAEF09008FDE0FBA3E08C
:104A0300FAA3E0F9E92FF9EA3EFAC003C002C001B4
:104A1300900900E0FBA3E0FAA3E0F9C3D082D083BE
:104A2300D0E0E99582EA95835056900900E0FBA314
:104A3300E0FAA3E0F9758205758300120743FF7E50
:104A430000EF64014E702C900900E0FBA3E0FAA391
:104A5300E0F9758206758300120CAC120D5B9009A8
:104A630000E0FBA3E0FAA3E0F9758205758300E497
:104A73001207EC900901E475F0091208750249EE7A
:104A830022C0E0C0F0C083C082C0D075D0189007A8
:104A930084124D3F9006D0124CC6E58430E10A5390
:104AA30084FD900145E054FEF0E58420E003024BD1
:104AB300345384FE9006D0E0FBA3E0FAA3E04A4B14
:104AC300606F9006D0A3A3E0F9120C3DE94A4B6056
:104AD300609006D0124CAA124CCFFDE5F05EFEEDBD
:104AE3005FFF120C3D8F828E83E5851207EC9006E3
:104AF300D0124CAA900005124CD2C39FFFE5F09E42
:104B0300FE9000031208CCFDD3EF9DEE95F040110B
:104B1300124CCFC39FFFE5F09E9000058FF0120962
:104B2300BC9006D0124CAA900007E475F00112095C
:104B330050D0D0D082D083D0F0D0E03290054AEB71
:104B4300121A32E4A3F0A3F0A3F0C00390055304B8
:104B5300F0A37405F0A3744DF0D003122277EF6431
:104B6300086003024BF7121AE07458F0A374A4F020
:104B730090054D121AC1125090E490054FF0900524
:104B83004A121A21121B1090054F121B4B5065122B
:104B93001AA590054F121C1B120BB090054D121B4A
:104BA300B3704990054A121A21121AA590054FE0D5
:104BB30075F00BA4FFAEF029121C26EA494B6034B2
:104BC30090054A121A21C003C002C00190054FE0AC
:104BD300FD90054AA3A3E0121AA5E92F121C26890A
:104BE300828A83D001D002D003020D5F90054FE08B
:104BF30004F0808A22900574EB121A32121BA5E48A
:104C030090057BF0A3F0900579E0FFA3E090057D8C
:104C1300CFF0A3EFF0E490057BF0A3F0900577E0ED
:104C2300FEA3E0FFC390057CE09F90057BE09E50D0
:104C33006A900574E0FBA3E475F00112088BA9F0F8
:104C4300FA12072AFF90057DE0F0A3E06FF0E4FC81
:104C5300FD90057DE0FEA3E0FF30E019EEC313FEF7
:104C6300EF13FFEE64A0FEEF6401FF90057DEEF00D
:104C7300A3EFF0800B90057DE0C313F0A3E013F0E6
:104C83000DBD00010CED64084C70C690057CE0047A
:104C9300F0708990057BE004F0808190057DE0FE53
:104CA300A3E0FF2290054AE0FBA3E0FAA3E0F92288
:104CB30090069DE0FBA3E475F00112088BA9F0FABE
:104CC30002072AC9F0A3EAF0A3E9F0229000031235
:104CD30008CCFFAEF09000070208CCA3F0E4A3F0E9
:104CE300A3EEF0A3EFF0A3E04401F0A37401F022DC
:104CF300A3F07B017A05794DE4FF229000031208AB
:104D0300CCAEF022A3A3A3E475F00112088B85F0C7
:104D130082F58322E490054DF0A304F0FB22ECF02E
:104D2300EDA3F0A3740AF022900001020743900060
:104D330006020743E4F0A37480F0E422E0F9A3E061
:104D4300FAA3E022FFE0FCA3E0FD020820900002AA
:104D53000207439008EE1253F69008EE1253CBEA83
:104D6300494B6011A31253CBEA494B6008A3E0708F
:104D730002A3E0700F1253D47428F07BFF7A5A79A0
:104D8300DE124F0C9008F4E0FEA3E0FF24FFFDEEDB
:104D930034FFFCEE5CFEEF5D4E60057EFF7FF32289
:104DA3009008F5E024FFFF9008F4E034FFFE90083C
:104DB300EE1253CB900003EE8FF01209BC90000566
:104DC300E4F5F01209BC9000051208CC900007121C
:104DD30054079008F11253CBC003C002C0019008DE
:104DE300EE1253CB120C5DE4FEFF2290055FEB1233
:104DF3001A32121BA578697C057A5979527F0612FB
:104E03001B5290055F121A21EA494B606F900567A8
:104E1300A3E0240590056BF0900562E0FCA3E0900D
:104E2300056D121C0575F0061209BC90055F121A78
:104E330021121B207A0579697E007F06121B8812D6
:104E43001A21121B79C003C002C00190055F121A18
:104E530021121C30D001D002D00329F9EA35F0A881
:104E630001FCAD03900564121A21121B88121A214A
:104E7300900005EE8FF012095012456522787FE409
:104E8300F6D8FD75812A024EC7023668E493A3F86B
:104E9300E493A34003F68001F208DFF48029E4934E
:104EA300A3F85407240CC8C333C4540F4420C88345
:104EB3004004F456800146F6DFE4800B0102040847
:104EC300102040809027F7E47E019360BCA3FF5439
:104ED3003F30E509541FFEE493A360010ECF54C095
:104EE30025E060A840B8E493A3FAE493A3F8E4931D
:104EF300A3C8C582C8CAC583CAF0A3C8C582C8CA25
:104F0300C583CADFE9DEE780BE9008DCEBF0A3EAE5
:104F1300F0A3E9F09008E4E4F07B017A017901C0A1
:104F230003C002C0017BFF7A5A796B90056CEBF0EA
:104F3300A3EAF0A3E9F09008DCE0FBA3E0FAA3E026
:104F4300F990056FEBF0A3EAF0A3E9F09008DFE036
:104F5300FBA3E0FAA3E0F9900572EBF0A3EAF0A358
:104F6300E9F09008E2E0FEA3E0FF900575EEF0A300
:104F7300EFF0D001D002D0031250909008E4E0FF8C
:104F8300EF3395E0FEEF4E700575C76080ED22901C
:104F930005591253F6E4900561F0A3F0EA494B601A
:104FA3000B90055C1253CBEA494B700F1253D47428
:104FB30054F07BFF7A5B7911124F0CE4900561F09A
:104FC300A3F090055FE0FEA3E0FFA3E0FCA3E0FDF8
:104FD300C39FEC9E503490055CE0FBA3E0FAA3E092
:104FE3002DF9EA3CFA9005661253F69005591253CF
:104FF300CB125103EF4E60028010900562E004F083
:1050030070C0900561E004F080B8900561E0FEA3F4
:10501300E0FF22900906EDF09009031253F64A4B84
:10502300700B1253D474651253FF124F0C90090680
:10503300E0FF1253C812541AFDACF0900007120897
:10504300CCFBE5F05CFCEB5DFD900903E0FBA3A367
:10505300E0120C3D8D828C83EF1207EC1253C812C1
:1050630053E7125420FE12541AFDD3EF9DEE95F030
:1050730040119000031253EA1254209000058FF060
:105083001209BC1253C890000712540F22900569ED
:10509300EB124CC7E4FFFE78977C057D017BFF7A1A
:1050A30059796B0E1207049006977401F0A37405E7
:1050B300F0A3746FF090056C124D3F90069A124C5A
:1050C300C6900697124D3F90069D124CC67B017AFF
:1050D300057997125520900697E4F0A3F0A3F0907A
:1050E300069D04F0A37405F0A37497F0A3EFF0A357
:1050F3007413F0A37488F0900569124CAA025175D9
:105103009005631253F69005631253CBEA494B6043
:1051130009A31253CBEA494B700F1253D47441F0D5
:105123007BFF7A5B7907124F0C9005631253CB1206
:1051330053E76F7003E5F06E603312541A90000565
:105143001253F0FDE5F05EFEED5FFF120C3D8F8222
:105153008E83120743FF9005661253CBEF1207DAD3
:105163009005631253CB90000512540F227EFF7FEC
:10517300F62290069AEB124CC790069A124CAAEAB2
:10518300494B7009A3124CAAEA494B604E9006A002
:10519300E0FF14F0EF604490069A124CAA9006A127
:1051A300E0FCA3E0FD1257DE90069A124CAA120708
:1051B3002A24FE6011146015146019240370CE12A2
:1051C3004CB3F59980C7124CB3F59B80C0124CB316
:1051D300F5AD80B9124CB3F58580B222C0E0C0F0C2
:1051E300C083C082C0D075D008E59A30E10A539AD3
:1051F300FD90011DE054FEF0E59A30E039539AFE2C
:10520300900122124CAAEA494B602B900128E0FF3F
:1052130054027022EF4401F0900122124D07E59BE6
:105223001207EC900125E0FEA3E0900120124D4708
:10523300900125124D21D0D0D082D083D0F0D0E080
:1052430032C0E0C0F0C083C082C0D075D010E5ACDE
:1052530030E10A53ACFD900131E054FEF0E5AC308F
:10526300E03953ACFE900136124CAAEA494B602B4D
:1052730090013CE0FF54027022EF4401F0900136AC
:10528300124D07E5AD1207EC900139E0FEA3E09063
:105293000134124D47900139124D21D0D0D082D024
:1052A30083D0F0D0E0329008CFEB121A32121BA554
:1052B30078D57C087A5979587F07121B529008CF0A
:1052C300121A21EA494B603DA3E0FCA3E0FDEC90F8
:1052D30008D9F0A3EDF09008D4E09008DBF090003B
:1052E30005E475F0071209BC9008CF121A21121BAE
:1052F300207A0879D57E007F071207049008CF1221
:105303001A211245652290056B120BEC0000001464
:105313007F1E12562E400475C780227F1812562E08
:10532300400475C78122E47F1412562F400475C7C9
:105333008222E47F0C12562F400475C78322E47F38
:105343000612562F400475C78422E47F0312562F9A
:10535300400475C78522E47F0212562F400475C7A7
:10536300862275C78722900561EEF0A3EFF0A3EBC9
:10537300F0A3EAF0A3E9F0125644EA494B60451260
:105383005650120026900566125663603712565027
:10539300A312564712072AFD1257BA12565012008B
:1053A3000312564412072AB5071A900562E004F067
:1053B3007006900561E004F0900564E475F0011255
:1053C300087580C122900903E0FBA3E0FAA3E0F98A
:1053D300229008DF74FFF0A3745AF0A374F0F0A3D3
:1053E300E4F0A3229000051208CC900007FFAEF072
:1053F3000208CCEBF0A3EAF0A3E9F022F07BFF7AFA
:105403005B791B22FFE5F08FF00209BCE475F00124
:10541300120950E4FEFF229000030208CCC39FFF51
:10542300E5F09E2290055BEB121A32121B029005E7
:105433005EEB121A3290055B121A21EA494B604067
:10544300A3121A21EA494B6037121B707D117C00AD
:10545300124BF890055E121A21900011EE8FF01294
:1054630009BC90055B121A211208A1FFAEF090054A
:105473005E121A21900566E4F0A37413F0125369C7
:105483002290055FEB121A32121BA578647C057D0E
:10549300017BFF7A59795F121C10121A21EA494BDA
:1054A3006030A3E0FCA3E090056C121C05F5F0123C
:1054B30009BC90055F121A21121B207A0579641228
:1054C3001C10121A21900005E475F00A12095012FB
:1054D3004565229001017401F07450124CDE900175
:1054E30009E054FDF09001087440F054FEF090017F
:1054F3000A74EFF0A3F0E4900114F07B0190010E25
:1055030004F0A37400F0A37401F090010C124D3762
:10551300900111F0A3F07A017901023BA190069A60
:10552300E0FFA3E0FEA3E0CF9006A3F0A3EEF0A379
:10553300EFF090069DE0CBF0A3E0CAF0A3E0C9F042
:105543007F229006A6AD82AC8312072A8D828C83BC
:10555300F0A309E970010ADFEC90069DE0FBA3E0EC
:10556300FAA3E0F90210509001297403F074501269
:105573004D24A3EEF0A3EFF090012F7408F0E49014
:10558300013CF07B0190013604F0A37401F0A37495
:1055930051F09001347401F0A3746CF0E49001397C
:1055A300F0A3F07A017929023BA190013D7404F044
:1055B300A37450F0A374A0F0A3EEF0A3EFF0900156
:1055C300437410F0E4900150F07B0190014A04F021
:1055D300A37402F0A374BDF0900148124D379001FB
:1055E3004DF0A3F07A01793D023BA19001157402BD
:1055F300F07410124CDEA37414F090011E7401F0C9
:10560300A374FEF0E4900128F07B0190012204F0E2
:10561300A37400F0A37481F0900120124D37900120
:1056230025F0A3F07A017915023BA1E4FEFDFC907D
:10563300056BE0F8A3E0F9A3E0FAA3E0FBC3020AD9
:10564300C5900563E0FBA3E0FAA3E0F922900561AE
:10565300E0FEA3E0FF22E0FEA3E0F5C4EEF5C322E3
:1056630074FFF5F012088B45F02290054FEB122ED4
:105673006690054F122EA74A4B600F90054FA3A3C8
:10568300E0F9122E7CE94A4B7002C32290054F12B7
:105693002E4B122F1E6401700D122E7C12072A64EA
:1056A3000D7003D38001C3229008E5E4F09008E66F
:1056B300747FF09008E774F0F09008E874F9F0A3B1
:1056C300747EF09008EBE4F09008EAE4F09008ECC4
:1056D3007401F09008ED7401F07B017A0879E5120A
:1056E300429B229009101253F69009101253CBEAF1
:1056F300494B700B1253D474861253FF124F0C9004
:1057030009101253CB9000071208CC9000051254D5
:1057130007E4FEFF229005591253F69005591253E0
:10572300CBEA494B700B1253D4747C1253FF124FC4
:105733000C9005591253CB1253E7125420FE22AF9B
:1057430099EF647F6007AF99EF6480701590000054
:10575300E004F0C3940A74809480400BE4F075C7AE
:105763006022E4900000F022C0E0C083C082C0D079
:1057730075D000309909C299900109E054FEF030C8
:105783009805C298125742D0D0D082D083D0E0324D
:10579300EFB40A07740D12579E740A309811A89932
:1057A300B8130CC2983098FDA899C298B811F63076
:1057B30099FDC299F59922900568EEF0A3EFF0A345
:1057C300EDF012530975C502900568125659A3E00E
:1057D300F5C275C65A75C6A502581F900008120770
:1057E3004330E00AED1DAE0470011C4E70EDE92458
:1057F30008F9E43AFA12072A44010207DA90054F3E
:10580300745AF07B017A05794F900566E4F0A3049E
:10581300F07F007EFE12536975C76022E4F5C7F579
:10582300C5F5C675C380F5C4229000010207434045
:105833006572726F723A50726F746F636F6C206629
:1058430072616D6520686561646572206572726F4F
:10585300722E0D0A006477696E5F72785F627566F7
:105863005B2562645D3A0025625820000D0A0D0A2B
:1058730000406572726F723A637263206368656396
:105883006B20636F6465206572726F722E0D0A0060
:105893006372633136203D2030782562582E0D0A1D
:1058A3000061646472203D20307825780D0A00730E
:1058B3007563636573733A2054686520706173730D
:1058C300776F726420697320636F727265637421EA
:1058D3000D0A006572726F723A2057726F6E6720FD
:1058E30075736572206E616D6520616E64207061F1
:1058F3007373776F7264210D0A006572726F723A67
:105903002055736572206E616D65206572726F72CA
:10591300210D0A006572726F723A20557365722009
:1059230070617373776F7264206572726F72210D89
:105933000A00737563636573733A20436C65617220
:10594300204572726F722049636F6E210D0A005AEF
:10595300A5008200005AA506820000005AA509820C
:1059630000845A0100000000000000000000000055
:105973000000000000000000000000000000000024
:105983000000000000000000000000000000000014
:105993000000000000000000000000000000000004
:1059A30000000000000000000000000000000000F4
:1059B30000000000000000000000000000000000E4
:1059C30000000000000000000000000000000000D4
:1059D30000000000000000000000000000000000C4
:1059E30000000000000000000000000000000000B4
:1059F30000000000000000000000000000000000A4
:105A03000000000000000000000000000000000093
:105A13000000000000000000000000000000000083
:105A23000000000000000000000000000000000073
:105A33000000000000000000000000000000000063
:105A43000000000000000000000000000000000053
:105A53000000000000000000000000000000000043
:105A630000000000000000002825732920617373E3
:105A7300657274696F6E206661696C656420617418
:105A83002066696C653A25732C206C696E653A252E
:105A930064200A000001007800DC00DC0001000F34
:105AA3000203E91A0AB59C16030101000100000074
:105AB3000000170A1A0F1E19222326342A462E5ACB
:105AC300327D34BE353C0000190100000F0100DCBB
:105AD300DCDCFFFFFF160802FA00007262202626B4
